{
  "_format": "hh3-artifact-1",
  "contractName": "RupiahToken",
  "sourceName": "contracts/RupiahToken.sol",
  "abi": [
    {
      "inputs": [],
      "stateMutability": "nonpayable",
      "type": "constructor"
    },
    {
      "inputs": [
        {
          "internalType": "address",
          "name": "spender",
          "type": "address"
        },
        {
          "internalType": "uint256",
          "name": "allowance",
          "type": "uint256"
        },
        {
          "internalType": "uint256",
          "name": "needed",
          "type": "uint256"
        }
      ],
      "name": "ERC20InsufficientAllowance",
      "type": "error"
    },
    {
      "inputs": [
        {
          "internalType": "address",
          "name": "sender",
          "type": "address"
        },
        {
          "internalType": "uint256",
          "name": "balance",
          "type": "uint256"
        },
        {
          "internalType": "uint256",
          "name": "needed",
          "type": "uint256"
        }
      ],
      "name": "ERC20InsufficientBalance",
      "type": "error"
    },
    {
      "inputs": [
        {
          "internalType": "address",
          "name": "approver",
          "type": "address"
        }
      ],
      "name": "ERC20InvalidApprover",
      "type": "error"
    },
    {
      "inputs": [
        {
          "internalType": "address",
          "name": "receiver",
          "type": "address"
        }
      ],
      "name": "ERC20InvalidReceiver",
      "type": "error"
    },
    {
      "inputs": [
        {
          "internalType": "address",
          "name": "sender",
          "type": "address"
        }
      ],
      "name": "ERC20InvalidSender",
      "type": "error"
    },
    {
      "inputs": [
        {
          "internalType": "address",
          "name": "spender",
          "type": "address"
        }
      ],
      "name": "ERC20InvalidSpender",
      "type": "error"
    },
    {
      "anonymous": false,
      "inputs": [
        {
          "indexed": true,
          "internalType": "address",
          "name": "owner",
          "type": "address"
        },
        {
          "indexed": true,
          "internalType": "address",
          "name": "spender",
          "type": "address"
        },
        {
          "indexed": false,
          "internalType": "uint256",
          "name": "value",
          "type": "uint256"
        }
      ],
      "name": "Approval",
      "type": "event"
    },
    {
      "anonymous": false,
      "inputs": [
        {
          "indexed": true,
          "internalType": "address",
          "name": "from",
          "type": "address"
        },
        {
          "indexed": false,
          "internalType": "uint256",
          "name": "amount",
          "type": "uint256"
        }
      ],
      "name": "TokenBurned",
      "type": "event"
    },
    {
      "anonymous": false,
      "inputs": [
        {
          "indexed": true,
          "internalType": "address",
          "name": "to",
          "type": "address"
        },
        {
          "indexed": false,
          "internalType": "uint256",
          "name": "amount",
          "type": "uint256"
        }
      ],
      "name": "TokenMinted",
      "type": "event"
    },
    {
      "anonymous": false,
      "inputs": [
        {
          "indexed": true,
          "internalType": "address",
          "name": "from",
          "type": "address"
        },
        {
          "indexed": true,
          "internalType": "address",
          "name": "to",
          "type": "address"
        },
        {
          "indexed": false,
          "internalType": "uint256",
          "name": "value",
          "type": "uint256"
        }
      ],
      "name": "Transfer",
      "type": "event"
    },
    {
      "inputs": [
        {
          "internalType": "address",
          "name": "owner",
          "type": "address"
        },
        {
          "internalType": "address",
          "name": "spender",
          "type": "address"
        }
      ],
      "name": "allowance",
      "outputs": [
        {
          "internalType": "uint256",
          "name": "remaining",
          "type": "uint256"
        }
      ],
      "stateMutability": "view",
      "type": "function"
    },
    {
      "inputs": [
        {
          "internalType": "address",
          "name": "spender",
          "type": "address"
        },
        {
          "internalType": "uint256",
          "name": "amount",
          "type": "uint256"
        }
      ],
      "name": "approve",
      "outputs": [
        {
          "internalType": "bool",
          "name": "success",
          "type": "bool"
        }
      ],
      "stateMutability": "nonpayable",
      "type": "function"
    },
    {
      "inputs": [
        {
          "internalType": "address",
          "name": "account",
          "type": "address"
        }
      ],
      "name": "balanceOf",
      "outputs": [
        {
          "internalType": "uint256",
          "name": "",
          "type": "uint256"
        }
      ],
      "stateMutability": "view",
      "type": "function"
    },
    {
      "inputs": [
        {
          "internalType": "uint256",
          "name": "amount",
          "type": "uint256"
        }
      ],
      "name": "burn",
      "outputs": [],
      "stateMutability": "nonpayable",
      "type": "function"
    },
    {
      "inputs": [],
      "name": "decimals",
      "outputs": [
        {
          "internalType": "uint8",
          "name": "",
          "type": "uint8"
        }
      ],
      "stateMutability": "view",
      "type": "function"
    },
    {
      "inputs": [],
      "name": "deployer",
      "outputs": [
        {
          "internalType": "address",
          "name": "",
          "type": "address"
        }
      ],
      "stateMutability": "view",
      "type": "function"
    },
    {
      "inputs": [],
      "name": "gatewayContract",
      "outputs": [
        {
          "internalType": "address",
          "name": "",
          "type": "address"
        }
      ],
      "stateMutability": "view",
      "type": "function"
    },
    {
      "inputs": [],
      "name": "gatewaySet",
      "outputs": [
        {
          "internalType": "bool",
          "name": "",
          "type": "bool"
        }
      ],
      "stateMutability": "view",
      "type": "function"
    },
    {
      "inputs": [],
      "name": "governanceContract",
      "outputs": [
        {
          "internalType": "address",
          "name": "",
          "type": "address"
        }
      ],
      "stateMutability": "view",
      "type": "function"
    },
    {
      "inputs": [],
      "name": "governanceSet",
      "outputs": [
        {
          "internalType": "bool",
          "name": "",
          "type": "bool"
        }
      ],
      "stateMutability": "view",
      "type": "function"
    },
    {
      "inputs": [
        {
          "internalType": "address",
          "name": "to",
          "type": "address"
        },
        {
          "internalType": "uint256",
          "name": "amount",
          "type": "uint256"
        }
      ],
      "name": "mint",
      "outputs": [],
      "stateMutability": "nonpayable",
      "type": "function"
    },
    {
      "inputs": [],
      "name": "name",
      "outputs": [
        {
          "internalType": "string",
          "name": "",
          "type": "string"
        }
      ],
      "stateMutability": "view",
      "type": "function"
    },
    {
      "inputs": [
        {
          "internalType": "address",
          "name": "_gatewayContract",
          "type": "address"
        }
      ],
      "name": "setGateway",
      "outputs": [],
      "stateMutability": "nonpayable",
      "type": "function"
    },
    {
      "inputs": [
        {
          "internalType": "address",
          "name": "_governanceContract",
          "type": "address"
        }
      ],
      "name": "setGovernance",
      "outputs": [],
      "stateMutability": "nonpayable",
      "type": "function"
    },
    {
      "inputs": [],
      "name": "symbol",
      "outputs": [
        {
          "internalType": "string",
          "name": "",
          "type": "string"
        }
      ],
      "stateMutability": "view",
      "type": "function"
    },
    {
      "inputs": [],
      "name": "totalSupply",
      "outputs": [
        {
          "internalType": "uint256",
          "name": "",
          "type": "uint256"
        }
      ],
      "stateMutability": "view",
      "type": "function"
    },
    {
      "inputs": [
        {
          "internalType": "address",
          "name": "to",
          "type": "address"
        },
        {
          "internalType": "uint256",
          "name": "amount",
          "type": "uint256"
        }
      ],
      "name": "transfer",
      "outputs": [
        {
          "internalType": "bool",
          "name": "success",
          "type": "bool"
        }
      ],
      "stateMutability": "nonpayable",
      "type": "function"
    },
    {
      "inputs": [
        {
          "internalType": "address",
          "name": "from",
          "type": "address"
        },
        {
          "internalType": "address",
          "name": "to",
          "type": "address"
        },
        {
          "internalType": "uint256",
          "name": "amount",
          "type": "uint256"
        }
      ],
      "name": "transferFrom",
      "outputs": [
        {
          "internalType": "bool",
          "name": "success",
          "type": "bool"
        }
      ],
      "stateMutability": "nonpayable",
      "type": "function"
    }
  ],
  "bytecode": "0x60a06040523461034d57604080519081016001600160401b0381118282101761025557604090815260128252713296a4a22910293ab834b0b4102a37b5b2b760711b602083015280519081016001600160401b0381118282101761025557604052600481526332a4a22960e11b602082015281516001600160401b03811161025557600354600181811c91168015610343575b602082101461023757601f81116102d5575b50602092601f821160011461027457928192935f92610269575b50508160011b915f199060031b1c1916176003555b80516001600160401b03811161025557600454600181811c9116801561024b575b602082101461023757601f81116101c9575b50602091601f8211600114610169579181925f9261015e575b50508160011b915f199060031b1c1916176004555b33608052604051610e2690816103528239608051818181610173015281816101e9015261048e0152f35b015190505f8061011f565b601f1982169260045f52805f20915f5b8581106101b157508360019510610199575b505050811b01600455610134565b01515f1960f88460031b161c191690555f808061018b565b91926020600181928685015181550194019201610179565b818111156101065760045f52601f820160051c7f8a35acfbc15ff81a39ae7d344fd709f28e8600b4aa8c65c6b64bfe7fe36bd19b6020841061022f575b81601f9101920160051c03905f5b828110610222575050610106565b5f82820155600101610214565b5f9150610206565b634e487b7160e01b5f52602260045260245ffd5b90607f16906100f4565b634e487b7160e01b5f52604160045260245ffd5b015190505f806100be565b601f1982169360035f52805f20915f5b8681106102bd57508360019596106102a5575b505050811b016003556100d3565b01515f1960f88460031b161c191690555f8080610297565b91926020600181928685015181550194019201610284565b818111156100a45760035f52601f820160051c7fc2575a0e9e593c00f959f8c92f12db2869c3395a3b0502d05e2516446f71f85b6020841061033b575b81601f9101920160051c03905f5b82811061032e5750506100a4565b5f82820155600101610320565b5f9150610312565b90607f1690610092565b5f80fdfe6080806040526004361015610012575f80fd5b5f3560e01c90816306fdde0314610b6657508063095ea7b314610ae4578063176e21ca14610abf57806318160ddd14610aa257806323b872dd146109a8578063313ce5671461098d57806340c10f191461079857806342966c68146105f65780635447196d146105d157806370a082311461059a57806390646b4a1461046f57806395d89b4114610354578063a9059cbb14610309578063ab033ea9146101ca578063b172b222146101a2578063d5f394881461015e578063dd62ed3e1461010e5763eb0cde1d146100e2575f80fd5b3461010a575f36600319011261010a576006546040516001600160a01b039091168152602090f35b5f80fd5b3461010a57604036600319011261010a57610127610c5f565b61012f610c75565b6001600160a01b039182165f908152600160209081526040808320949093168252928352819020549051908152f35b3461010a575f36600319011261010a576040517f00000000000000000000000000000000000000000000000000000000000000006001600160a01b03168152602090f35b3461010a575f36600319011261010a576005546040516001600160a01b039091168152602090f35b3461010a57602036600319011261010a576101e3610c5f565b610217337f00000000000000000000000000000000000000000000000000000000000000006001600160a01b031614610cee565b6006549060ff8260a01c166102b0576001600160a01b0316801561025b57600580546001600160a01b03191691909117905560ff60a01b1916600160a01b17600655005b60405162461bcd60e51b815260206004820152602760248201527f527570696168546f6b656e3a20496e76616c696420676f7665726e616e6365206044820152666164647265737360c81b6064820152608490fd5b60405162461bcd60e51b815260206004820152602b60248201527f527570696168546f6b656e3a20476f7665726e616e636520616464726573732060448201526a185b1c9958591e481cd95d60aa1b6064820152608490fd5b3461010a57604036600319011261010a57610349610325610c5f565b60065461033f906001600160a01b03838116911614610c8b565b6024359033610d46565b602060405160018152f35b3461010a575f36600319011261010a576040515f6004548060011c90600181168015610465575b6020831081146104515782855290811561043557506001146103e0575b50819003601f01601f191681019067ffffffffffffffff8211818310176103cc576103c882918260405282610c35565b0390f35b634e487b7160e01b5f52604160045260245ffd5b905060045f527f8a35acfbc15ff81a39ae7d344fd709f28e8600b4aa8c65c6b64bfe7fe36bd19b5f905b82821061041f57506020915082010182610398565b600181602092548385880101520191019061040a565b90506020925060ff191682840152151560051b82010182610398565b634e487b7160e01b5f52602260045260245ffd5b91607f169161037b565b3461010a57602036600319011261010a57610488610c5f565b6104bc337f00000000000000000000000000000000000000000000000000000000000000006001600160a01b031614610cee565b6006549060ff8260a81c16610544576001600160a01b031680156104f357600161ff0160a01b031990911617600160a81b17600655005b60405162461bcd60e51b8152602060048201526024808201527f527570696168546f6b656e3a20496e76616c69642067617465776179206164646044820152637265737360e01b6064820152608490fd5b60405162461bcd60e51b815260206004820152602860248201527f527570696168546f6b656e3a2047617465776179206164647265737320616c726044820152671958591e481cd95d60c21b6064820152608490fd5b3461010a57602036600319011261010a576001600160a01b036105bb610c5f565b165f525f602052602060405f2054604051908152f35b3461010a575f36600319011261010a57602060ff60065460a81c166040519015158152f35b3461010a57602036600319011261010a57600654600435906001600160a01b0316330361073b5780156106d95733156106c657335f525f6020528060405f20548181106106ad57335f525f6020520360405f205580600254036002555f6040518281527fddf252ad1be2c89b69c2b068fc378daa952ba7f163c4a11628f55a4df523b3ef60203392a36040519081527f1af5163f80e79b5e554f61e1d052084d3a3fe1166e42a265798c4e2ddce8ffa260203392a2005b63391434e360e21b5f523360045260245260445260645ffd5b634b637e8f60e11b5f525f60045260245ffd5b60405162461bcd60e51b815260206004820152603460248201527f527570696168546f6b656e3a206275726e20616d6f756e74206d757374206265604482015273206772656174657220746861742061207a65726f60601b6064820152608490fd5b60405162461bcd60e51b815260206004820152602f60248201527f527570696168546f6b656e3a2043616c6c6572206973206e6f7420746865206760448201526e185d195dd85e4818dbdb9d1c9858dd608a1b6064820152608490fd5b3461010a57604036600319011261010a576107b1610c5f565b60055460243591906001600160a01b0316330361092d576001600160a01b03169081156108de57801561087e5760025481810180911161086a576002557fb9144c96c86541f6fa89c9f2f02495cccf4b08cd6643e26d34ee00aa586558a890602090836108555780600254036002555b835f7fddf252ad1be2c89b69c2b068fc378daa952ba7f163c4a11628f55a4df523b3ef84604051858152a3604051908152a2005b835f525f825260405f20818154019055610821565b634e487b7160e01b5f52601160045260245ffd5b60405162461bcd60e51b815260206004820152603260248201527f527570696168546f6b656e3a204d696e7420616d6f756e74206d7573742062656044820152712067726561746572207468616e207a65726f60701b6064820152608490fd5b60405162461bcd60e51b815260206004820152602160248201527f527570696168546f6b656e3a204d696e7420746f207a65726f206164647265736044820152607360f81b6064820152608490fd5b60405162461bcd60e51b815260206004820152603260248201527f527570696168546f6b656e3a2043616c6c6572206973206e6f742074686520676044820152711bdd995c9b985b98d94818dbdb9d1c9858dd60721b6064820152608490fd5b3461010a575f36600319011261010a57602060405160128152f35b3461010a57606036600319011261010a576109c1610c5f565b6109c9610c75565b60065460443591906109e8906001600160a01b03808416911614610c8b565b6001600160a01b0383165f8181526001602090815260408083203384529091529020549093905f198110610a22575b506103499350610d46565b838110610a87578415610a74573315610a6157610349945f52600160205260405f2060018060a01b0333165f526020528360405f209103905584610a17565b634a1406b160e11b5f525f60045260245ffd5b63e602df0560e01b5f525f60045260245ffd5b8390637dc7a0d960e11b5f523360045260245260445260645ffd5b3461010a575f36600319011261010a576020600254604051908152f35b3461010a575f36600319011261010a57602060ff60065460a01c166040519015158152f35b3461010a57604036600319011261010a57610afd610c5f565b602435903315610a74576001600160a01b0316908115610a6157335f52600160205260405f20825f526020528060405f20556040519081527f8c5be1e5ebec7d5bd14f71427d1e84f3dd0314c0f7b2291e5b200ac8c7c3b92560203392a3602060405160018152f35b3461010a575f36600319011261010a575f6003548060011c90600181168015610c2b575b602083108114610451578285529081156104355750600114610bd65750819003601f01601f191681019067ffffffffffffffff8211818310176103cc576103c882918260405282610c35565b905060035f527fc2575a0e9e593c00f959f8c92f12db2869c3395a3b0502d05e2516446f71f85b5f905b828210610c1557506020915082010182610398565b6001816020925483858801015201910190610c00565b91607f1691610b8a565b602060409281835280519182918282860152018484015e5f828201840152601f01601f1916010190565b600435906001600160a01b038216820361010a57565b602435906001600160a01b038216820361010a57565b15610c9257565b60405162461bcd60e51b815260206004820152602e60248201527f527570696168546f6b656e3a204f6e6c79207472616e736665727320746f206760448201526d185d195dd85e48185b1b1bddd95960921b6064820152608490fd5b15610cf557565b60405162461bcd60e51b815260206004820152602360248201527f527570696168546f6b656e3a2043616c6c6572206973206e6f74206465706c6f6044820152623cb2b960e91b6064820152608490fd5b6001600160a01b03169081156106c6576001600160a01b0316918215610ddd57815f525f60205260405f2054818110610dc457817fddf252ad1be2c89b69c2b068fc378daa952ba7f163c4a11628f55a4df523b3ef92602092855f525f84520360405f2055845f525f825260405f20818154019055604051908152a3565b8263391434e360e21b5f5260045260245260445260645ffd5b63ec442f0560e01b5f525f60045260245ffdfea264697066735822122014310a25ef0665dff3f1a822ab3b633e5d2f6710822fa5119603908e899b4b2e64736f6c63430008230033",
  "linkReferences": {},
  "deployedLinkReferences": {},
  "immutableReferences": {
    "8457": [
      {
        "length": 32,
        "start": 371
      },
      {
        "length": 32,
        "start": 489
      },
      {
        "length": 32,
        "start": 1166
      }
    ]
  },
  "inputSourceName": "project/contracts/RupiahToken.sol",
  "buildInfoId": "solc-0_8_35-9b17a704c4b3f4ff5971c730ef20169089bc3fb2"
}