{
  "_format": "hh3-artifact-1",
  "contractName": "TrustedGatewayBurner",
  "sourceName": "contracts/TrustedGatewayBurner.sol",
  "abi": [
    {
      "inputs": [
        {
          "internalType": "address",
          "name": "_rupiahTokenAddress",
          "type": "address"
        }
      ],
      "stateMutability": "nonpayable",
      "type": "constructor"
    },
    {
      "anonymous": false,
      "inputs": [
        {
          "indexed": true,
          "internalType": "address",
          "name": "picWallet",
          "type": "address"
        },
        {
          "indexed": false,
          "internalType": "uint256",
          "name": "amount",
          "type": "uint256"
        }
      ],
      "name": "ExchangeTokenToFiat",
      "type": "event"
    },
    {
      "anonymous": false,
      "inputs": [
        {
          "indexed": true,
          "internalType": "uint256",
          "name": "id",
          "type": "uint256"
        },
        {
          "indexed": true,
          "internalType": "address",
          "name": "pic",
          "type": "address"
        },
        {
          "indexed": false,
          "internalType": "uint256",
          "name": "amount",
          "type": "uint256"
        },
        {
          "indexed": false,
          "internalType": "bool",
          "name": "byPic",
          "type": "bool"
        }
      ],
      "name": "RedemptionCancelled",
      "type": "event"
    },
    {
      "anonymous": false,
      "inputs": [
        {
          "indexed": true,
          "internalType": "uint256",
          "name": "id",
          "type": "uint256"
        },
        {
          "indexed": true,
          "internalType": "address",
          "name": "pic",
          "type": "address"
        },
        {
          "indexed": false,
          "internalType": "uint256",
          "name": "amount",
          "type": "uint256"
        }
      ],
      "name": "RedemptionRequested",
      "type": "event"
    },
    {
      "anonymous": false,
      "inputs": [
        {
          "indexed": true,
          "internalType": "uint256",
          "name": "id",
          "type": "uint256"
        },
        {
          "indexed": true,
          "internalType": "address",
          "name": "pic",
          "type": "address"
        },
        {
          "indexed": false,
          "internalType": "uint256",
          "name": "amount",
          "type": "uint256"
        }
      ],
      "name": "RedemptionSettled",
      "type": "event"
    },
    {
      "inputs": [],
      "name": "RECLAIM_TIMEOUT",
      "outputs": [
        {
          "internalType": "uint256",
          "name": "",
          "type": "uint256"
        }
      ],
      "stateMutability": "view",
      "type": "function"
    },
    {
      "inputs": [
        {
          "internalType": "uint256",
          "name": "id",
          "type": "uint256"
        }
      ],
      "name": "cancelRedemption",
      "outputs": [],
      "stateMutability": "nonpayable",
      "type": "function"
    },
    {
      "inputs": [
        {
          "internalType": "uint256",
          "name": "id",
          "type": "uint256"
        }
      ],
      "name": "confirmRedemption",
      "outputs": [],
      "stateMutability": "nonpayable",
      "type": "function"
    },
    {
      "inputs": [],
      "name": "gatewayOwner",
      "outputs": [
        {
          "internalType": "address",
          "name": "",
          "type": "address"
        }
      ],
      "stateMutability": "view",
      "type": "function"
    },
    {
      "inputs": [
        {
          "internalType": "uint256",
          "name": "id",
          "type": "uint256"
        }
      ],
      "name": "getRedemption",
      "outputs": [
        {
          "components": [
            {
              "internalType": "address",
              "name": "pic",
              "type": "address"
            },
            {
              "internalType": "uint256",
              "name": "amount",
              "type": "uint256"
            },
            {
              "internalType": "uint256",
              "name": "createdAt",
              "type": "uint256"
            },
            {
              "internalType": "enum TrustedGatewayBurner.RedemptionStatus",
              "name": "status",
              "type": "uint8"
            }
          ],
          "internalType": "struct TrustedGatewayBurner.RedemptionRequest",
          "name": "",
          "type": "tuple"
        }
      ],
      "stateMutability": "view",
      "type": "function"
    },
    {
      "inputs": [],
      "name": "redemptionNonce",
      "outputs": [
        {
          "internalType": "uint256",
          "name": "",
          "type": "uint256"
        }
      ],
      "stateMutability": "view",
      "type": "function"
    },
    {
      "inputs": [
        {
          "internalType": "uint256",
          "name": "",
          "type": "uint256"
        }
      ],
      "name": "redemptions",
      "outputs": [
        {
          "internalType": "address",
          "name": "pic",
          "type": "address"
        },
        {
          "internalType": "uint256",
          "name": "amount",
          "type": "uint256"
        },
        {
          "internalType": "uint256",
          "name": "createdAt",
          "type": "uint256"
        },
        {
          "internalType": "enum TrustedGatewayBurner.RedemptionStatus",
          "name": "status",
          "type": "uint8"
        }
      ],
      "stateMutability": "view",
      "type": "function"
    },
    {
      "inputs": [
        {
          "internalType": "uint256",
          "name": "amount",
          "type": "uint256"
        }
      ],
      "name": "requestRedemption",
      "outputs": [
        {
          "internalType": "uint256",
          "name": "id",
          "type": "uint256"
        }
      ],
      "stateMutability": "nonpayable",
      "type": "function"
    },
    {
      "inputs": [],
      "name": "rupiahToken",
      "outputs": [
        {
          "internalType": "contract IRupiahToken",
          "name": "",
          "type": "address"
        }
      ],
      "stateMutability": "view",
      "type": "function"
    }
  ],
  "bytecode": "0x608034607d57601f610a6738819003918201601f19168301916001600160401b03831184841017608157808492602094604052833981010312607d57516001600160a01b03811690819003607d57600180546001600160a01b031990811633179091555f80549091169190911790556040516109d190816100968239f35b5f80fd5b634e487b7160e01b5f52604160045260245ffdfe6080806040526004361015610012575f80fd5b5f905f3560e01c9081631953cc21146108275750806363b9e1ad146107ff57806384d77bb1146107e25780639219e5101461062e578063a572219814610607578063beb65893146105a8578063d105e97a146103f2578063ebede8be146103d45763eeb3c91014610081575f80fd5b346103d15760203660031901126103d157600435801561037a5781546040516370a0823160e01b81523360048201526001600160a01b0390911690602081602481855afa80156102ea5783918591610345575b50106102f557604051636eb1769f60e11b8152336004820152306024820152602081604481855afa80156102ea57839185916102b1575b501061026c57602083916064604051809481936323b872dd60e01b83523360048401523060248401528760448401525af1801561026157610234575b506002545f198114610220576001019081600255604051610167816108e5565b338152600360208201918383526040810142815260608201936001855286885283602052604088209260018060a01b039051166bffffffffffffffffffffffff60a01b845416178355516001830155516002820155019051600481101561020c576020945060ff80198354169116179055604051908152817f83514d1524a080739a40a8204954eefffd2421bc5b43f0105376f5471a2812c6843393a3604051908152f35b634e487b7160e01b85526021600452602485fd5b634e487b7160e01b83526011600452602483fd5b6102559060203d60201161025a575b61024d8183610915565b810190610983565b610147565b503d610243565b6040513d85823e3d90fd5b60405162461bcd60e51b815260206004820152601a60248201527f476174657761793a20616c6c6f77616e636520746f6f206c6f770000000000006044820152606490fd5b9150506020813d6020116102e2575b816102cd60209383610915565b810103126102de578290515f61010b565b5f80fd5b3d91506102c0565b6040513d86823e3d90fd5b60405162461bcd60e51b815260206004820152602260248201527f476174657761793a20696e73756666696369656e7420654944522062616c616e604482015261636560f01b6064820152608490fd5b9150506020813d602011610372575b8161036160209383610915565b810103126102de578290515f6100d4565b3d9150610354565b60405162461bcd60e51b815260206004820152602960248201527f476174657761793a20616d6f756e74206d7573742062652067726561746572206044820152687468616e207a65726f60b81b6064820152608490fd5b80fd5b50346103d157806003193601126103d157602060405162093a808152f35b50346102de5760203660031901126102de57600154600435906001600160a01b0316330361055757805f52600360205260405f20906003820160ff81541660048110156105435760016104459114610937565b805460ff191660021790555f546001830180549093916001600160a01b031690813b156102de575f91602483926040519485938492630852cd8d60e31b845260048401525af18015610538576104fd575b507f029f35180fa2d891b2f948751f83d24c1a943c07f21b016fc17207f0c520efd29160209160018060a01b03905416809454917f977cfe7cf54f5c14b0063e8171461737a5eec85b8548eae8e2f8d33b949c622d84604051858152a3604051908152a280f35b60209194509161052e5f7f029f35180fa2d891b2f948751f83d24c1a943c07f21b016fc17207f0c520efd294610915565b5f94915091610496565b6040513d5f823e3d90fd5b634e487b7160e01b5f52602160045260245ffd5b60405162461bcd60e51b815260206004820152602360248201527f476174657761793a2063616c6c6572206973206e6f7420746865206f706572616044820152623a37b960e91b6064820152608490fd5b346102de5760203660031901126102de576004355f526003602052608060405f2061060560018060a01b038254169160018101549060ff6003600283015492015416916040519485526020850152604084015260608301906108d8565bf35b346102de575f3660031901126102de575f546040516001600160a01b039091168152602090f35b346102de5760203660031901126102de57600435805f52600360205260405f2090600382019160ff835416600481101561054357600161066e9114610937565b60015481546001600160a01b0390811633908114959290911614846107b1575b80156107aa575b1561075757805460ff191660031790555f8054825460018401805460405163a9059cbb60e01b81526001600160a01b03938416600482015260248101919091529096909493909260209286926044928492165af1918215610538577fba7c879bb6b52aff85e921f1f800397805abef7605e8602d90c8435f40c0dd7c9360409361073a575b50549454825190815290151560208201526001600160a01b0390941693a3005b6107529060203d60201161025a5761024d8183610915565b61071a565b60405162461bcd60e51b815260206004820152602560248201527f476174657761793a206e6f7420617574686f72697a656420746f2063616e63656044820152641b081e595d60da1b6064820152608490fd5b5083610695565b9350600282015462093a8081018091116107ce574210159361068e565b634e487b7160e01b5f52601160045260245ffd5b346102de575f3660031901126102de576020600254604051908152f35b346102de575f3660031901126102de576001546040516001600160a01b039091168152602090f35b346102de5760203660031901126102de576060816108455f936108e5565b82815282602082015282604082015201526004355f52600360205260405f20604051610870816108e5565b60018060a01b0382541681526001820154916020820192835260ff6003600283015492604085019384520154169060608301906004831015610543576080946106059383526040519460018060a01b0390511685525160208501525160408401525160608301905b9060048210156105435752565b6080810190811067ffffffffffffffff82111761090157604052565b634e487b7160e01b5f52604160045260245ffd5b90601f8019910116810190811067ffffffffffffffff82111761090157604052565b1561093e57565b60405162461bcd60e51b815260206004820152601c60248201527f476174657761793a2072657175657374206e6f742070656e64696e67000000006044820152606490fd5b908160209103126102de575180151581036102de579056fea26469706673582212208fcd1a9a48fb1050aa3af55cd23d4e2f54e609dd09a8123785f56c851ff7c5b664736f6c63430008230033",
  "linkReferences": {},
  "deployedLinkReferences": {},
  "immutableReferences": {},
  "inputSourceName": "project/contracts/TrustedGatewayBurner.sol",
  "buildInfoId": "solc-0_8_35-983f4ec9657514b3206d586fa9fb48708c999e7b"
}