{
  "_format": "hh3-artifact-1",
  "contractName": "Web3Governance",
  "sourceName": "contracts/Web3Governance.sol",
  "abi": [
    {
      "inputs": [
        {
          "internalType": "address",
          "name": "_rupiahTokenAddress",
          "type": "address"
        },
        {
          "internalType": "address",
          "name": "rootAdmin",
          "type": "address"
        }
      ],
      "stateMutability": "nonpayable",
      "type": "constructor"
    },
    {
      "inputs": [],
      "name": "AccessControlBadConfirmation",
      "type": "error"
    },
    {
      "inputs": [
        {
          "internalType": "address",
          "name": "account",
          "type": "address"
        },
        {
          "internalType": "bytes32",
          "name": "neededRole",
          "type": "bytes32"
        }
      ],
      "name": "AccessControlUnauthorizedAccount",
      "type": "error"
    },
    {
      "inputs": [],
      "name": "ECDSAInvalidSignature",
      "type": "error"
    },
    {
      "inputs": [
        {
          "internalType": "uint256",
          "name": "length",
          "type": "uint256"
        }
      ],
      "name": "ECDSAInvalidSignatureLength",
      "type": "error"
    },
    {
      "inputs": [
        {
          "internalType": "bytes32",
          "name": "s",
          "type": "bytes32"
        }
      ],
      "name": "ECDSAInvalidSignatureS",
      "type": "error"
    },
    {
      "inputs": [],
      "name": "InvalidShortString",
      "type": "error"
    },
    {
      "inputs": [
        {
          "internalType": "string",
          "name": "str",
          "type": "string"
        }
      ],
      "name": "StringTooLong",
      "type": "error"
    },
    {
      "anonymous": false,
      "inputs": [],
      "name": "EIP712DomainChanged",
      "type": "event"
    },
    {
      "anonymous": false,
      "inputs": [
        {
          "indexed": true,
          "internalType": "uint256",
          "name": "programId",
          "type": "uint256"
        },
        {
          "indexed": true,
          "internalType": "uint256",
          "name": "milestoneIndex",
          "type": "uint256"
        }
      ],
      "name": "MilestoneFinalized",
      "type": "event"
    },
    {
      "anonymous": false,
      "inputs": [
        {
          "indexed": true,
          "internalType": "uint256",
          "name": "programId",
          "type": "uint256"
        },
        {
          "indexed": true,
          "internalType": "uint256",
          "name": "milestoneIndex",
          "type": "uint256"
        },
        {
          "indexed": false,
          "internalType": "uint256",
          "name": "milestoneBudget",
          "type": "uint256"
        }
      ],
      "name": "MilestoneReleased",
      "type": "event"
    },
    {
      "anonymous": false,
      "inputs": [
        {
          "indexed": true,
          "internalType": "uint256",
          "name": "programId",
          "type": "uint256"
        },
        {
          "indexed": true,
          "internalType": "address",
          "name": "picWallet",
          "type": "address"
        },
        {
          "indexed": false,
          "internalType": "uint256",
          "name": "amount",
          "type": "uint256"
        },
        {
          "indexed": false,
          "internalType": "string",
          "name": "recipient",
          "type": "string"
        },
        {
          "indexed": false,
          "internalType": "string",
          "name": "description",
          "type": "string"
        }
      ],
      "name": "OnChainWithdrawalLogged",
      "type": "event"
    },
    {
      "anonymous": false,
      "inputs": [
        {
          "indexed": true,
          "internalType": "bytes32",
          "name": "role",
          "type": "bytes32"
        },
        {
          "indexed": true,
          "internalType": "address",
          "name": "account",
          "type": "address"
        },
        {
          "indexed": false,
          "internalType": "address",
          "name": "admin",
          "type": "address"
        }
      ],
      "name": "PicRoleGrantedByAdmin",
      "type": "event"
    },
    {
      "anonymous": false,
      "inputs": [
        {
          "indexed": true,
          "internalType": "bytes32",
          "name": "role",
          "type": "bytes32"
        },
        {
          "indexed": true,
          "internalType": "address",
          "name": "account",
          "type": "address"
        },
        {
          "indexed": false,
          "internalType": "address",
          "name": "admin",
          "type": "address"
        }
      ],
      "name": "PicRoleRevokedByAdmin",
      "type": "event"
    },
    {
      "anonymous": false,
      "inputs": [
        {
          "indexed": true,
          "internalType": "uint256",
          "name": "programId",
          "type": "uint256"
        }
      ],
      "name": "ProgramCompleted",
      "type": "event"
    },
    {
      "anonymous": false,
      "inputs": [
        {
          "indexed": true,
          "internalType": "uint256",
          "name": "programId",
          "type": "uint256"
        },
        {
          "indexed": true,
          "internalType": "address",
          "name": "auditor",
          "type": "address"
        }
      ],
      "name": "ProgramForceFrozen",
      "type": "event"
    },
    {
      "anonymous": false,
      "inputs": [
        {
          "indexed": true,
          "internalType": "uint256",
          "name": "programId",
          "type": "uint256"
        }
      ],
      "name": "ProgramFraudConfirmed",
      "type": "event"
    },
    {
      "anonymous": false,
      "inputs": [
        {
          "indexed": true,
          "internalType": "uint256",
          "name": "programId",
          "type": "uint256"
        }
      ],
      "name": "ProgramUnfrozenViaBFT",
      "type": "event"
    },
    {
      "anonymous": false,
      "inputs": [
        {
          "indexed": true,
          "internalType": "uint256",
          "name": "programId",
          "type": "uint256"
        }
      ],
      "name": "ProposalApproved",
      "type": "event"
    },
    {
      "anonymous": false,
      "inputs": [
        {
          "indexed": true,
          "internalType": "uint256",
          "name": "programId",
          "type": "uint256"
        },
        {
          "indexed": false,
          "internalType": "bytes32",
          "name": "programHash",
          "type": "bytes32"
        },
        {
          "indexed": true,
          "internalType": "address",
          "name": "picWallet",
          "type": "address"
        }
      ],
      "name": "ProposalSubmitted",
      "type": "event"
    },
    {
      "anonymous": false,
      "inputs": [
        {
          "indexed": true,
          "internalType": "uint256",
          "name": "programId",
          "type": "uint256"
        },
        {
          "indexed": true,
          "internalType": "address",
          "name": "validator",
          "type": "address"
        },
        {
          "indexed": false,
          "internalType": "uint256",
          "name": "currentVotes",
          "type": "uint256"
        }
      ],
      "name": "ProposalVoted",
      "type": "event"
    },
    {
      "anonymous": false,
      "inputs": [
        {
          "indexed": true,
          "internalType": "bytes32",
          "name": "role",
          "type": "bytes32"
        },
        {
          "indexed": true,
          "internalType": "bytes32",
          "name": "previousAdminRole",
          "type": "bytes32"
        },
        {
          "indexed": true,
          "internalType": "bytes32",
          "name": "newAdminRole",
          "type": "bytes32"
        }
      ],
      "name": "RoleAdminChanged",
      "type": "event"
    },
    {
      "anonymous": false,
      "inputs": [
        {
          "indexed": true,
          "internalType": "bytes32",
          "name": "role",
          "type": "bytes32"
        },
        {
          "indexed": true,
          "internalType": "address",
          "name": "account",
          "type": "address"
        },
        {
          "indexed": true,
          "internalType": "address",
          "name": "sender",
          "type": "address"
        }
      ],
      "name": "RoleGranted",
      "type": "event"
    },
    {
      "anonymous": false,
      "inputs": [
        {
          "indexed": true,
          "internalType": "bytes32",
          "name": "role",
          "type": "bytes32"
        },
        {
          "indexed": true,
          "internalType": "address",
          "name": "account",
          "type": "address"
        },
        {
          "indexed": false,
          "internalType": "uint256",
          "name": "voteId",
          "type": "uint256"
        }
      ],
      "name": "RoleGrantedViaGovernance",
      "type": "event"
    },
    {
      "anonymous": false,
      "inputs": [
        {
          "indexed": true,
          "internalType": "bytes32",
          "name": "role",
          "type": "bytes32"
        },
        {
          "indexed": true,
          "internalType": "address",
          "name": "account",
          "type": "address"
        },
        {
          "indexed": true,
          "internalType": "address",
          "name": "sender",
          "type": "address"
        }
      ],
      "name": "RoleRevoked",
      "type": "event"
    },
    {
      "anonymous": false,
      "inputs": [
        {
          "indexed": true,
          "internalType": "bytes32",
          "name": "role",
          "type": "bytes32"
        },
        {
          "indexed": true,
          "internalType": "address",
          "name": "account",
          "type": "address"
        },
        {
          "indexed": false,
          "internalType": "uint256",
          "name": "voteId",
          "type": "uint256"
        }
      ],
      "name": "RoleRevokedViaGovernance",
      "type": "event"
    },
    {
      "anonymous": false,
      "inputs": [
        {
          "indexed": true,
          "internalType": "uint256",
          "name": "voteId",
          "type": "uint256"
        },
        {
          "indexed": true,
          "internalType": "address",
          "name": "admin",
          "type": "address"
        },
        {
          "indexed": false,
          "internalType": "uint256",
          "name": "currentVotes",
          "type": "uint256"
        }
      ],
      "name": "RoleVoteCast",
      "type": "event"
    },
    {
      "anonymous": false,
      "inputs": [
        {
          "indexed": true,
          "internalType": "uint256",
          "name": "voteId",
          "type": "uint256"
        },
        {
          "indexed": true,
          "internalType": "address",
          "name": "candidate",
          "type": "address"
        },
        {
          "indexed": false,
          "internalType": "bytes32",
          "name": "roleToTarget",
          "type": "bytes32"
        },
        {
          "indexed": false,
          "internalType": "bool",
          "name": "isDevote",
          "type": "bool"
        },
        {
          "indexed": false,
          "internalType": "address",
          "name": "grantedBy",
          "type": "address"
        }
      ],
      "name": "RoleVoteCreated",
      "type": "event"
    },
    {
      "anonymous": false,
      "inputs": [
        {
          "indexed": true,
          "internalType": "uint256",
          "name": "programId",
          "type": "uint256"
        },
        {
          "indexed": true,
          "internalType": "address",
          "name": "picWallet",
          "type": "address"
        }
      ],
      "name": "UnfreezeAppealSubmitted",
      "type": "event"
    },
    {
      "anonymous": false,
      "inputs": [
        {
          "indexed": true,
          "internalType": "uint256",
          "name": "programId",
          "type": "uint256"
        },
        {
          "indexed": true,
          "internalType": "address",
          "name": "validator",
          "type": "address"
        },
        {
          "indexed": false,
          "internalType": "bool",
          "name": "approve",
          "type": "bool"
        },
        {
          "indexed": false,
          "internalType": "uint256",
          "name": "approveVotes",
          "type": "uint256"
        },
        {
          "indexed": false,
          "internalType": "uint256",
          "name": "rejectVotes",
          "type": "uint256"
        }
      ],
      "name": "UnfreezeAppealVoted",
      "type": "event"
    },
    {
      "inputs": [],
      "name": "ADMIN_ROLE",
      "outputs": [
        {
          "internalType": "bytes32",
          "name": "",
          "type": "bytes32"
        }
      ],
      "stateMutability": "view",
      "type": "function"
    },
    {
      "inputs": [],
      "name": "AUDITOR_ROLE",
      "outputs": [
        {
          "internalType": "bytes32",
          "name": "",
          "type": "bytes32"
        }
      ],
      "stateMutability": "view",
      "type": "function"
    },
    {
      "inputs": [],
      "name": "DEFAULT_ADMIN_ROLE",
      "outputs": [
        {
          "internalType": "bytes32",
          "name": "",
          "type": "bytes32"
        }
      ],
      "stateMutability": "view",
      "type": "function"
    },
    {
      "inputs": [],
      "name": "PIC_ROLE",
      "outputs": [
        {
          "internalType": "bytes32",
          "name": "",
          "type": "bytes32"
        }
      ],
      "stateMutability": "view",
      "type": "function"
    },
    {
      "inputs": [],
      "name": "VALIDATOR_ROLE",
      "outputs": [
        {
          "internalType": "bytes32",
          "name": "",
          "type": "bytes32"
        }
      ],
      "stateMutability": "view",
      "type": "function"
    },
    {
      "inputs": [],
      "name": "VOTING_PERIOD",
      "outputs": [
        {
          "internalType": "uint256",
          "name": "",
          "type": "uint256"
        }
      ],
      "stateMutability": "view",
      "type": "function"
    },
    {
      "inputs": [],
      "name": "eip712Domain",
      "outputs": [
        {
          "internalType": "bytes1",
          "name": "fields",
          "type": "bytes1"
        },
        {
          "internalType": "string",
          "name": "name",
          "type": "string"
        },
        {
          "internalType": "string",
          "name": "version",
          "type": "string"
        },
        {
          "internalType": "uint256",
          "name": "chainId",
          "type": "uint256"
        },
        {
          "internalType": "address",
          "name": "verifyingContract",
          "type": "address"
        },
        {
          "internalType": "bytes32",
          "name": "salt",
          "type": "bytes32"
        },
        {
          "internalType": "uint256[]",
          "name": "extensions",
          "type": "uint256[]"
        }
      ],
      "stateMutability": "view",
      "type": "function"
    },
    {
      "inputs": [
        {
          "internalType": "uint256",
          "name": "programId",
          "type": "uint256"
        },
        {
          "internalType": "uint256",
          "name": "milestoneIndex",
          "type": "uint256"
        },
        {
          "internalType": "uint256",
          "name": "milestoneBudget",
          "type": "uint256"
        },
        {
          "internalType": "bytes32",
          "name": "evidenceHash",
          "type": "bytes32"
        },
        {
          "internalType": "bytes",
          "name": "sigAdmin",
          "type": "bytes"
        },
        {
          "internalType": "bytes",
          "name": "sigValidator",
          "type": "bytes"
        },
        {
          "internalType": "bytes",
          "name": "sigAuditor",
          "type": "bytes"
        }
      ],
      "name": "executeMilestoneRelease",
      "outputs": [],
      "stateMutability": "nonpayable",
      "type": "function"
    },
    {
      "inputs": [
        {
          "internalType": "uint256",
          "name": "programId",
          "type": "uint256"
        },
        {
          "internalType": "uint256",
          "name": "withdrawAmount",
          "type": "uint256"
        },
        {
          "internalType": "string",
          "name": "recipientName",
          "type": "string"
        },
        {
          "internalType": "string",
          "name": "description",
          "type": "string"
        }
      ],
      "name": "executePicWithdrawal",
      "outputs": [],
      "stateMutability": "nonpayable",
      "type": "function"
    },
    {
      "inputs": [
        {
          "internalType": "uint256",
          "name": "programId",
          "type": "uint256"
        }
      ],
      "name": "finalizeMilestone",
      "outputs": [],
      "stateMutability": "nonpayable",
      "type": "function"
    },
    {
      "inputs": [
        {
          "internalType": "uint256",
          "name": "programId",
          "type": "uint256"
        }
      ],
      "name": "forceFreezeProgram",
      "outputs": [],
      "stateMutability": "nonpayable",
      "type": "function"
    },
    {
      "inputs": [
        {
          "internalType": "bytes32",
          "name": "role",
          "type": "bytes32"
        }
      ],
      "name": "getRoleAdmin",
      "outputs": [
        {
          "internalType": "bytes32",
          "name": "",
          "type": "bytes32"
        }
      ],
      "stateMutability": "view",
      "type": "function"
    },
    {
      "inputs": [
        {
          "internalType": "uint256",
          "name": "programId",
          "type": "uint256"
        }
      ],
      "name": "getWithdrawalHistory",
      "outputs": [
        {
          "components": [
            {
              "internalType": "uint256",
              "name": "timestamp",
              "type": "uint256"
            },
            {
              "internalType": "uint256",
              "name": "amount",
              "type": "uint256"
            },
            {
              "internalType": "string",
              "name": "recipientName",
              "type": "string"
            },
            {
              "internalType": "string",
              "name": "description",
              "type": "string"
            }
          ],
          "internalType": "struct Web3Governance.WithdrawalRecord[]",
          "name": "",
          "type": "tuple[]"
        }
      ],
      "stateMutability": "view",
      "type": "function"
    },
    {
      "inputs": [
        {
          "internalType": "address",
          "name": "user",
          "type": "address"
        }
      ],
      "name": "grantPicRole",
      "outputs": [],
      "stateMutability": "nonpayable",
      "type": "function"
    },
    {
      "inputs": [
        {
          "internalType": "bytes32",
          "name": "role",
          "type": "bytes32"
        },
        {
          "internalType": "address",
          "name": "account",
          "type": "address"
        }
      ],
      "name": "grantRole",
      "outputs": [],
      "stateMutability": "nonpayable",
      "type": "function"
    },
    {
      "inputs": [
        {
          "internalType": "address",
          "name": "",
          "type": "address"
        }
      ],
      "name": "hasPendingRoleVote",
      "outputs": [
        {
          "internalType": "bool",
          "name": "",
          "type": "bool"
        }
      ],
      "stateMutability": "view",
      "type": "function"
    },
    {
      "inputs": [
        {
          "internalType": "bytes32",
          "name": "role",
          "type": "bytes32"
        },
        {
          "internalType": "address",
          "name": "account",
          "type": "address"
        }
      ],
      "name": "hasRole",
      "outputs": [
        {
          "internalType": "bool",
          "name": "",
          "type": "bool"
        }
      ],
      "stateMutability": "view",
      "type": "function"
    },
    {
      "inputs": [
        {
          "internalType": "uint256",
          "name": "",
          "type": "uint256"
        },
        {
          "internalType": "address",
          "name": "",
          "type": "address"
        }
      ],
      "name": "hasVotedProposal",
      "outputs": [
        {
          "internalType": "bool",
          "name": "",
          "type": "bool"
        }
      ],
      "stateMutability": "view",
      "type": "function"
    },
    {
      "inputs": [
        {
          "internalType": "uint256",
          "name": "",
          "type": "uint256"
        },
        {
          "internalType": "address",
          "name": "",
          "type": "address"
        }
      ],
      "name": "hasVotedRole",
      "outputs": [
        {
          "internalType": "bool",
          "name": "",
          "type": "bool"
        }
      ],
      "stateMutability": "view",
      "type": "function"
    },
    {
      "inputs": [
        {
          "internalType": "uint256",
          "name": "",
          "type": "uint256"
        },
        {
          "internalType": "address",
          "name": "",
          "type": "address"
        }
      ],
      "name": "hasVotedUnfreeze",
      "outputs": [
        {
          "internalType": "bool",
          "name": "",
          "type": "bool"
        }
      ],
      "stateMutability": "view",
      "type": "function"
    },
    {
      "inputs": [
        {
          "internalType": "uint256",
          "name": "",
          "type": "uint256"
        },
        {
          "internalType": "address",
          "name": "",
          "type": "address"
        }
      ],
      "name": "historyOfSigners",
      "outputs": [
        {
          "internalType": "bool",
          "name": "",
          "type": "bool"
        }
      ],
      "stateMutability": "view",
      "type": "function"
    },
    {
      "inputs": [
        {
          "internalType": "address",
          "name": "",
          "type": "address"
        }
      ],
      "name": "latestRoleVoteIdOf",
      "outputs": [
        {
          "internalType": "uint256",
          "name": "",
          "type": "uint256"
        }
      ],
      "stateMutability": "view",
      "type": "function"
    },
    {
      "inputs": [
        {
          "internalType": "uint256",
          "name": "",
          "type": "uint256"
        }
      ],
      "name": "proposalVotes",
      "outputs": [
        {
          "internalType": "uint256",
          "name": "",
          "type": "uint256"
        }
      ],
      "stateMutability": "view",
      "type": "function"
    },
    {
      "inputs": [
        {
          "internalType": "uint256",
          "name": "",
          "type": "uint256"
        }
      ],
      "name": "proposals",
      "outputs": [
        {
          "internalType": "bytes32",
          "name": "programHash",
          "type": "bytes32"
        },
        {
          "internalType": "address",
          "name": "picWallet",
          "type": "address"
        },
        {
          "internalType": "uint256",
          "name": "totalBudget",
          "type": "uint256"
        },
        {
          "internalType": "uint256",
          "name": "currentAllocatedBalance",
          "type": "uint256"
        },
        {
          "internalType": "uint256",
          "name": "totalAllocatedSoFar",
          "type": "uint256"
        },
        {
          "internalType": "uint256",
          "name": "submittedAt",
          "type": "uint256"
        },
        {
          "internalType": "uint256",
          "name": "milestoneCount",
          "type": "uint256"
        },
        {
          "internalType": "uint256",
          "name": "currentMilestone",
          "type": "uint256"
        },
        {
          "internalType": "enum Web3Governance.ProposalStatus",
          "name": "status",
          "type": "uint8"
        }
      ],
      "stateMutability": "view",
      "type": "function"
    },
    {
      "inputs": [
        {
          "internalType": "address",
          "name": "targetUser",
          "type": "address"
        },
        {
          "internalType": "bytes32",
          "name": "roleToRevoke",
          "type": "bytes32"
        }
      ],
      "name": "proposeRoleDevote",
      "outputs": [],
      "stateMutability": "nonpayable",
      "type": "function"
    },
    {
      "inputs": [
        {
          "internalType": "address",
          "name": "candidate",
          "type": "address"
        },
        {
          "internalType": "bytes32",
          "name": "roleToGrant",
          "type": "bytes32"
        }
      ],
      "name": "proposeRoleGrant",
      "outputs": [],
      "stateMutability": "nonpayable",
      "type": "function"
    },
    {
      "inputs": [
        {
          "internalType": "uint256",
          "name": "programId",
          "type": "uint256"
        }
      ],
      "name": "proposeUnfreezeAppeal",
      "outputs": [],
      "stateMutability": "nonpayable",
      "type": "function"
    },
    {
      "inputs": [
        {
          "internalType": "bytes32",
          "name": "role",
          "type": "bytes32"
        },
        {
          "internalType": "address",
          "name": "callerConfirmation",
          "type": "address"
        }
      ],
      "name": "renounceRole",
      "outputs": [],
      "stateMutability": "nonpayable",
      "type": "function"
    },
    {
      "inputs": [
        {
          "internalType": "address",
          "name": "user",
          "type": "address"
        }
      ],
      "name": "revokePicRole",
      "outputs": [],
      "stateMutability": "nonpayable",
      "type": "function"
    },
    {
      "inputs": [
        {
          "internalType": "bytes32",
          "name": "role",
          "type": "bytes32"
        },
        {
          "internalType": "address",
          "name": "account",
          "type": "address"
        }
      ],
      "name": "revokeRole",
      "outputs": [],
      "stateMutability": "nonpayable",
      "type": "function"
    },
    {
      "inputs": [],
      "name": "roleVoteNonce",
      "outputs": [
        {
          "internalType": "uint256",
          "name": "",
          "type": "uint256"
        }
      ],
      "stateMutability": "view",
      "type": "function"
    },
    {
      "inputs": [
        {
          "internalType": "uint256",
          "name": "",
          "type": "uint256"
        }
      ],
      "name": "roleVotes",
      "outputs": [
        {
          "internalType": "address",
          "name": "candidate",
          "type": "address"
        },
        {
          "internalType": "bytes32",
          "name": "roleToTarget",
          "type": "bytes32"
        },
        {
          "internalType": "uint256",
          "name": "voteCount",
          "type": "uint256"
        },
        {
          "internalType": "bool",
          "name": "isDevote",
          "type": "bool"
        },
        {
          "internalType": "bool",
          "name": "executed",
          "type": "bool"
        },
        {
          "internalType": "uint256",
          "name": "rVoteSubmittedAt",
          "type": "uint256"
        }
      ],
      "stateMutability": "view",
      "type": "function"
    },
    {
      "inputs": [],
      "name": "rupiahToken",
      "outputs": [
        {
          "internalType": "contract IRupiahToken",
          "name": "",
          "type": "address"
        }
      ],
      "stateMutability": "view",
      "type": "function"
    },
    {
      "inputs": [
        {
          "internalType": "uint256",
          "name": "programId",
          "type": "uint256"
        },
        {
          "internalType": "bytes32",
          "name": "programHash",
          "type": "bytes32"
        },
        {
          "internalType": "uint256",
          "name": "totalBudget",
          "type": "uint256"
        },
        {
          "internalType": "uint256",
          "name": "milestoneCount",
          "type": "uint256"
        }
      ],
      "name": "submitProposal",
      "outputs": [],
      "stateMutability": "nonpayable",
      "type": "function"
    },
    {
      "inputs": [
        {
          "internalType": "bytes4",
          "name": "interfaceId",
          "type": "bytes4"
        }
      ],
      "name": "supportsInterface",
      "outputs": [
        {
          "internalType": "bool",
          "name": "",
          "type": "bool"
        }
      ],
      "stateMutability": "view",
      "type": "function"
    },
    {
      "inputs": [],
      "name": "totalAdminsCount",
      "outputs": [
        {
          "internalType": "uint256",
          "name": "",
          "type": "uint256"
        }
      ],
      "stateMutability": "view",
      "type": "function"
    },
    {
      "inputs": [],
      "name": "totalValidatorsCount",
      "outputs": [
        {
          "internalType": "uint256",
          "name": "",
          "type": "uint256"
        }
      ],
      "stateMutability": "view",
      "type": "function"
    },
    {
      "inputs": [
        {
          "internalType": "uint256",
          "name": "",
          "type": "uint256"
        }
      ],
      "name": "unfreezeAppeals",
      "outputs": [
        {
          "internalType": "uint256",
          "name": "approveVotes",
          "type": "uint256"
        },
        {
          "internalType": "uint256",
          "name": "rejectVotes",
          "type": "uint256"
        },
        {
          "internalType": "uint256",
          "name": "appealStartedAt",
          "type": "uint256"
        },
        {
          "internalType": "bool",
          "name": "resolved",
          "type": "bool"
        }
      ],
      "stateMutability": "view",
      "type": "function"
    },
    {
      "inputs": [
        {
          "internalType": "uint256",
          "name": "programId",
          "type": "uint256"
        }
      ],
      "name": "voteProposal",
      "outputs": [],
      "stateMutability": "nonpayable",
      "type": "function"
    },
    {
      "inputs": [
        {
          "internalType": "uint256",
          "name": "voteId",
          "type": "uint256"
        }
      ],
      "name": "voteRoleProposal",
      "outputs": [],
      "stateMutability": "nonpayable",
      "type": "function"
    },
    {
      "inputs": [
        {
          "internalType": "uint256",
          "name": "programId",
          "type": "uint256"
        },
        {
          "internalType": "bool",
          "name": "approve",
          "type": "bool"
        }
      ],
      "name": "voteUnfreezeAppeal",
      "outputs": [],
      "stateMutability": "nonpayable",
      "type": "function"
    }
  ],
  "bytecode": "0x61016080604052346101a0576040816142f4803803809161002082856101a4565b8339810103126101a057610129610042602061003b846101db565b93016101db565b6040516100506040826101a4565b6018815260208101907f476f7665726e616e6365416e7469436f7272757074696f6e000000000000000082526040519161008b6040846101a4565b600183526020830191603160f81b83526100a48161029a565b610120526100b18461043c565b61014052519020918260e05251902080610100524660a0526040519060208201927f8b73c3c69bb8fe3d512ecc4cf759cc79239f7b179b0ffacaa9a75d522b39400f8452604083015260608201524660808201523060a082015260a0815261011a60c0826101a4565b5190206080523060c0526101ef565b506001601055600380546001600160a01b0319166001600160a01b0392909216919091179055604051613d539081610581823960805181613a5e015260a05181613b1b015260c05181613a28015260e05181613aad01526101005181613ad301526101205181611047015261014051816110710152f35b5f80fd5b601f909101601f19168101906001600160401b038211908210176101c757604052565b634e487b7160e01b5f52604160045260245ffd5b51906001600160a01b03821682036101a057565b6001600160a01b0381165f9081525f5160206142d45f395f51905f52602052604090205460ff16610295576001600160a01b03165f8181525f5160206142d45f395f51905f5260205260408120805460ff191660011790553391907fa49807205ce4d355092ef5a8a18f56e8913cf4a201fbe287825b095693c21775907f2f8788117e7eff1d82e926ec794901d17c78024a50270940304540a733656f0d9080a4600190565b505f90565b908151602081105f14610314575090601f8151116102d45760208151910151602082106102c5571790565b5f198260200360031b1b161790565b604460209160405192839163305a27a960e01b83528160048401528051918291826024860152018484015e5f828201840152601f01601f19168101030190fd5b6001600160401b0381116101c7575f54600181811c91168015610432575b602082101461041e57601f81116103e0575b50602092601f821160011461038157928192935f92610376575b50508160011b915f199060031b1c1916175f5560ff90565b015190505f8061035e565b601f198216935f8052805f20915f5b8681106103c857508360019596106103b0575b505050811b015f5560ff90565b01515f1960f88460031b161c191690555f80806103a3565b91926020600181928685015181550194019201610390565b81811115610344575f805260205f20601f80840160051c809201920160051c03905f5b828110610411575050610344565b5f82820155600101610403565b634e487b7160e01b5f52602260045260245ffd5b90607f1690610332565b908151602081105f14610467575090601f8151116102d45760208151910151602082106102c5571790565b6001600160401b0381116101c757600154600181811c91168015610576575b602082101461041e57601f8111610537575b50602092601f82116001146104d657928192935f926104cb575b50508160011b915f199060031b1c19161760015560ff90565b015190505f806104b2565b601f1982169360015f52805f20915f5b86811061051f5750836001959610610507575b505050811b0160015560ff90565b01515f1960f88460031b161c191690555f80806104f9565b919260206001819286850151815501940192016104e6565b818111156104985760015f5260205f20601f80840160051c809201920160051c03905f5b828110610569575050610498565b5f8282015560010161055b565b90607f169061048656fe6080806040526004361015610012575f80fd5b5f905f3560e01c908163013cf08b146130735750806301ffc9a71461301d578063168ff6cb14612d08578063248a9ca314612cd55780632da26bc614612cb85780632f2ff15d14612c7a578063308cf0a214612c31578063346f601b14612b4557806336568abe14612aff57806337b0509c146124aa5780633b6a986a146121f45780634b959a4f146120535780634e20ada514611e21578063544ffc9c14611df757806361da5a381461192f57806362f0d1c0146118f05780636656f3ff146118a657806369eb67671461170e5780636d535e7c146116c45780636e1d616e1461169c57806375b238fc14611674578063807896d51461147257806383206b4e1461142857806384ac71401461112957806384b0196e1461102d57806391d1485414610fe3578063a217fddf14610fc7578063a572219814610f9e578063b0c4d1e714610f4c578063b1610d7e14610f2e578063b4f0dc4414610dd4578063b5ca962114610c2b578063c00fc91814610484578063c04a598314610361578063c11f176e146102f0578063c49baebe146102c8578063cb78ae88146102a0578063d547741f14610258578063e806c0461461023a578063ea14aad41461021c5763eaf1ceba146101e1575f80fd5b34610219576020366003190112610219576020906040906001600160a01b0361020861311d565b168152600683522054604051908152f35b80fd5b50346102195780600319360112610219576020601154604051908152f35b50346102195780600319360112610219576020601054604051908152f35b50346102195760403660031901126102195761029c600435610278613107565b90610297610292825f526002602052600160405f20015490565b61359a565b613789565b5080f35b503461021957806003193601126102195760206040515f516020613cde5f395f51905f528152f35b503461021957806003193601126102195760206040515f516020613c5e5f395f51905f528152f35b503461021957602036600319011261021957604060c0916004358152600e6020522060018060a01b038154169060ff60018201549160028101546004600383015492015493604051958652602086015260408501528181161515606085015260081c161515608083015260a0820152f35b5034610219576020366003190112610219575f516020613c7e5f395f51905f528152600260209081526040808320335f90815292529020546004359060ff16156104605780825260046020526008604083200160ff815416600781101561044c576002036103fd57805460ff1916600417905533907f4463d871b39f2e1fac04ca37187365f694a4391331a0af555f044d8f2706c25d8380a380f35b60405162461bcd60e51b815260206004820152602160248201527f476f7665726e3a2050726f6772616d206973206e6f7420696e206163746976656044820152600160fd1b6064820152608490fd5b634e487b7160e01b84526021600452602484fd5b63e2517d3f60e01b8252336004525f516020613c7e5f395f51905f52602452604482fd5b50346102195760e0366003190112610219576024356004356044356084356001600160401b038111610c27576104be903690600401613133565b60a4356001600160401b038111610c23576104dd903690600401613133565b909260c4356001600160401b038111610c1f576104fe903690600401613133565b929093878a52600460205260408a209260018060a01b036001850154163303610bd2575f516020613cde5f395f51905f528b52600260209081526040808d20335f90815292529020546105539060ff166132d1565b600884019260ff8454166007811015610bbe5760018114908115610bb3575b5015610b6e5760048501926105888a85546131d0565b600287015410610b035760078601988c8a54809103610ab25760068801541115610a6e57610660986106609861066d8f8f948f976106576106516106859b60426106769a6106679761067c9e6040519160208301937f59111defc335dafa1b9a96a3a112e032c093301b0dc9796d0311570608aa3e7f855260408401526060830152608082015260643560a082015260a0815261062660c082613213565b519020610631613a25565b906040519161190160f01b835260028301526022820152209a3691613234565b89613b41565b909f919f613b7b565b3691613234565b85613b41565b909c919c613b7b565b90613b41565b90929192613b7b565b5f516020613cbe5f395f51905f528b52600260205260408b2060018060a01b0386165f5260205260ff60405f20541615610a29575f516020613c5e5f395f51905f528b52600260205260408b2060018060a01b0387165f5260205260ff60405f205416156109d8575f516020613c7e5f395f51905f528b52600260205260408b2060018060a01b0382165f5260205260ff60405f205416156109895787948a610815575b95600395968a8d52600d60205260408d209060018060a01b03165f5260205260405f20600160ff19825416179055898c52600d60205260408c209060018060a01b03165f5260205260405f20600160ff19825416179055888b52600d60205260408b209060018060a01b03165f5260205260405f20600160ff198254161790556107b48582546131d0565b9055600260ff1982541617905501558054906001820180921161080157556040519081527fd33fcd27cbfb73a2d9058c968b560ccb306500bf536133802048489ecc7355e990602090a380f35b634e487b7160e01b86526011600452602486fd5b9450888b52600d60205260408b2060018060a01b0386165f5260205260ff60405f20541661093857888b52600d60205260408b2060018060a01b0387165f5260205260ff60405f2054166108e357888b52600d60205260408b2060018060a01b0382165f5260205260ff60405f205416610890578794610729565b60405162461bcd60e51b815260206004820152602560248201527f476f7665726e3a2041756469746f7220616c7265616479207369676e6564206260448201526465666f726560d81b6064820152608490fd5b60405162461bcd60e51b815260206004820152602760248201527f476f7665726e3a2056616c696461746f7220616c7265616479207369676e6564604482015266206265666f726560c81b6064820152608490fd5b60405162461bcd60e51b815260206004820152602360248201527f476f7665726e3a2041646d696e20616c7265616479207369676e6564206265666044820152626f726560e81b6064820152608490fd5b60405162461bcd60e51b815260206004820152602160248201527f476f7665726e3a20496e76616c69642041756469746f72207369676e617475726044820152606560f81b6064820152608490fd5b60405162461bcd60e51b815260206004820152602360248201527f476f7665726e3a20496e76616c69642056616c696461746f72207369676e617460448201526275726560e81b6064820152608490fd5b60405162461bcd60e51b815260206004820152601f60248201527f476f7665726e3a20496e76616c69642041646d696e207369676e6174757265006044820152606490fd5b606460405162461bcd60e51b815260206004820152602060248201527f476f7665726e3a20416c6c206d696c6573746f6e657320636f6d706c657465646044820152fd5b60405162461bcd60e51b815260206004820152602360248201527f476f7665726e3a204d696c6573746f6e652073657175656e6365206d69736d616044820152620e8c6d60eb1b6064820152608490fd5b60405162461bcd60e51b815260206004820152603860248201527f476f7665726e3a2043756d756c6174697665206d696c6573746f6e652062756460448201527f676574206578636565647320746f74616c2062756467657400000000000000006064820152608490fd5b60405162461bcd60e51b815260206004820152601b60248201527f476f7665726e3a204d696c6573746f6e65206973206c6f636b656400000000006044820152606490fd5b60039150145f610572565b634e487b7160e01b8d52602160045260248dfd5b60405162461bcd60e51b815260206004820152603260248201525f516020613cfe5f395f51905f526044820152712072656c65617365206d696c6573746f6e6560701b6064820152608490fd5b8880fd5b8680fd5b8480fd5b503461021957602036600319011261021957610c4561311d565b610c4d61353e565b5f516020613cbe5f395f51905f52825260026020526040822060018060a01b0382165f5260205260ff60405f2054161580610d9e575b80610d68575b80610d32575b15610ce357610c9d816135d4565b505f516020613cde5f395f51905f527f624f03b50163c63ec57754d9e6bf944ac1883a9478b7af11d05cde6028867efd60206040519333855260018060a01b031693a380f35b60405162461bcd60e51b815260206004820152602160248201527f476f7665726e3a205573657220616c726561647920686f6c6473206120726f6c6044820152606560f81b6064820152608490fd5b505f516020613cde5f395f51905f52825260026020526040822060018060a01b0382165f5260205260ff60405f20541615610c8f565b505f516020613c7e5f395f51905f52825260026020526040822060018060a01b0382165f5260205260ff60405f20541615610c89565b505f516020613c5e5f395f51905f52825260026020526040822060018060a01b0382165f5260205260ff60405f20541615610c83565b503461021957602036600319011261021957600435815260076020526040812080546001600160401b038111610f1a5760208160051b0190610e196040519283613213565b80825260208201809385526020852085915b838310610ecb57868587604051928392602084019060208552518091526040840160408260051b8601019392905b828210610e6857505050500390f35b91936001919395506020610ebb8192603f198a82030186528851908151815283820151848201526060610eaa6040840151608060408501526080840190613160565b920151906060818403910152613160565b9601920192018594939192610e59565b60046020600192604051610ede816131dd565b855481528486015483820152610ef660028701613442565b6040820152610f0760038701613442565b6060820152815201920192019190610e2b565b634e487b7160e01b83526041600452602483fd5b5034610219578060031936011261021957602060405162093a808152f35b50346102195760203660031901126102195760406080916004358152600b6020522080549060018101549060ff6003600283015492015416916040519384526020840152604083015215156060820152f35b50346102195780600319360112610219576003546040516001600160a01b039091168152602090f35b5034610219578060031936011261021957602090604051908152f35b5034610219576040366003190112610219576040610fff613107565b9160043581526002602052209060018060a01b03165f52602052602060ff60405f2054166040519015158152f35b50346102195780600319360112610219576110cd9061106b7f0000000000000000000000000000000000000000000000000000000000000000613872565b906110957f000000000000000000000000000000000000000000000000000000000000000061396d565b9060206110db604051936110a98386613213565b8385525f368137604051968796600f60f81b885260e08589015260e0880190613160565b908682036040880152613160565b904660608601523060808601528260a086015284820360c08601528080855193848152019401925b82811061111257505050500390f35b835185528695509381019392810192600101611103565b50346102195760403660031901126102195761114361311d565b60243561114e61353e565b5f516020613cbe5f395f51905f52835260026020526040832060018060a01b0383165f5260205260ff60405f20541615806113f2575b806113bc575b80611386575b15611332575f516020613cde5f395f51905f5281146112d8576111bb6111b58361380d565b1561332d565b7f81d862670d1b3801c9b450653af87c64b870a575c055af67a7f5d77766d82a926060601154926111eb84613392565b601155604051946111fb866131f8565b6001600160a01b0390811680875260208088018481526040808a018b8152878b018c815260808c018d81524260a08e019081528c8f52600e909652928d209b518c5497166001600160a01b0319909716969096178b55915160018b0155905160028a0155925160038901805460ff191691151560ff16919091178155919792600492611299915b51815461ff00191690151560081b61ff0016179055565b51910155848652600560205260408620600160ff198254161790558486526006602052836040872055604051908152856020820152336040820152a380f35b60405162461bcd60e51b815260206004820152602c60248201527f476f7665726e3a20557365206772616e74506963526f6c6520666f722050494360448201526b2c206e6f7420766f74696e6760a01b6064820152608490fd5b60405162461bcd60e51b815260206004820152602660248201527f476f7665726e3a2043616e64696461746520616c726561647920686f6c6473206044820152656120726f6c6560d01b6064820152608490fd5b505f516020613cde5f395f51905f52835260026020526040832060018060a01b0383165f5260205260ff60405f20541615611190565b505f516020613c7e5f395f51905f52835260026020526040832060018060a01b0383165f5260205260ff60405f2054161561118a565b505f516020613c5e5f395f51905f52835260026020526040832060018060a01b0383165f5260205260ff60405f20541615611184565b5034610219576040366003190112610219576040611444613107565b916004358152600d602052209060018060a01b03165f52602052602060ff60405f2054166040519015158152f35b50346102195760203660031901126102195760043561148f6134e2565b808252600460205260408220600881019060ff82541660078110156116605761160c576005015462093a8081018091116115e4576114cf904211156133a0565b818352600860209081526040808520335f90815292529020546114f59060ff16156133f6565b81835260086020526040832060018060a01b0333165f5260205260405f20600160ff19825416179055818352600960205260408320805490600182018092116115f8575581835260096020526040832054604051908152827f12602b81b4b3a6bc77534c571e8af3d316246bc5e5bea24efdf512ff6715da1560203393a3600a546001600160ff1b03811681036115e45760039060011b04600181018091116115e4578284526009602052604084205410156115af578280f35b805460ff191660011790557f28ec9e38ba73636ceb2f6c1574136f83bd46284a3c74734b711bf45e12f8d9298280a25f808280f35b634e487b7160e01b84526011600452602484fd5b634e487b7160e01b85526011600452602485fd5b60405162461bcd60e51b815260206004820152602660248201527f476f7665726e3a2050726f6772616d206973206e6f7420696e20766f74696e6760448201526520706861736560d01b6064820152608490fd5b634e487b7160e01b85526021600452602485fd5b503461021957806003193601126102195760206040515f516020613cbe5f395f51905f528152f35b503461021957806003193601126102195760206040515f516020613c7e5f395f51905f528152f35b50346102195760403660031901126102195760406116e0613107565b9160043581526008602052209060018060a01b03165f52602052602060ff60405f2054166040519015158152f35b503461021957602036600319011261021957600435808252600460205260408220818352600b602052604083209060ff60088201541660078110156116605760046117599114613184565b600101546001600160a01b0316330361186457600281015415908115611855575b5015611805576117dc60405161178f816131dd565b838152600360208201858152604083014281526060840191878352868852600b602052604088209451855551600185015551600284015551151591019060ff801983541691151516179055565b33907f577a4c09557d73f14ae554ff94441086548f00d4d0817153fa04f2097cfce35f8380a380f35b60405162461bcd60e51b815260206004820152602260248201527f476f7665726e3a2041707065616c20616c726561647920696e2070726f677265604482015261737360f01b6064820152608490fd5b60ff915060030154165f61177a565b60405162461bcd60e51b815260206004820152602760248201525f516020613cfe5f395f51905f5260448201526608185c1c19585b60ca1b6064820152608490fd5b50346102195760403660031901126102195760406118c2613107565b916004358152600f602052209060018060a01b03165f52602052602060ff60405f2054166040519015158152f35b50346102195760203660031901126102195760209060ff906040906001600160a01b0361191b61311d565b168152600584522054166040519015158152f35b50346102195760203660031901126102195760043561194c61353e565b808252600e602052604082206003810160ff815460081c16611db257600482015462093a8081018091116115f857611986904211156133a0565b828452600f60209081526040808620335f90815292529020546119ac9060ff16156133f6565b828452600f6020526040842060018060a01b0333165f5260205260405f20600160ff19825416179055600282018054906001820180921161080157819055604051818152847f5cf19a2bf4123c9f2a6bf317c9b28512afcc7efbfb010926b1f5d2759c8e46c860203393a36010546001600160ff1b03811681036108015760039060011b049060018201809211610801571015611a47578380f35b805461ff00191661010017815581546001600160a01b03168452600560205260408420805460ff191690555460ff1615611ba657600181018054611ab660018060a01b0384541682875260026020526040872060018060a01b0382165f5260205260ff60405f20541692613789565b50611afd575b5490546040519283526001600160a01b0316917f77330ca83e4d9db81cd5243ad17b2e559f314a0fbeeee50331ac5db75004a80c90602090a35b5f80808380f35b80545f516020613cbe5f395f51905f528103611b5357506010545f1981019081116115f8577f77330ca83e4d9db81cd5243ad17b2e559f314a0fbeeee50331ac5db75004a80c916020916010555b915050611abc565b5f516020613c5e5f395f51905f5214611b90575b60207f77330ca83e4d9db81cd5243ad17b2e559f314a0fbeeee50331ac5db75004a80c91611b4b565b600a545f1981019081116115f857600a55611b67565b80545f516020613cbe5f395f51905f5284526002602090815260408086206001600160a01b039093165f818152939092529091205460ff161580611d7c575b80611d46575b80611d10575b15611cc057611c056001830191825461366c565b5080545f516020613cbe5f395f51905f528103611c6d5750601054600181018091116115f8577f279b1988424390357e86f6ee3b7aa74c9c24af4d58d62b0da9c375dee9e4960a916020916010555b5492546040519485526001600160a01b031693a3611af6565b5f516020613c5e5f395f51905f5214611caa575b60207f279b1988424390357e86f6ee3b7aa74c9c24af4d58d62b0da9c375dee9e4960a91611c54565b600a54600181018091116115f857600a55611c81565b60405162461bcd60e51b815260206004820152602260248201527f476f7665726e3a2043616e646964617465206e6f7720686f6c6473206120726f6044820152616c6560f01b6064820152608490fd5b505f516020613cde5f395f51905f52845260026020526040842060018060a01b0382165f5260205260ff60405f20541615611bf1565b505f516020613c7e5f395f51905f52845260026020526040842060018060a01b0382165f5260205260ff60405f20541615611beb565b505f516020613c5e5f395f51905f52845260026020526040842060018060a01b0382165f5260205260ff60405f20541615611be5565b60405162461bcd60e51b815260206004820152601d60248201527f476f7665726e3a20566f746520616c72656164792065786563757465640000006044820152606490fd5b50346102195760203660031901126102195760406020916004358152600983522054604051908152f35b503461021957604036600319011261021957611e3b61311d565b602435611e4661353e565b80835260026020526040832060018060a01b0383165f5260205260ff60405f20541615611fff575f516020613cde5f395f51905f528114611fa457611e8d6111b58361380d565b7f81d862670d1b3801c9b450653af87c64b870a575c055af67a7f5d77766d82a92606060115492611ebd84613392565b60115560405194611ecd866131f8565b60018060a01b031694858152600487611f6460208401858152604085019083825287860191600183526080870191858352604060a08901964288528d8152600e602052209760018060a01b039060018060a01b03905116166bffffffffffffffffffffffff60a01b8954161788555160018801555160028701556112826003870192511515839060ff801983541691151516179055565b51910155848652600560205260408620600160ff19825416179055848652600660205283604087205560405190815260016020820152336040820152a380f35b60405162461bcd60e51b815260206004820152602d60248201527f476f7665726e3a20557365207265766f6b65506963526f6c6520666f7220504960448201526c432c206e6f7420766f74696e6760981b6064820152608490fd5b60405162461bcd60e51b815260206004820152602660248201527f476f7665726e3a2054617267657420646f6573206e6f7420686f6c64207468696044820152657320726f6c6560d01b6064820152608490fd5b503461021957602036600319011261021957600480358083526020919091526040822060018101546001600160a01b031633036121a6575f516020613cde5f395f51905f528352600260209081526040808520335f90815292529020546120bc9060ff166132d1565b600881019060ff825416600781101561166057600203612161576003818101859055825460ff19161782556007810154905f1982018281116108015790600691857f86c8666ce90833483ffb181e731155621a7af09966271866b2f1e510fd8d76b08880a301541461212c578280f35b805460ff191660051790557f25092bad5af7d63822f060ef91cf8348ed4e41dd0cbae628763c484f90f846488280a25f808280f35b60405162461bcd60e51b815260206004820152601f60248201527f476f7665726e3a204d696c6573746f6e65206973206e6f7420616374697665006044820152606490fd5b60405162461bcd60e51b815260206004820152603360248201525f516020613cfe5f395f51905f526044820152722066696e616c697a65206d696c6573746f6e6560681b6064820152608490fd5b503461021957608036600319011261021957600435602435906064355f516020613cde5f395f51905f52845260026020526040842060018060a01b0333165f5260205260ff60405f2054161561248657818452600460205260408420546124375780156123e3576003600a54106123855760405161012081018181106001600160401b038211176123715790600891604052848152602081019233845260408201906044358252606083018881526080840189815260a085019142835260c0860193845260e08601948b86526101008701988c8a528a8d52600460205260408d209751885560018060a01b03905116600188019060018060a01b03166bffffffffffffffffffffffff60a01b82541617905551600287015551600386015551600485015551600584015551600683015551600782015501905160078110156116605760ff801983541691161790556040519182527f739403880d0a0e6599619d5f9a0f51c4d7a3f2af9d00cf6cfed47bad313da64560203393a380f35b634e487b7160e01b86526041600452602486fd5b60405162461bcd60e51b815260206004820152603060248201527f476f7665726e3a204d696e696d756d20332076616c696461746f72732072657160448201526f756972656420746f206f70657261746560801b6064820152608490fd5b60405162461bcd60e51b815260206004820152602660248201527f476f7665726e3a204d696c6573746f6e6520636f756e742063616e6e6f74206260448201526565207a65726f60d01b6064820152608490fd5b60405162461bcd60e51b815260206004820152602160248201527f476f7665726e3a2050726f6772616d20494420616c72656164792065786973746044820152607360f81b6064820152608490fd5b63e2517d3f60e01b8452336004525f516020613cde5f395f51905f52602452604484fd5b50346127d55760803660031901126127d5576004356024356044356001600160401b0381116127d5576124e1903690600401613133565b91906064356001600160401b0381116127d557612502903690600401613133565b93855f52600460205260405f2093600885019560ff8754166007811015612aeb57600203612a9b5760018601546001600160a01b03163303612a575781156129f6576003860194855483811061299e5783810390811161298a578655885f52600760205260405f20604051612576816131dd565b4281526020810185815261258b368886613234565b906040830191825261259e36878b613234565b9360608401948552805490680100000000000000008210156128a05760018201808255821015612976575f5260205f209060021b01925183555160018301556002820190518051906001600160401b0382116128a0576125fe8354613279565b601f8111612925575b50602090601f83116001146128bf576003949392915f91836128b4575b50508160011b915f1990861b1c19161790555b0190518051906001600160401b0382116128a05781906126578454613279565b601f8111612847575b50602090601f83116001146127e4575f926127d9575b50508160011b915f199060031b1c19161790555b6003546001600160a01b0316803b156127d5575f80916044604051809481936340c10f1960e01b83523360048401528960248401525af180156127ca57612784575b50916127228994926127127fddd5853f584c43fc3c35fb19e86ba5d5af3522f2811498bbee0290da037a2e009560405195869586526060602087015260608601916132b1565b90838203604085015233976132b1565b0390a3541561272f578380f35b600360ff19835416178255600660078201549101541461274e57808380f35b805460ff191660051790557f25092bad5af7d63822f060ef91cf8348ed4e41dd0cbae628763c484f90f846488280a25f80808380f35b7fddd5853f584c43fc3c35fb19e86ba5d5af3522f2811498bbee0290da037a2e0093919a508994926127b95f61272293613213565b6127125f9c939550509294506126cc565b6040513d5f823e3d90fd5b5f80fd5b015190505f80612676565b5f8581528281209350601f198516905b81811061282f5750908460019594939210612817575b505050811b01905561268a565b01515f1960f88460031b161c191690555f808061280a565b929360206001819287860151815501950193016127f4565b8281111561266057909150835f5260205f20601f840160051c9060208510612898575b849392601f0160051c82900391015f5b828110612888575050612660565b5f8183015585945060010161287a565b5f915061286a565b634e487b7160e01b5f52604160045260245ffd5b015190505f80612624565b90601f19831691845f52815f20925f5b81811061290d5750916001939185600398979694106128f6575b505050811b019055612637565b01515f1983881b60f8161c191690555f80806128e9565b929360206001819287860151815501950193016128cf565b8281111561260757835f5260205f20601f840160051c906020851061296e575b81601f9101920160051c03905f5b828110612961575050612607565b5f82820155600101612953565b5f9150612945565b634e487b7160e01b5f52603260045260245ffd5b634e487b7160e01b5f52601160045260245ffd5b60405162461bcd60e51b815260206004820152602a60248201527f476f7665726e3a205769746864726177616c20657863656564732072656d61696044820152696e696e672071756f746160b01b6064820152608490fd5b60405162461bcd60e51b815260206004820152603360248201527f476f7665726e3a205769746864726177616c20616d6f756e74206d7573742062604482015272652067726561746572207468616e207a65726f60681b6064820152608490fd5b60405162461bcd60e51b815260206004820152602960248201525f516020613cfe5f395f51905f5260448201526820776974686472617760b81b6064820152608490fd5b60405162461bcd60e51b815260206004820152602260248201527f476f7665726e3a2046756e647320617265206c6f636b6564206f722066726f7a60448201526132b760f11b6064820152608490fd5b634e487b7160e01b5f52602160045260245ffd5b346127d55760403660031901126127d557612b18613107565b336001600160a01b03821603612b3657612b3490600435613789565b005b63334bd91960e11b5f5260045ffd5b346127d55760203660031901126127d557612b5e61311d565b612b6661353e565b6001600160a01b0381165f9081525f516020613c9e5f395f51905f52602052604090205460ff1615612be057612b9b816136f8565b505f516020613cde5f395f51905f527f34ae08fdb86d5e708d661bf928437d30dbb79bb4e02ff7f5298c37bb005bce3260206040519333855260018060a01b031693a3005b60405162461bcd60e51b815260206004820152602360248201527f476f7665726e3a205573657220646f6573206e6f7420686f6c642050494320726044820152626f6c6560e81b6064820152608490fd5b346127d55760403660031901126127d557612c4a613107565b6004355f52600c60205260405f209060018060a01b03165f52602052602060ff60405f2054166040519015158152f35b346127d55760403660031901126127d557612b34600435612c99613107565b90612cb3610292825f526002602052600160405f20015490565b61366c565b346127d5575f3660031901126127d5576020600a54604051908152f35b346127d55760203660031901126127d5576020612d006004355f526002602052600160405f20015490565b604051908152f35b346127d55760403660031901126127d557600435602435801515908181036127d557612d326134e2565b825f52600460205260405f20835f52600b602052600860405f2091019260ff8454166007811015612aeb576004612d699114613184565b600382019260ff845416612fd85760028301548015612f935762093a80810180911161298a574211612f4e575f868152600c6020908152604080832033845290915290205460ff16612ef4575f868152600c602090815260408083203384529091529020805460ff1916600117905515612edc5781546001810180911161298a5782555b6001825492015490604051908152826020820152816040820152857fc3b9e23a914ae2a6290c61d340482bd29c82c9fb9ae2bf41f049ea0cfd073d4460603393a3600a546001600160ff1b038116810361298a5760039060011b04916001830180931161298a578211612e98575050600160ff19825416179055600260ff198254161790557f3c25f1ff7a27a931fa82f990736b4380c4f5d927a44fa06382239acb79b05cfb5f80a2005b1015612ea057005b600160ff19825416179055600660ff198254161790557f2fe628ac748966616044f0699e0523314d696d15181b05cfdb0777543e43a0465f80a2005b600182018054906001820180921161298a5755612ded565b60405162461bcd60e51b815260206004820152602c60248201527f476f7665726e3a20596f75206861766520616c726561647920766f7465206f6e60448201526b081d1a1a5cc8185c1c19585b60a21b6064820152608490fd5b60405162461bcd60e51b815260206004820152601d60248201527f476f7665726e3a2041707065616c20766f74696e6720657870697265640000006044820152606490fd5b60405162461bcd60e51b815260206004820152601860248201527f476f7665726e3a204e6f206163746976652061707065616c00000000000000006044820152606490fd5b60405162461bcd60e51b815260206004820152601f60248201527f476f7665726e3a2041707065616c20616c7265616479207265736f6c766564006044820152606490fd5b346127d55760203660031901126127d55760043563ffffffff60e01b81168091036127d557602090637965db0b60e01b8114908115613062575b506040519015158152f35b6301ffc9a760e01b14905082613057565b346127d55760203660031901126127d5576004355f52600460205260405f209081549160018060a01b036001820154166002820154600383015460048401549060058501549260068601549460ff6008600789015498015416988852602088015260408701526060860152608085015260a084015260c083015260e08201526007821015612aeb5761012091610100820152f35b602435906001600160a01b03821682036127d557565b600435906001600160a01b03821682036127d557565b9181601f840112156127d5578235916001600160401b0383116127d557602083818601950101116127d557565b805180835260209291819084018484015e5f828201840152601f01601f1916010190565b1561318b57565b60405162461bcd60e51b815260206004820152601d60248201527f476f7665726e3a2050726f6772616d206973206e6f742066726f7a656e0000006044820152606490fd5b9190820180921161298a57565b608081019081106001600160401b038211176128a057604052565b60c081019081106001600160401b038211176128a057604052565b90601f801991011681019081106001600160401b038211176128a057604052565b9291926001600160401b0382116128a0576040519161325d601f8201601f191660200184613213565b8294818452818301116127d5578281602093845f960137010152565b90600182811c921680156132a7575b602083101461329357565b634e487b7160e01b5f52602260045260245ffd5b91607f1691613288565b908060209392818452848401375f828201840152601f01601f1916010190565b156132d857565b60405162461bcd60e51b815260206004820152602760248201527f476f7665726e3a2043616c6c6572206e6f206c6f6e67657220686f6c64732050604482015266494320726f6c6560c81b6064820152608490fd5b1561333457565b60405162461bcd60e51b815260206004820152603060248201527f476f7665726e3a2043616e6469646174652068617320616e206163746976652060448201526f766f746520696e2070726f677265737360801b6064820152608490fd5b5f19811461298a5760010190565b156133a757565b60405162461bcd60e51b815260206004820152602160248201527f476f7665726e3a20566f74696e6720706572696f6420686173206578706972656044820152601960fa1b6064820152608490fd5b156133fd57565b60405162461bcd60e51b815260206004820152601e60248201527f476f7665726e3a20596f75206861766520616c726561647920766f74656400006044820152606490fd5b9060405191825f82549261345584613279565b80845293600181169081156134c0575060011461347c575b5061347a92500383613213565b565b90505f9291925260205f20905f915b8183106134a457505090602061347a928201015f61346d565b602091935080600191548385890101520191019091849261348b565b90506020925061347a94915060ff191682840152151560051b8201015f61346d565b335f9081527f39183d20fd1c150b5fe6a1e9e3c17b46ba16a658bdd8b2da626a432f3e06989f602052604090205460ff161561351a57565b63e2517d3f60e01b5f52336004525f516020613c5e5f395f51905f5260245260445ffd5b335f9081527fe5ebfa64fca8d502a8e50c1edffd2c31ef4dad5b396e65d9f397fb028f74abc5602052604090205460ff161561357657565b63e2517d3f60e01b5f52336004525f516020613cbe5f395f51905f5260245260445ffd5b5f81815260026020908152604080832033845290915290205460ff16156135be5750565b63e2517d3f60e01b5f523360045260245260445ffd5b6001600160a01b0381165f9081525f516020613c9e5f395f51905f52602052604090205460ff16613667576001600160a01b03165f8181525f516020613c9e5f395f51905f5260205260408120805460ff191660011790553391905f516020613cde5f395f51905f52907f2f8788117e7eff1d82e926ec794901d17c78024a50270940304540a733656f0d9080a4600190565b505f90565b5f8181526002602090815260408083206001600160a01b038616845290915290205460ff166136f2575f8181526002602090815260408083206001600160a01b0395909516808452949091528120805460ff19166001179055339291907f2f8788117e7eff1d82e926ec794901d17c78024a50270940304540a733656f0d9080a4600190565b50505f90565b6001600160a01b0381165f9081525f516020613c9e5f395f51905f52602052604090205460ff1615613667576001600160a01b03165f8181525f516020613c9e5f395f51905f5260205260408120805460ff191690553391905f516020613cde5f395f51905f52907ff6391f5c32d9c69d2a47ea670b442974b53935d1edc7fd64eb21e047a839171b9080a4600190565b5f8181526002602090815260408083206001600160a01b038616845290915290205460ff16156136f2575f8181526002602090815260408083206001600160a01b0395909516808452949091528120805460ff19169055339291907ff6391f5c32d9c69d2a47ea670b442974b53935d1edc7fd64eb21e047a839171b9080a4600190565b6001600160a01b03165f8181526005602052604090205460ff1615613667575f52600660205260405f20545f52600e60205260405f2060ff600382015460081c16613667576004015462093a80810180911161298a57421161386e57600190565b5f90565b60ff81146138b85760ff811690601f82116138a95760405191613896604084613213565b6020808452838101919036833783525290565b632cd44ac360e21b5f5260045ffd5b506040515f815f54916138ca83613279565b808352926001811690811561394e57506001146138f1575b6138ee92500382613213565b90565b505f80805290917f290decd9548b62a8d60345a988386fc84ba6bc95484008f6362f93160ef3e5635b8183106139325750509060206138ee928201016138e2565b602091935080600191548385880101520191019091839261391a565b602092506138ee94915060ff191682840152151560051b8201016138e2565b60ff81146139915760ff811690601f82116138a95760405191613896604084613213565b50604051600154815f6139a383613279565b808352926001811690811561394e57506001146139c6576138ee92500382613213565b5060015f90815290917fb10e2d527612073b26eecdfd717e6a320cf44b4afac2b0732d9fcbe2b7fa0cf65b818310613a095750509060206138ee928201016138e2565b60209193508060019154838588010152019101909183926139f1565b307f00000000000000000000000000000000000000000000000000000000000000006001600160a01b03161480613b18575b15613a80577f000000000000000000000000000000000000000000000000000000000000000090565b60405160208101907f8b73c3c69bb8fe3d512ecc4cf759cc79239f7b179b0ffacaa9a75d522b39400f82527f000000000000000000000000000000000000000000000000000000000000000060408201527f000000000000000000000000000000000000000000000000000000000000000060608201524660808201523060a082015260a08152613b1260c082613213565b51902090565b507f00000000000000000000000000000000000000000000000000000000000000004614613a57565b8151919060418303613b7157613b6a9250602082015190606060408401519301515f1a90613bdb565b9192909190565b50505f9160029190565b6004811015612aeb5780613b8d575050565b60018103613ba45763f645eedf60e01b5f5260045ffd5b60028103613bbf575063fce698f760e01b5f5260045260245ffd5b600314613bc95750565b6335e2f38360e21b5f5260045260245ffd5b91907f7fffffffffffffffffffffffffffffff5d576e7357a4501ddfe92f46681b20a08411613c52579160209360809260ff5f9560405194855216868401526040830152606082015282805260015afa156127ca575f516001600160a01b03811615613c4857905f905f90565b505f906001905f90565b5050505f916003919056fe21702c8af46127c7fa207f89d0b0a8441bb32959a0ac7df790e9ab1a25c9892659a1c48e5837ad7a7f3dcedcbe129bf3249ec4fbf651fd4f5e2600ead39fe2f5c9b826569274d0da80de4d1cbb6ef9bea38f5def0b02c6c6ec3f5c638b60ab80a49807205ce4d355092ef5a8a18f56e8913cf4a201fbe287825b095693c2177527d2af54ea0b1916da680dba2ffb61c99b3257b5fd2f6d71ba8a3bb85a94919c476f7665726e3a204f6e6c79207468652070726f6772616d205049432063616ea2646970667358221220f7408cd684c3cb3a9af7b5d12132dfb7f748b3ffe7ff3f61b975ef0ecf9150b864736f6c63430008230033e5ebfa64fca8d502a8e50c1edffd2c31ef4dad5b396e65d9f397fb028f74abc5",
  "linkReferences": {},
  "deployedLinkReferences": {},
  "immutableReferences": {
    "3617": [
      {
        "length": 32,
        "start": 14942
      }
    ],
    "3619": [
      {
        "length": 32,
        "start": 15131
      }
    ],
    "3621": [
      {
        "length": 32,
        "start": 14888
      }
    ],
    "3623": [
      {
        "length": 32,
        "start": 15021
      }
    ],
    "3625": [
      {
        "length": 32,
        "start": 15059
      }
    ],
    "3628": [
      {
        "length": 32,
        "start": 4167
      }
    ],
    "3631": [
      {
        "length": 32,
        "start": 4209
      }
    ]
  },
  "inputSourceName": "project/contracts/Web3Governance.sol",
  "buildInfoId": "solc-0_8_35-e61ab80bec2bf43fbcd515115084e6fc7df7af57"
}