{
  "_format": "hh3-artifact-1",
  "contractName": "Web3Governance",
  "sourceName": "contracts/Web3Governance.sol",
  "abi": [
    {
      "inputs": [
        {
          "internalType": "address",
          "name": "_rupiahTokenAddress",
          "type": "address"
        },
        {
          "internalType": "address",
          "name": "rootAdmin",
          "type": "address"
        }
      ],
      "stateMutability": "nonpayable",
      "type": "constructor"
    },
    {
      "inputs": [],
      "name": "AccessControlBadConfirmation",
      "type": "error"
    },
    {
      "inputs": [
        {
          "internalType": "address",
          "name": "account",
          "type": "address"
        },
        {
          "internalType": "bytes32",
          "name": "neededRole",
          "type": "bytes32"
        }
      ],
      "name": "AccessControlUnauthorizedAccount",
      "type": "error"
    },
    {
      "inputs": [],
      "name": "ECDSAInvalidSignature",
      "type": "error"
    },
    {
      "inputs": [
        {
          "internalType": "uint256",
          "name": "length",
          "type": "uint256"
        }
      ],
      "name": "ECDSAInvalidSignatureLength",
      "type": "error"
    },
    {
      "inputs": [
        {
          "internalType": "bytes32",
          "name": "s",
          "type": "bytes32"
        }
      ],
      "name": "ECDSAInvalidSignatureS",
      "type": "error"
    },
    {
      "inputs": [],
      "name": "InvalidShortString",
      "type": "error"
    },
    {
      "inputs": [
        {
          "internalType": "string",
          "name": "str",
          "type": "string"
        }
      ],
      "name": "StringTooLong",
      "type": "error"
    },
    {
      "anonymous": false,
      "inputs": [],
      "name": "EIP712DomainChanged",
      "type": "event"
    },
    {
      "anonymous": false,
      "inputs": [
        {
          "indexed": true,
          "internalType": "uint256",
          "name": "programId",
          "type": "uint256"
        },
        {
          "indexed": true,
          "internalType": "uint256",
          "name": "milestoneIndex",
          "type": "uint256"
        }
      ],
      "name": "MilestoneFinalized",
      "type": "event"
    },
    {
      "anonymous": false,
      "inputs": [
        {
          "indexed": true,
          "internalType": "uint256",
          "name": "programId",
          "type": "uint256"
        },
        {
          "indexed": true,
          "internalType": "uint256",
          "name": "milestoneIndex",
          "type": "uint256"
        },
        {
          "indexed": false,
          "internalType": "uint256",
          "name": "milestoneBudget",
          "type": "uint256"
        }
      ],
      "name": "MilestoneReleased",
      "type": "event"
    },
    {
      "anonymous": false,
      "inputs": [
        {
          "indexed": true,
          "internalType": "uint256",
          "name": "programId",
          "type": "uint256"
        },
        {
          "indexed": true,
          "internalType": "address",
          "name": "picWallet",
          "type": "address"
        },
        {
          "indexed": false,
          "internalType": "uint256",
          "name": "amount",
          "type": "uint256"
        },
        {
          "indexed": false,
          "internalType": "string",
          "name": "recipient",
          "type": "string"
        },
        {
          "indexed": false,
          "internalType": "string",
          "name": "description",
          "type": "string"
        }
      ],
      "name": "OnChainWithdrawalLogged",
      "type": "event"
    },
    {
      "anonymous": false,
      "inputs": [
        {
          "indexed": true,
          "internalType": "bytes32",
          "name": "role",
          "type": "bytes32"
        },
        {
          "indexed": true,
          "internalType": "address",
          "name": "account",
          "type": "address"
        },
        {
          "indexed": false,
          "internalType": "address",
          "name": "admin",
          "type": "address"
        }
      ],
      "name": "PicRoleGrantedByAdmin",
      "type": "event"
    },
    {
      "anonymous": false,
      "inputs": [
        {
          "indexed": true,
          "internalType": "bytes32",
          "name": "role",
          "type": "bytes32"
        },
        {
          "indexed": true,
          "internalType": "address",
          "name": "account",
          "type": "address"
        },
        {
          "indexed": false,
          "internalType": "address",
          "name": "admin",
          "type": "address"
        }
      ],
      "name": "PicRoleRevokedByAdmin",
      "type": "event"
    },
    {
      "anonymous": false,
      "inputs": [
        {
          "indexed": true,
          "internalType": "uint256",
          "name": "programId",
          "type": "uint256"
        }
      ],
      "name": "ProgramCompleted",
      "type": "event"
    },
    {
      "anonymous": false,
      "inputs": [
        {
          "indexed": true,
          "internalType": "uint256",
          "name": "programId",
          "type": "uint256"
        },
        {
          "indexed": true,
          "internalType": "address",
          "name": "auditor",
          "type": "address"
        }
      ],
      "name": "ProgramForceFrozen",
      "type": "event"
    },
    {
      "anonymous": false,
      "inputs": [
        {
          "indexed": true,
          "internalType": "uint256",
          "name": "programId",
          "type": "uint256"
        }
      ],
      "name": "ProgramFraudConfirmed",
      "type": "event"
    },
    {
      "anonymous": false,
      "inputs": [
        {
          "indexed": true,
          "internalType": "uint256",
          "name": "programId",
          "type": "uint256"
        }
      ],
      "name": "ProgramUnfrozenViaBFT",
      "type": "event"
    },
    {
      "anonymous": false,
      "inputs": [
        {
          "indexed": true,
          "internalType": "uint256",
          "name": "programId",
          "type": "uint256"
        }
      ],
      "name": "ProposalApproved",
      "type": "event"
    },
    {
      "anonymous": false,
      "inputs": [
        {
          "indexed": true,
          "internalType": "uint256",
          "name": "programId",
          "type": "uint256"
        },
        {
          "indexed": false,
          "internalType": "bytes32",
          "name": "programHash",
          "type": "bytes32"
        },
        {
          "indexed": true,
          "internalType": "address",
          "name": "picWallet",
          "type": "address"
        }
      ],
      "name": "ProposalSubmitted",
      "type": "event"
    },
    {
      "anonymous": false,
      "inputs": [
        {
          "indexed": true,
          "internalType": "uint256",
          "name": "programId",
          "type": "uint256"
        },
        {
          "indexed": true,
          "internalType": "address",
          "name": "validator",
          "type": "address"
        },
        {
          "indexed": false,
          "internalType": "uint256",
          "name": "currentVotes",
          "type": "uint256"
        }
      ],
      "name": "ProposalVoted",
      "type": "event"
    },
    {
      "anonymous": false,
      "inputs": [
        {
          "indexed": true,
          "internalType": "bytes32",
          "name": "role",
          "type": "bytes32"
        },
        {
          "indexed": true,
          "internalType": "bytes32",
          "name": "previousAdminRole",
          "type": "bytes32"
        },
        {
          "indexed": true,
          "internalType": "bytes32",
          "name": "newAdminRole",
          "type": "bytes32"
        }
      ],
      "name": "RoleAdminChanged",
      "type": "event"
    },
    {
      "anonymous": false,
      "inputs": [
        {
          "indexed": true,
          "internalType": "bytes32",
          "name": "role",
          "type": "bytes32"
        },
        {
          "indexed": true,
          "internalType": "address",
          "name": "account",
          "type": "address"
        },
        {
          "indexed": true,
          "internalType": "address",
          "name": "sender",
          "type": "address"
        }
      ],
      "name": "RoleGranted",
      "type": "event"
    },
    {
      "anonymous": false,
      "inputs": [
        {
          "indexed": true,
          "internalType": "bytes32",
          "name": "role",
          "type": "bytes32"
        },
        {
          "indexed": true,
          "internalType": "address",
          "name": "account",
          "type": "address"
        }
      ],
      "name": "RoleGrantedViaGovernance",
      "type": "event"
    },
    {
      "anonymous": false,
      "inputs": [
        {
          "indexed": true,
          "internalType": "bytes32",
          "name": "role",
          "type": "bytes32"
        },
        {
          "indexed": true,
          "internalType": "address",
          "name": "account",
          "type": "address"
        },
        {
          "indexed": true,
          "internalType": "address",
          "name": "sender",
          "type": "address"
        }
      ],
      "name": "RoleRevoked",
      "type": "event"
    },
    {
      "anonymous": false,
      "inputs": [
        {
          "indexed": true,
          "internalType": "bytes32",
          "name": "role",
          "type": "bytes32"
        },
        {
          "indexed": true,
          "internalType": "address",
          "name": "account",
          "type": "address"
        }
      ],
      "name": "RoleRevokedViaGovernance",
      "type": "event"
    },
    {
      "anonymous": false,
      "inputs": [
        {
          "indexed": true,
          "internalType": "uint256",
          "name": "voteId",
          "type": "uint256"
        },
        {
          "indexed": true,
          "internalType": "address",
          "name": "admin",
          "type": "address"
        },
        {
          "indexed": false,
          "internalType": "uint256",
          "name": "currentVotes",
          "type": "uint256"
        }
      ],
      "name": "RoleVoteCast",
      "type": "event"
    },
    {
      "anonymous": false,
      "inputs": [
        {
          "indexed": true,
          "internalType": "uint256",
          "name": "voteId",
          "type": "uint256"
        },
        {
          "indexed": true,
          "internalType": "address",
          "name": "candidate",
          "type": "address"
        },
        {
          "indexed": false,
          "internalType": "bytes32",
          "name": "roleToTarget",
          "type": "bytes32"
        },
        {
          "indexed": false,
          "internalType": "bool",
          "name": "isDevote",
          "type": "bool"
        }
      ],
      "name": "RoleVoteCreated",
      "type": "event"
    },
    {
      "anonymous": false,
      "inputs": [
        {
          "indexed": true,
          "internalType": "uint256",
          "name": "programId",
          "type": "uint256"
        },
        {
          "indexed": true,
          "internalType": "address",
          "name": "picWallet",
          "type": "address"
        }
      ],
      "name": "UnfreezeAppealSubmitted",
      "type": "event"
    },
    {
      "anonymous": false,
      "inputs": [
        {
          "indexed": true,
          "internalType": "uint256",
          "name": "programId",
          "type": "uint256"
        },
        {
          "indexed": true,
          "internalType": "address",
          "name": "validator",
          "type": "address"
        },
        {
          "indexed": false,
          "internalType": "bool",
          "name": "approve",
          "type": "bool"
        },
        {
          "indexed": false,
          "internalType": "uint256",
          "name": "approveVotes",
          "type": "uint256"
        },
        {
          "indexed": false,
          "internalType": "uint256",
          "name": "rejectVotes",
          "type": "uint256"
        }
      ],
      "name": "UnfreezeAppealVoted",
      "type": "event"
    },
    {
      "inputs": [],
      "name": "ADMIN_ROLE",
      "outputs": [
        {
          "internalType": "bytes32",
          "name": "",
          "type": "bytes32"
        }
      ],
      "stateMutability": "view",
      "type": "function"
    },
    {
      "inputs": [],
      "name": "AUDITOR_ROLE",
      "outputs": [
        {
          "internalType": "bytes32",
          "name": "",
          "type": "bytes32"
        }
      ],
      "stateMutability": "view",
      "type": "function"
    },
    {
      "inputs": [],
      "name": "DEFAULT_ADMIN_ROLE",
      "outputs": [
        {
          "internalType": "bytes32",
          "name": "",
          "type": "bytes32"
        }
      ],
      "stateMutability": "view",
      "type": "function"
    },
    {
      "inputs": [],
      "name": "PIC_ROLE",
      "outputs": [
        {
          "internalType": "bytes32",
          "name": "",
          "type": "bytes32"
        }
      ],
      "stateMutability": "view",
      "type": "function"
    },
    {
      "inputs": [],
      "name": "VALIDATOR_ROLE",
      "outputs": [
        {
          "internalType": "bytes32",
          "name": "",
          "type": "bytes32"
        }
      ],
      "stateMutability": "view",
      "type": "function"
    },
    {
      "inputs": [],
      "name": "VOTING_PERIOD",
      "outputs": [
        {
          "internalType": "uint256",
          "name": "",
          "type": "uint256"
        }
      ],
      "stateMutability": "view",
      "type": "function"
    },
    {
      "inputs": [],
      "name": "eip712Domain",
      "outputs": [
        {
          "internalType": "bytes1",
          "name": "fields",
          "type": "bytes1"
        },
        {
          "internalType": "string",
          "name": "name",
          "type": "string"
        },
        {
          "internalType": "string",
          "name": "version",
          "type": "string"
        },
        {
          "internalType": "uint256",
          "name": "chainId",
          "type": "uint256"
        },
        {
          "internalType": "address",
          "name": "verifyingContract",
          "type": "address"
        },
        {
          "internalType": "bytes32",
          "name": "salt",
          "type": "bytes32"
        },
        {
          "internalType": "uint256[]",
          "name": "extensions",
          "type": "uint256[]"
        }
      ],
      "stateMutability": "view",
      "type": "function"
    },
    {
      "inputs": [
        {
          "internalType": "uint256",
          "name": "programId",
          "type": "uint256"
        },
        {
          "internalType": "uint256",
          "name": "milestoneIndex",
          "type": "uint256"
        },
        {
          "internalType": "uint256",
          "name": "milestoneBudget",
          "type": "uint256"
        },
        {
          "internalType": "bytes32",
          "name": "evidenceHash",
          "type": "bytes32"
        },
        {
          "internalType": "bytes",
          "name": "sigAdmin",
          "type": "bytes"
        },
        {
          "internalType": "bytes",
          "name": "sigValidator",
          "type": "bytes"
        },
        {
          "internalType": "bytes",
          "name": "sigAuditor",
          "type": "bytes"
        }
      ],
      "name": "executeMilestoneRelease",
      "outputs": [],
      "stateMutability": "nonpayable",
      "type": "function"
    },
    {
      "inputs": [
        {
          "internalType": "uint256",
          "name": "programId",
          "type": "uint256"
        },
        {
          "internalType": "uint256",
          "name": "withdrawAmount",
          "type": "uint256"
        },
        {
          "internalType": "string",
          "name": "recipientName",
          "type": "string"
        },
        {
          "internalType": "string",
          "name": "description",
          "type": "string"
        }
      ],
      "name": "executePicWithdrawal",
      "outputs": [],
      "stateMutability": "nonpayable",
      "type": "function"
    },
    {
      "inputs": [
        {
          "internalType": "uint256",
          "name": "programId",
          "type": "uint256"
        }
      ],
      "name": "finalizeMilestone",
      "outputs": [],
      "stateMutability": "nonpayable",
      "type": "function"
    },
    {
      "inputs": [
        {
          "internalType": "uint256",
          "name": "programId",
          "type": "uint256"
        }
      ],
      "name": "forceFreezeProgram",
      "outputs": [],
      "stateMutability": "nonpayable",
      "type": "function"
    },
    {
      "inputs": [
        {
          "internalType": "bytes32",
          "name": "role",
          "type": "bytes32"
        }
      ],
      "name": "getRoleAdmin",
      "outputs": [
        {
          "internalType": "bytes32",
          "name": "",
          "type": "bytes32"
        }
      ],
      "stateMutability": "view",
      "type": "function"
    },
    {
      "inputs": [
        {
          "internalType": "uint256",
          "name": "programId",
          "type": "uint256"
        }
      ],
      "name": "getWithdrawalHistory",
      "outputs": [
        {
          "components": [
            {
              "internalType": "uint256",
              "name": "timestamp",
              "type": "uint256"
            },
            {
              "internalType": "uint256",
              "name": "amount",
              "type": "uint256"
            },
            {
              "internalType": "string",
              "name": "recipientName",
              "type": "string"
            },
            {
              "internalType": "string",
              "name": "description",
              "type": "string"
            }
          ],
          "internalType": "struct Web3Governance.WithdrawalRecord[]",
          "name": "",
          "type": "tuple[]"
        }
      ],
      "stateMutability": "view",
      "type": "function"
    },
    {
      "inputs": [
        {
          "internalType": "address",
          "name": "user",
          "type": "address"
        }
      ],
      "name": "grantPicRole",
      "outputs": [],
      "stateMutability": "nonpayable",
      "type": "function"
    },
    {
      "inputs": [
        {
          "internalType": "bytes32",
          "name": "role",
          "type": "bytes32"
        },
        {
          "internalType": "address",
          "name": "account",
          "type": "address"
        }
      ],
      "name": "grantRole",
      "outputs": [],
      "stateMutability": "nonpayable",
      "type": "function"
    },
    {
      "inputs": [
        {
          "internalType": "bytes32",
          "name": "role",
          "type": "bytes32"
        },
        {
          "internalType": "address",
          "name": "account",
          "type": "address"
        }
      ],
      "name": "hasRole",
      "outputs": [
        {
          "internalType": "bool",
          "name": "",
          "type": "bool"
        }
      ],
      "stateMutability": "view",
      "type": "function"
    },
    {
      "inputs": [
        {
          "internalType": "uint256",
          "name": "",
          "type": "uint256"
        },
        {
          "internalType": "address",
          "name": "",
          "type": "address"
        }
      ],
      "name": "hasVotedProposal",
      "outputs": [
        {
          "internalType": "bool",
          "name": "",
          "type": "bool"
        }
      ],
      "stateMutability": "view",
      "type": "function"
    },
    {
      "inputs": [
        {
          "internalType": "uint256",
          "name": "",
          "type": "uint256"
        },
        {
          "internalType": "address",
          "name": "",
          "type": "address"
        }
      ],
      "name": "hasVotedRole",
      "outputs": [
        {
          "internalType": "bool",
          "name": "",
          "type": "bool"
        }
      ],
      "stateMutability": "view",
      "type": "function"
    },
    {
      "inputs": [
        {
          "internalType": "uint256",
          "name": "",
          "type": "uint256"
        },
        {
          "internalType": "address",
          "name": "",
          "type": "address"
        }
      ],
      "name": "hasVotedUnfreeze",
      "outputs": [
        {
          "internalType": "bool",
          "name": "",
          "type": "bool"
        }
      ],
      "stateMutability": "view",
      "type": "function"
    },
    {
      "inputs": [
        {
          "internalType": "uint256",
          "name": "",
          "type": "uint256"
        },
        {
          "internalType": "address",
          "name": "",
          "type": "address"
        }
      ],
      "name": "historyOfSigners",
      "outputs": [
        {
          "internalType": "bool",
          "name": "",
          "type": "bool"
        }
      ],
      "stateMutability": "view",
      "type": "function"
    },
    {
      "inputs": [
        {
          "internalType": "uint256",
          "name": "",
          "type": "uint256"
        }
      ],
      "name": "proposalVotes",
      "outputs": [
        {
          "internalType": "uint256",
          "name": "",
          "type": "uint256"
        }
      ],
      "stateMutability": "view",
      "type": "function"
    },
    {
      "inputs": [
        {
          "internalType": "uint256",
          "name": "",
          "type": "uint256"
        }
      ],
      "name": "proposals",
      "outputs": [
        {
          "internalType": "bytes32",
          "name": "programHash",
          "type": "bytes32"
        },
        {
          "internalType": "address",
          "name": "picWallet",
          "type": "address"
        },
        {
          "internalType": "uint256",
          "name": "totalBudget",
          "type": "uint256"
        },
        {
          "internalType": "uint256",
          "name": "currentAllocatedBalance",
          "type": "uint256"
        },
        {
          "internalType": "uint256",
          "name": "totalAllocatedSoFar",
          "type": "uint256"
        },
        {
          "internalType": "uint256",
          "name": "submittedAt",
          "type": "uint256"
        },
        {
          "internalType": "uint256",
          "name": "milestoneCount",
          "type": "uint256"
        },
        {
          "internalType": "uint256",
          "name": "currentMilestone",
          "type": "uint256"
        },
        {
          "internalType": "enum Web3Governance.ProposalStatus",
          "name": "status",
          "type": "uint8"
        }
      ],
      "stateMutability": "view",
      "type": "function"
    },
    {
      "inputs": [
        {
          "internalType": "address",
          "name": "targetUser",
          "type": "address"
        },
        {
          "internalType": "bytes32",
          "name": "roleToRevoke",
          "type": "bytes32"
        }
      ],
      "name": "proposeRoleDevote",
      "outputs": [],
      "stateMutability": "nonpayable",
      "type": "function"
    },
    {
      "inputs": [
        {
          "internalType": "address",
          "name": "candidate",
          "type": "address"
        },
        {
          "internalType": "bytes32",
          "name": "roleToGrant",
          "type": "bytes32"
        }
      ],
      "name": "proposeRoleGrant",
      "outputs": [],
      "stateMutability": "nonpayable",
      "type": "function"
    },
    {
      "inputs": [
        {
          "internalType": "uint256",
          "name": "programId",
          "type": "uint256"
        }
      ],
      "name": "proposeUnfreezeAppeal",
      "outputs": [],
      "stateMutability": "nonpayable",
      "type": "function"
    },
    {
      "inputs": [
        {
          "internalType": "bytes32",
          "name": "role",
          "type": "bytes32"
        },
        {
          "internalType": "address",
          "name": "callerConfirmation",
          "type": "address"
        }
      ],
      "name": "renounceRole",
      "outputs": [],
      "stateMutability": "nonpayable",
      "type": "function"
    },
    {
      "inputs": [
        {
          "internalType": "address",
          "name": "user",
          "type": "address"
        }
      ],
      "name": "revokePicRole",
      "outputs": [],
      "stateMutability": "nonpayable",
      "type": "function"
    },
    {
      "inputs": [
        {
          "internalType": "bytes32",
          "name": "role",
          "type": "bytes32"
        },
        {
          "internalType": "address",
          "name": "account",
          "type": "address"
        }
      ],
      "name": "revokeRole",
      "outputs": [],
      "stateMutability": "nonpayable",
      "type": "function"
    },
    {
      "inputs": [],
      "name": "roleVoteNonce",
      "outputs": [
        {
          "internalType": "uint256",
          "name": "",
          "type": "uint256"
        }
      ],
      "stateMutability": "view",
      "type": "function"
    },
    {
      "inputs": [
        {
          "internalType": "uint256",
          "name": "",
          "type": "uint256"
        }
      ],
      "name": "roleVotes",
      "outputs": [
        {
          "internalType": "address",
          "name": "candidate",
          "type": "address"
        },
        {
          "internalType": "bytes32",
          "name": "roleToTarget",
          "type": "bytes32"
        },
        {
          "internalType": "uint256",
          "name": "voteCount",
          "type": "uint256"
        },
        {
          "internalType": "bool",
          "name": "isDevote",
          "type": "bool"
        },
        {
          "internalType": "bool",
          "name": "executed",
          "type": "bool"
        }
      ],
      "stateMutability": "view",
      "type": "function"
    },
    {
      "inputs": [],
      "name": "rupiahToken",
      "outputs": [
        {
          "internalType": "contract IRupiahToken",
          "name": "",
          "type": "address"
        }
      ],
      "stateMutability": "view",
      "type": "function"
    },
    {
      "inputs": [
        {
          "internalType": "uint256",
          "name": "programId",
          "type": "uint256"
        },
        {
          "internalType": "bytes32",
          "name": "programHash",
          "type": "bytes32"
        },
        {
          "internalType": "uint256",
          "name": "totalBudget",
          "type": "uint256"
        },
        {
          "internalType": "uint256",
          "name": "milestoneCount",
          "type": "uint256"
        }
      ],
      "name": "submitProposal",
      "outputs": [],
      "stateMutability": "nonpayable",
      "type": "function"
    },
    {
      "inputs": [
        {
          "internalType": "bytes4",
          "name": "interfaceId",
          "type": "bytes4"
        }
      ],
      "name": "supportsInterface",
      "outputs": [
        {
          "internalType": "bool",
          "name": "",
          "type": "bool"
        }
      ],
      "stateMutability": "view",
      "type": "function"
    },
    {
      "inputs": [],
      "name": "totalAdminsCount",
      "outputs": [
        {
          "internalType": "uint256",
          "name": "",
          "type": "uint256"
        }
      ],
      "stateMutability": "view",
      "type": "function"
    },
    {
      "inputs": [],
      "name": "totalValidatorsCount",
      "outputs": [
        {
          "internalType": "uint256",
          "name": "",
          "type": "uint256"
        }
      ],
      "stateMutability": "view",
      "type": "function"
    },
    {
      "inputs": [
        {
          "internalType": "uint256",
          "name": "",
          "type": "uint256"
        }
      ],
      "name": "unfreezeAppeals",
      "outputs": [
        {
          "internalType": "uint256",
          "name": "approveVotes",
          "type": "uint256"
        },
        {
          "internalType": "uint256",
          "name": "rejectVotes",
          "type": "uint256"
        },
        {
          "internalType": "uint256",
          "name": "appealStartedAt",
          "type": "uint256"
        },
        {
          "internalType": "bool",
          "name": "resolved",
          "type": "bool"
        }
      ],
      "stateMutability": "view",
      "type": "function"
    },
    {
      "inputs": [
        {
          "internalType": "uint256",
          "name": "programId",
          "type": "uint256"
        }
      ],
      "name": "voteProposal",
      "outputs": [],
      "stateMutability": "nonpayable",
      "type": "function"
    },
    {
      "inputs": [
        {
          "internalType": "uint256",
          "name": "voteId",
          "type": "uint256"
        }
      ],
      "name": "voteRoleProposal",
      "outputs": [],
      "stateMutability": "nonpayable",
      "type": "function"
    },
    {
      "inputs": [
        {
          "internalType": "uint256",
          "name": "programId",
          "type": "uint256"
        },
        {
          "internalType": "bool",
          "name": "approve",
          "type": "bool"
        }
      ],
      "name": "voteUnfreezeAppeal",
      "outputs": [],
      "stateMutability": "nonpayable",
      "type": "function"
    }
  ],
  "bytecode": "0x61016080604052346101aa57604081613efc803803809161002082856101ae565b8339810103126101aa57610133610042602061003b846101e5565b93016101e5565b6040516100506040826101ae565b6018815260208101907f476f7665726e616e6365416e7469436f7272757074696f6e000000000000000082526040519161008b6040846101ae565b600183526020830191603160f81b83526100a481610302565b610120526100b1846104a4565b61014052519020918260e05251902080610100524660a0526040519060208201927f8b73c3c69bb8fe3d512ecc4cf759cc79239f7b179b0ffacaa9a75d522b39400f8452604083015260608201524660808201523060a082015260a0815261011a60c0826101ae565b5190206080523060c05261012d816101f9565b5061026f565b506001600e55600380546001600160a01b0319166001600160a01b03929092169190911790556040516138b390816105e98239608051816135be015260a0518161367b015260c05181613588015260e0518161360d0152610100518161363301526101205181610fed015261014051816110170152f35b5f80fd5b601f909101601f19168101906001600160401b038211908210176101d157604052565b634e487b7160e01b5f52604160045260245ffd5b51906001600160a01b03821682036101aa57565b6001600160a01b0381165f9081525f516020613ebc5f395f51905f52602052604090205460ff1661026a576001600160a01b03165f8181525f516020613ebc5f395f51905f5260205260408120805460ff191660011790553391905f516020613e9c5f395f51905f528180a4600190565b505f90565b6001600160a01b0381165f9081525f516020613edc5f395f51905f52602052604090205460ff1661026a576001600160a01b03165f8181525f516020613edc5f395f51905f5260205260408120805460ff191660011790553391907fa49807205ce4d355092ef5a8a18f56e8913cf4a201fbe287825b095693c21775905f516020613e9c5f395f51905f529080a4600190565b908151602081105f1461037c575090601f81511161033c57602081519101516020821061032d571790565b5f198260200360031b1b161790565b604460209160405192839163305a27a960e01b83528160048401528051918291826024860152018484015e5f828201840152601f01601f19168101030190fd5b6001600160401b0381116101d1575f54600181811c9116801561049a575b602082101461048657601f8111610448575b50602092601f82116001146103e957928192935f926103de575b50508160011b915f199060031b1c1916175f5560ff90565b015190505f806103c6565b601f198216935f8052805f20915f5b8681106104305750836001959610610418575b505050811b015f5560ff90565b01515f1960f88460031b161c191690555f808061040b565b919260206001819286850151815501940192016103f8565b818111156103ac575f805260205f20601f80840160051c809201920160051c03905f5b8281106104795750506103ac565b5f8282015560010161046b565b634e487b7160e01b5f52602260045260245ffd5b90607f169061039a565b908151602081105f146104cf575090601f81511161033c57602081519101516020821061032d571790565b6001600160401b0381116101d157600154600181811c911680156105de575b602082101461048657601f811161059f575b50602092601f821160011461053e57928192935f92610533575b50508160011b915f199060031b1c19161760015560ff90565b015190505f8061051a565b601f1982169360015f52805f20915f5b868110610587575083600195961061056f575b505050811b0160015560ff90565b01515f1960f88460031b161c191690555f8080610561565b9192602060018192868501518155019401920161054e565b818111156105005760015f5260205f20601f80840160051c809201920160051c03905f5b8281106105d1575050610500565b5f828201556001016105c3565b90607f16906104ee56fe6080806040526004361015610012575f80fd5b5f905f3560e01c908163013cf08b14612cf35750806301ffc9a714612c9d578063168ff6cb14612988578063248a9ca3146129555780632da26bc6146129385780632f2ff15d146128fa578063308cf0a2146128b1578063346f601b146127c557806336568abe1461277f57806337b0509c1461212a5780633b6a986a14611e745780634b959a4f14611cd35780634e20ada514611af4578063544ffc9c14611aca57806361da5a381461180e5780636656f3ff146117c457806369eb6767146116ac5780636d535e7c146116625780636e1d616e1461163a57806375b238fc14611612578063807896d5146113c757806383206b4e1461137d57806384ac7140146110cf57806384b0196e14610fd357806391d1485414610f89578063a217fddf14610f6d578063a572219814610f44578063b0c4d1e714610ef2578063b1610d7e14610ed4578063b4f0dc4414610d7a578063b5ca962114610bd1578063c00fc9181461042a578063c04a598314610307578063c11f176e146102a1578063c49baebe14610279578063cb78ae8814610251578063d547741f14610209578063e806c046146101eb5763ea14aad4146101cb575f80fd5b346101e857806003193601126101e8576020600f54604051908152f35b80fd5b50346101e857806003193601126101e8576020600e54604051908152f35b50346101e85760403660031901126101e85761024d600435610229612d87565b90610248610243825f526002602052600160405f20015490565b61315f565b61334e565b5080f35b50346101e857806003193601126101e85760206040515f51602061383e5f395f51905f528152f35b50346101e857806003193601126101e85760206040515f5160206137be5f395f51905f528152f35b50346101e85760203660031901126101e857604060a0916004358152600c6020522060ff600180841b03825416916001810154906003600282015491015491604051948552602085015260408401528181161515606084015260081c1615156080820152f35b50346101e85760203660031901126101e8575f5160206137de5f395f51905f528152600260209081526040808320335f90815292529020546004359060ff16156104065780825260046020526008604083200160ff81541660078110156103f2576002036103a357805460ff1916600417905533907f4463d871b39f2e1fac04ca37187365f694a4391331a0af555f044d8f2706c25d8380a380f35b60405162461bcd60e51b815260206004820152602160248201527f476f7665726e3a2050726f6772616d206973206e6f7420696e206163746976656044820152600160fd1b6064820152608490fd5b634e487b7160e01b84526021600452602484fd5b63e2517d3f60e01b8252336004525f5160206137de5f395f51905f52602452604482fd5b50346101e85760e03660031901126101e8576024356004356044356084356001600160401b038111610bcd57610464903690600401612db3565b60a4356001600160401b038111610bc957610483903690600401612db3565b909260c4356001600160401b038111610bc5576104a4903690600401612db3565b929093878a52600460205260408a209260018060a01b036001850154163303610b78575f51602061383e5f395f51905f528b52600260209081526040808d20335f90815292529020546104f99060ff16612f51565b600884019260ff8454166007811015610b645760018114908115610b59575b5015610b1457600485019261052e8a8554612e50565b600287015410610aa95760078601988c8a54809103610a585760068801541115610a145761060698610606986106138f8f948f976105fd6105f761062b9b604261061c9a61060d976106229e6040519160208301937f59111defc335dafa1b9a96a3a112e032c093301b0dc9796d0311570608aa3e7f855260408401526060830152608082015260643560a082015260a081526105cc60c082612e93565b5190206105d7613585565b906040519161190160f01b835260028301526022820152209a3691612eb4565b896136a1565b909f919f6136db565b3691612eb4565b856136a1565b909c919c6136db565b906136a1565b909291926136db565b5f51602061381e5f395f51905f528b52600260205260408b2060018060a01b0386165f5260205260ff60405f205416156109cf575f5160206137be5f395f51905f528b52600260205260408b2060018060a01b0387165f5260205260ff60405f2054161561097e575f5160206137de5f395f51905f528b52600260205260408b2060018060a01b0382165f5260205260ff60405f2054161561092f5787948a6107bb575b95600395968a8d52600b60205260408d209060018060a01b03165f5260205260405f20600160ff19825416179055898c52600b60205260408c209060018060a01b03165f5260205260405f20600160ff19825416179055888b52600b60205260408b209060018060a01b03165f5260205260405f20600160ff1982541617905561075a858254612e50565b9055600260ff198254161790550155805490600182018092116107a757556040519081527fd33fcd27cbfb73a2d9058c968b560ccb306500bf536133802048489ecc7355e990602090a380f35b634e487b7160e01b86526011600452602486fd5b9450888b52600b60205260408b2060018060a01b0386165f5260205260ff60405f2054166108de57888b52600b60205260408b2060018060a01b0387165f5260205260ff60405f20541661088957888b52600b60205260408b2060018060a01b0382165f5260205260ff60405f2054166108365787946106cf565b60405162461bcd60e51b815260206004820152602560248201527f476f7665726e3a2041756469746f7220616c7265616479207369676e6564206260448201526465666f726560d81b6064820152608490fd5b60405162461bcd60e51b815260206004820152602760248201527f476f7665726e3a2056616c696461746f7220616c7265616479207369676e6564604482015266206265666f726560c81b6064820152608490fd5b60405162461bcd60e51b815260206004820152602360248201527f476f7665726e3a2041646d696e20616c7265616479207369676e6564206265666044820152626f726560e81b6064820152608490fd5b60405162461bcd60e51b815260206004820152602160248201527f476f7665726e3a20496e76616c69642041756469746f72207369676e617475726044820152606560f81b6064820152608490fd5b60405162461bcd60e51b815260206004820152602360248201527f476f7665726e3a20496e76616c69642056616c696461746f72207369676e617460448201526275726560e81b6064820152608490fd5b60405162461bcd60e51b815260206004820152601f60248201527f476f7665726e3a20496e76616c69642041646d696e207369676e6174757265006044820152606490fd5b606460405162461bcd60e51b815260206004820152602060248201527f476f7665726e3a20416c6c206d696c6573746f6e657320636f6d706c657465646044820152fd5b60405162461bcd60e51b815260206004820152602360248201527f476f7665726e3a204d696c6573746f6e652073657175656e6365206d69736d616044820152620e8c6d60eb1b6064820152608490fd5b60405162461bcd60e51b815260206004820152603860248201527f476f7665726e3a2043756d756c6174697665206d696c6573746f6e652062756460448201527f676574206578636565647320746f74616c2062756467657400000000000000006064820152608490fd5b60405162461bcd60e51b815260206004820152601b60248201527f476f7665726e3a204d696c6573746f6e65206973206c6f636b656400000000006044820152606490fd5b60039150145f610518565b634e487b7160e01b8d52602160045260248dfd5b60405162461bcd60e51b815260206004820152603260248201525f51602061385e5f395f51905f526044820152712072656c65617365206d696c6573746f6e6560701b6064820152608490fd5b8880fd5b8680fd5b8480fd5b50346101e85760203660031901126101e857610beb612d9d565b610bf3613103565b5f51602061381e5f395f51905f52825260026020526040822060018060a01b0382165f5260205260ff60405f2054161580610d44575b80610d0e575b80610cd8575b15610c8957610c4381613199565b505f51602061383e5f395f51905f527f624f03b50163c63ec57754d9e6bf944ac1883a9478b7af11d05cde6028867efd60206040519333855260018060a01b031693a380f35b60405162461bcd60e51b815260206004820152602160248201527f476f7665726e3a205573657220616c726561647920686f6c6473206120726f6c6044820152606560f81b6064820152608490fd5b505f51602061383e5f395f51905f52825260026020526040822060018060a01b0382165f5260205260ff60405f20541615610c35565b505f5160206137de5f395f51905f52825260026020526040822060018060a01b0382165f5260205260ff60405f20541615610c2f565b505f5160206137be5f395f51905f52825260026020526040822060018060a01b0382165f5260205260ff60405f20541615610c29565b50346101e85760203660031901126101e857600435815260056020526040812080546001600160401b038111610ec05760208160051b0190610dbf6040519283612e93565b80825260208201809385526020852085915b838310610e7157868587604051928392602084019060208552518091526040840160408260051b8601019392905b828210610e0e57505050500390f35b91936001919395506020610e618192603f198a82030186528851908151815283820151848201526060610e506040840151608060408501526080840190612de0565b920151906060818403910152612de0565b9601920192018594939192610dff565b60046020600192604051610e8481612e5d565b855481528486015483820152610e9c60028701613007565b6040820152610ead60038701613007565b6060820152815201920192019190610dd1565b634e487b7160e01b83526041600452602483fd5b50346101e857806003193601126101e857602060405162093a808152f35b50346101e85760203660031901126101e8576040608091600435815260096020522080549060018101549060ff6003600283015492015416916040519384526020840152604083015215156060820152f35b50346101e857806003193601126101e8576003546040516001600160a01b039091168152602090f35b50346101e857806003193601126101e857602090604051908152f35b50346101e85760403660031901126101e8576040610fa5612d87565b9160043581526002602052209060018060a01b03165f52602052602060ff60405f2054166040519015158152f35b50346101e857806003193601126101e857611073906110117f00000000000000000000000000000000000000000000000000000000000000006133d2565b9061103b7f00000000000000000000000000000000000000000000000000000000000000006134cd565b9060206110816040519361104f8386612e93565b8385525f368137604051968796600f60f81b885260e08589015260e0880190612de0565b908682036040880152612de0565b904660608601523060808601528260a086015284820360c08601528080855193848152019401925b8281106110b857505050500390f35b8351855286955093810193928101926001016110a9565b50346101e85760403660031901126101e8576110e9612d9d565b6024356110f4613103565b5f51602061381e5f395f51905f52835260026020526040832060018060a01b0383165f5260205260ff60405f2054161580611347575b80611311575b806112db575b15611287575f51602061383e5f395f51905f52811461122d577f4d78a1efed2c67e13c88dc1d2b373524542b10e4be6e473b7aef18254fd106ce6040600f549261117f84612fad565b600f5561121e82519561119187612e78565b6001600160a01b039081168088526020808901858152868a018b815260608b018c815260808c018d81528b8e52600c909452888d209b518c5496166001600160a01b0319909616959095178b55905160018b01555160028a015591516003909801805460ff191698151560ff1698909817885596905b51815461ff00191690151560081b61ff0016179055565b8151908152856020820152a380f35b60405162461bcd60e51b815260206004820152602c60248201527f476f7665726e3a20557365206772616e74506963526f6c6520666f722050494360448201526b2c206e6f7420766f74696e6760a01b6064820152608490fd5b60405162461bcd60e51b815260206004820152602660248201527f476f7665726e3a2043616e64696461746520616c726561647920686f6c6473206044820152656120726f6c6560d01b6064820152608490fd5b505f51602061383e5f395f51905f52835260026020526040832060018060a01b0383165f5260205260ff60405f20541615611136565b505f5160206137de5f395f51905f52835260026020526040832060018060a01b0383165f5260205260ff60405f20541615611130565b505f5160206137be5f395f51905f52835260026020526040832060018060a01b0383165f5260205260ff60405f2054161561112a565b50346101e85760403660031901126101e8576040611399612d87565b916004358152600b602052209060018060a01b03165f52602052602060ff60405f2054166040519015158152f35b50346101e85760203660031901126101e8576004356113e46130a7565b808252600460205260408220600881019060ff82541660078110156115fe576115aa576005015462093a80810180911161153357421161155b57818352600660209081526040808520335f90815292529020546114449060ff1615612fbb565b81835260066020526040832060018060a01b0333165f5260205260405f20600160ff1982541617905581835260076020526040832080549060018201809211611547575581835260076020526040832054604051908152827f12602b81b4b3a6bc77534c571e8af3d316246bc5e5bea24efdf512ff6715da1560203393a36008546001600160ff1b03811681036115335760039060011b0460018101809111611533578284526007602052604084205410156114fe578280f35b805460ff191660011790557f28ec9e38ba73636ceb2f6c1574136f83bd46284a3c74734b711bf45e12f8d9298280a25f808280f35b634e487b7160e01b84526011600452602484fd5b634e487b7160e01b85526011600452602485fd5b60405162461bcd60e51b815260206004820152602160248201527f476f7665726e3a20566f74696e6720706572696f6420686173206578706972656044820152601960fa1b6064820152608490fd5b60405162461bcd60e51b815260206004820152602660248201527f476f7665726e3a2050726f6772616d206973206e6f7420696e20766f74696e6760448201526520706861736560d01b6064820152608490fd5b634e487b7160e01b85526021600452602485fd5b50346101e857806003193601126101e85760206040515f51602061381e5f395f51905f528152f35b50346101e857806003193601126101e85760206040515f5160206137de5f395f51905f528152f35b50346101e85760403660031901126101e857604061167e612d87565b9160043581526006602052209060018060a01b03165f52602052602060ff60405f2054166040519015158152f35b50346101e85760203660031901126101e85760043580825260046020526040822060ff60088201541660078110156103f25760046116ea9114612e04565b600101546001600160a01b031633036117825761175960405161170c81612e5d565b8381526003602082018581526040830142815260608401918783528688526009602052604088209451855551600185015551600284015551151591019060ff801983541691151516179055565b33907f577a4c09557d73f14ae554ff94441086548f00d4d0817153fa04f2097cfce35f8380a380f35b60405162461bcd60e51b815260206004820152602760248201525f51602061385e5f395f51905f5260448201526608185c1c19585b60ca1b6064820152608490fd5b50346101e85760403660031901126101e85760406117e0612d87565b916004358152600d602052209060018060a01b03165f52602052602060ff60405f2054166040519015158152f35b50346101e85760203660031901126101e85760043561182b613103565b808252600c6020526040822090600382019060ff825460081c16611a8557808452600d60209081526040808620335f908152925290205461186f9060ff1615612fbb565b808452600d6020526040842060018060a01b0333165f5260205260405f20600160ff198254161790556002830190815491600183018093116107a757829055604051908282527f5cf19a2bf4123c9f2a6bf317c9b28512afcc7efbfb010926b1f5d2759c8e46c860203393a3600e546001600160ff1b03811681036115475760039060011b04906001820180921161154757101561190b578280f35b805461ff001981166101001790915560ff16156119e3576001810161193b815460018060a01b038454169061334e565b5080545f51602061381e5f395f51905f5281036119ad5750600e5460018111611999575b505b5490546001600160a01b0316907fcb925fe574b13704351499696c2e147e10032b3ace539d44c649745eb1bb1e468380a35b5f808280f35b5f19810190811161153357600e555f61195f565b5f5160206137be5f395f51905f520361196157600854806119cf575b50611961565b5f198101908111611533576008555f6119c9565b600181016119fc815460018060a01b0384541690613231565b5080545f51602061381e5f395f51905f528103611a5c5750600e546001810180911161153357600e555b5490546001600160a01b0316907f6d57cc1494c141b0e7811d510ef048c4b722349ecce84bd6eec239844590130c8380a3611993565b5f5160206137be5f395f51905f5203611a26576008546001810180911161153357600855611a26565b60405162461bcd60e51b815260206004820152601d60248201527f476f7665726e3a20566f746520616c72656164792065786563757465640000006044820152606490fd5b50346101e85760203660031901126101e85760406020916004358152600783522054604051908152f35b50346101e85760403660031901126101e857611b0e612d9d565b602435611b19613103565b80835260026020526040832060018060a01b0383165f5260205260ff60405f20541615611c7f575f51602061383e5f395f51905f528114611c24577f4d78a1efed2c67e13c88dc1d2b373524542b10e4be6e473b7aef18254fd106ce6040600f5492611b8484612fad565b600f55611c14825195611b9687612e78565b6001600160a01b039081168088526020808901858152868a018b8152600160608c0181815260808d018e81528c8f52600c909552898e209c518d5497166001600160a01b0319909716969096178c559151918b01919091555160028a015591516003909801805460ff191698151560ff169890981788559690611207565b815190815260016020820152a380f35b60405162461bcd60e51b815260206004820152602d60248201527f476f7665726e3a20557365207265766f6b65506963526f6c6520666f7220504960448201526c432c206e6f7420766f74696e6760981b6064820152608490fd5b60405162461bcd60e51b815260206004820152602660248201527f476f7665726e3a2054617267657420646f6573206e6f7420686f6c64207468696044820152657320726f6c6560d01b6064820152608490fd5b50346101e85760203660031901126101e857600480358083526020919091526040822060018101546001600160a01b03163303611e26575f51602061383e5f395f51905f528352600260209081526040808520335f9081529252902054611d3c9060ff16612f51565b600881019060ff82541660078110156115fe57600203611de1576003818101859055825460ff19161782556007810154905f1982018281116107a75790600691857f86c8666ce90833483ffb181e731155621a7af09966271866b2f1e510fd8d76b08880a3015414611dac578280f35b805460ff191660051790557f25092bad5af7d63822f060ef91cf8348ed4e41dd0cbae628763c484f90f846488280a25f808280f35b60405162461bcd60e51b815260206004820152601f60248201527f476f7665726e3a204d696c6573746f6e65206973206e6f7420616374697665006044820152606490fd5b60405162461bcd60e51b815260206004820152603360248201525f51602061385e5f395f51905f526044820152722066696e616c697a65206d696c6573746f6e6560681b6064820152608490fd5b50346101e85760803660031901126101e857600435602435906064355f51602061383e5f395f51905f52845260026020526040842060018060a01b0333165f5260205260ff60405f2054161561210657818452600460205260408420546120b7578015612063576003600854106120055760405161012081018181106001600160401b03821117611ff15790600891604052848152602081019233845260408201906044358252606083018881526080840189815260a085019142835260c0860193845260e08601948b86526101008701988c8a528a8d52600460205260408d209751885560018060a01b03905116600188019060018060a01b03166bffffffffffffffffffffffff60a01b82541617905551600287015551600386015551600485015551600584015551600683015551600782015501905160078110156115fe5760ff801983541691161790556040519182527f739403880d0a0e6599619d5f9a0f51c4d7a3f2af9d00cf6cfed47bad313da64560203393a380f35b634e487b7160e01b86526041600452602486fd5b60405162461bcd60e51b815260206004820152603060248201527f476f7665726e3a204d696e696d756d20332076616c696461746f72732072657160448201526f756972656420746f206f70657261746560801b6064820152608490fd5b60405162461bcd60e51b815260206004820152602660248201527f476f7665726e3a204d696c6573746f6e6520636f756e742063616e6e6f74206260448201526565207a65726f60d01b6064820152608490fd5b60405162461bcd60e51b815260206004820152602160248201527f476f7665726e3a2050726f6772616d20494420616c72656164792065786973746044820152607360f81b6064820152608490fd5b63e2517d3f60e01b8452336004525f51602061383e5f395f51905f52602452604484fd5b5034612455576080366003190112612455576004356024356044356001600160401b03811161245557612161903690600401612db3565b91906064356001600160401b03811161245557612182903690600401612db3565b93855f52600460205260405f2093600885019560ff875416600781101561276b5760020361271b5760018601546001600160a01b031633036126d7578115612676576003860194855483811061261e5783810390811161260a578655885f52600560205260405f206040516121f681612e5d565b4281526020810185815261220b368886612eb4565b906040830191825261221e36878b612eb4565b93606084019485528054906801000000000000000082101561252057600182018082558210156125f6575f5260205f209060021b01925183555160018301556002820190518051906001600160401b0382116125205761227e8354612ef9565b601f81116125a5575b50602090601f831160011461253f576003949392915f9183612534575b50508160011b915f1990861b1c19161790555b0190518051906001600160401b0382116125205781906122d78454612ef9565b601f81116124c7575b50602090601f8311600114612464575f92612459575b50508160011b915f199060031b1c19161790555b6003546001600160a01b0316803b15612455575f80916044604051809481936340c10f1960e01b83523360048401528960248401525af1801561244a57612404575b50916123a28994926123927fddd5853f584c43fc3c35fb19e86ba5d5af3522f2811498bbee0290da037a2e00956040519586958652606060208701526060860191612f31565b9083820360408501523397612f31565b0390a354156123af578380f35b600360ff1983541617825560066007820154910154146123ce57808380f35b805460ff191660051790557f25092bad5af7d63822f060ef91cf8348ed4e41dd0cbae628763c484f90f846488280a25f80808380f35b7fddd5853f584c43fc3c35fb19e86ba5d5af3522f2811498bbee0290da037a2e0093919a508994926124395f6123a293612e93565b6123925f9c9395505092945061234c565b6040513d5f823e3d90fd5b5f80fd5b015190505f806122f6565b5f8581528281209350601f198516905b8181106124af5750908460019594939210612497575b505050811b01905561230a565b01515f1960f88460031b161c191690555f808061248a565b92936020600181928786015181550195019301612474565b828111156122e057909150835f5260205f20601f840160051c9060208510612518575b849392601f0160051c82900391015f5b8281106125085750506122e0565b5f818301558594506001016124fa565b5f91506124ea565b634e487b7160e01b5f52604160045260245ffd5b015190505f806122a4565b90601f19831691845f52815f20925f5b81811061258d575091600193918560039897969410612576575b505050811b0190556122b7565b01515f1983881b60f8161c191690555f8080612569565b9293602060018192878601518155019501930161254f565b8281111561228757835f5260205f20601f840160051c90602085106125ee575b81601f9101920160051c03905f5b8281106125e1575050612287565b5f828201556001016125d3565b5f91506125c5565b634e487b7160e01b5f52603260045260245ffd5b634e487b7160e01b5f52601160045260245ffd5b60405162461bcd60e51b815260206004820152602a60248201527f476f7665726e3a205769746864726177616c20657863656564732072656d61696044820152696e696e672071756f746160b01b6064820152608490fd5b60405162461bcd60e51b815260206004820152603360248201527f476f7665726e3a205769746864726177616c20616d6f756e74206d7573742062604482015272652067726561746572207468616e207a65726f60681b6064820152608490fd5b60405162461bcd60e51b815260206004820152602960248201525f51602061385e5f395f51905f5260448201526820776974686472617760b81b6064820152608490fd5b60405162461bcd60e51b815260206004820152602260248201527f476f7665726e3a2046756e647320617265206c6f636b6564206f722066726f7a60448201526132b760f11b6064820152608490fd5b634e487b7160e01b5f52602160045260245ffd5b3461245557604036600319011261245557612798612d87565b336001600160a01b038216036127b6576127b49060043561334e565b005b63334bd91960e11b5f5260045ffd5b34612455576020366003190112612455576127de612d9d565b6127e6613103565b6001600160a01b0381165f9081525f5160206137fe5f395f51905f52602052604090205460ff16156128605761281b816132bd565b505f51602061383e5f395f51905f527f34ae08fdb86d5e708d661bf928437d30dbb79bb4e02ff7f5298c37bb005bce3260206040519333855260018060a01b031693a3005b60405162461bcd60e51b815260206004820152602360248201527f476f7665726e3a205573657220646f6573206e6f7420686f6c642050494320726044820152626f6c6560e81b6064820152608490fd5b34612455576040366003190112612455576128ca612d87565b6004355f52600a60205260405f209060018060a01b03165f52602052602060ff60405f2054166040519015158152f35b34612455576040366003190112612455576127b4600435612919612d87565b90612933610243825f526002602052600160405f20015490565b613231565b34612455575f366003190112612455576020600854604051908152f35b346124555760203660031901126124555760206129806004355f526002602052600160405f20015490565b604051908152f35b346124555760403660031901126124555760043560243580151590818103612455576129b26130a7565b825f52600460205260405f20835f526009602052600860405f2091019260ff845416600781101561276b5760046129e99114612e04565b600382019260ff845416612c585760028301548015612c135762093a80810180911161260a574211612bce575f868152600a6020908152604080832033845290915290205460ff16612b74575f868152600a602090815260408083203384529091529020805460ff1916600117905515612b5c5781546001810180911161260a5782555b6001825492015490604051908152826020820152816040820152857fc3b9e23a914ae2a6290c61d340482bd29c82c9fb9ae2bf41f049ea0cfd073d4460603393a36008546001600160ff1b038116810361260a5760039060011b04916001830180931161260a578211612b18575050600160ff19825416179055600260ff198254161790557f3c25f1ff7a27a931fa82f990736b4380c4f5d927a44fa06382239acb79b05cfb5f80a2005b1015612b2057005b600160ff19825416179055600660ff198254161790557f2fe628ac748966616044f0699e0523314d696d15181b05cfdb0777543e43a0465f80a2005b600182018054906001820180921161260a5755612a6d565b60405162461bcd60e51b815260206004820152602c60248201527f476f7665726e3a20596f75206861766520616c726561647920766f7465206f6e60448201526b081d1a1a5cc8185c1c19585b60a21b6064820152608490fd5b60405162461bcd60e51b815260206004820152601d60248201527f476f7665726e3a2041707065616c20766f74696e6720657870697265640000006044820152606490fd5b60405162461bcd60e51b815260206004820152601860248201527f476f7665726e3a204e6f206163746976652061707065616c00000000000000006044820152606490fd5b60405162461bcd60e51b815260206004820152601f60248201527f476f7665726e3a2041707065616c20616c7265616479207265736f6c766564006044820152606490fd5b346124555760203660031901126124555760043563ffffffff60e01b811680910361245557602090637965db0b60e01b8114908115612ce2575b506040519015158152f35b6301ffc9a760e01b14905082612cd7565b34612455576020366003190112612455576004355f52600460205260405f209081549160018060a01b036001820154166002820154600383015460048401549060058501549260068601549460ff6008600789015498015416988852602088015260408701526060860152608085015260a084015260c083015260e0820152600782101561276b5761012091610100820152f35b602435906001600160a01b038216820361245557565b600435906001600160a01b038216820361245557565b9181601f84011215612455578235916001600160401b038311612455576020838186019501011161245557565b805180835260209291819084018484015e5f828201840152601f01601f1916010190565b15612e0b57565b60405162461bcd60e51b815260206004820152601d60248201527f476f7665726e3a2050726f6772616d206973206e6f742066726f7a656e0000006044820152606490fd5b9190820180921161260a57565b608081019081106001600160401b0382111761252057604052565b60a081019081106001600160401b0382111761252057604052565b90601f801991011681019081106001600160401b0382111761252057604052565b9291926001600160401b0382116125205760405191612edd601f8201601f191660200184612e93565b829481845281830111612455578281602093845f960137010152565b90600182811c92168015612f27575b6020831014612f1357565b634e487b7160e01b5f52602260045260245ffd5b91607f1691612f08565b908060209392818452848401375f828201840152601f01601f1916010190565b15612f5857565b60405162461bcd60e51b815260206004820152602760248201527f476f7665726e3a2043616c6c6572206e6f206c6f6e67657220686f6c64732050604482015266494320726f6c6560c81b6064820152608490fd5b5f19811461260a5760010190565b15612fc257565b60405162461bcd60e51b815260206004820152601e60248201527f476f7665726e3a20596f75206861766520616c726561647920766f74656400006044820152606490fd5b9060405191825f82549261301a84612ef9565b80845293600181169081156130855750600114613041575b5061303f92500383612e93565b565b90505f9291925260205f20905f915b81831061306957505090602061303f928201015f613032565b6020919350806001915483858901015201910190918492613050565b90506020925061303f94915060ff191682840152151560051b8201015f613032565b335f9081527f39183d20fd1c150b5fe6a1e9e3c17b46ba16a658bdd8b2da626a432f3e06989f602052604090205460ff16156130df57565b63e2517d3f60e01b5f52336004525f5160206137be5f395f51905f5260245260445ffd5b335f9081527fe5ebfa64fca8d502a8e50c1edffd2c31ef4dad5b396e65d9f397fb028f74abc5602052604090205460ff161561313b57565b63e2517d3f60e01b5f52336004525f51602061381e5f395f51905f5260245260445ffd5b5f81815260026020908152604080832033845290915290205460ff16156131835750565b63e2517d3f60e01b5f523360045260245260445ffd5b6001600160a01b0381165f9081525f5160206137fe5f395f51905f52602052604090205460ff1661322c576001600160a01b03165f8181525f5160206137fe5f395f51905f5260205260408120805460ff191660011790553391905f51602061383e5f395f51905f52907f2f8788117e7eff1d82e926ec794901d17c78024a50270940304540a733656f0d9080a4600190565b505f90565b5f8181526002602090815260408083206001600160a01b038616845290915290205460ff166132b7575f8181526002602090815260408083206001600160a01b0395909516808452949091528120805460ff19166001179055339291907f2f8788117e7eff1d82e926ec794901d17c78024a50270940304540a733656f0d9080a4600190565b50505f90565b6001600160a01b0381165f9081525f5160206137fe5f395f51905f52602052604090205460ff161561322c576001600160a01b03165f8181525f5160206137fe5f395f51905f5260205260408120805460ff191690553391905f51602061383e5f395f51905f52907ff6391f5c32d9c69d2a47ea670b442974b53935d1edc7fd64eb21e047a839171b9080a4600190565b5f8181526002602090815260408083206001600160a01b038616845290915290205460ff16156132b7575f8181526002602090815260408083206001600160a01b0395909516808452949091528120805460ff19169055339291907ff6391f5c32d9c69d2a47ea670b442974b53935d1edc7fd64eb21e047a839171b9080a4600190565b60ff81146134185760ff811690601f821161340957604051916133f6604084612e93565b6020808452838101919036833783525290565b632cd44ac360e21b5f5260045ffd5b506040515f815f549161342a83612ef9565b80835292600181169081156134ae5750600114613451575b61344e92500382612e93565b90565b505f80805290917f290decd9548b62a8d60345a988386fc84ba6bc95484008f6362f93160ef3e5635b81831061349257505090602061344e92820101613442565b602091935080600191548385880101520191019091839261347a565b6020925061344e94915060ff191682840152151560051b820101613442565b60ff81146134f15760ff811690601f821161340957604051916133f6604084612e93565b50604051600154815f61350383612ef9565b80835292600181169081156134ae57506001146135265761344e92500382612e93565b5060015f90815290917fb10e2d527612073b26eecdfd717e6a320cf44b4afac2b0732d9fcbe2b7fa0cf65b81831061356957505090602061344e92820101613442565b6020919350806001915483858801015201910190918392613551565b307f00000000000000000000000000000000000000000000000000000000000000006001600160a01b03161480613678575b156135e0577f000000000000000000000000000000000000000000000000000000000000000090565b60405160208101907f8b73c3c69bb8fe3d512ecc4cf759cc79239f7b179b0ffacaa9a75d522b39400f82527f000000000000000000000000000000000000000000000000000000000000000060408201527f000000000000000000000000000000000000000000000000000000000000000060608201524660808201523060a082015260a0815261367260c082612e93565b51902090565b507f000000000000000000000000000000000000000000000000000000000000000046146135b7565b81519190604183036136d1576136ca9250602082015190606060408401519301515f1a9061373b565b9192909190565b50505f9160029190565b600481101561276b57806136ed575050565b600181036137045763f645eedf60e01b5f5260045ffd5b6002810361371f575063fce698f760e01b5f5260045260245ffd5b6003146137295750565b6335e2f38360e21b5f5260045260245ffd5b91907f7fffffffffffffffffffffffffffffff5d576e7357a4501ddfe92f46681b20a084116137b2579160209360809260ff5f9560405194855216868401526040830152606082015282805260015afa1561244a575f516001600160a01b038116156137a857905f905f90565b505f906001905f90565b5050505f916003919056fe21702c8af46127c7fa207f89d0b0a8441bb32959a0ac7df790e9ab1a25c9892659a1c48e5837ad7a7f3dcedcbe129bf3249ec4fbf651fd4f5e2600ead39fe2f5c9b826569274d0da80de4d1cbb6ef9bea38f5def0b02c6c6ec3f5c638b60ab80a49807205ce4d355092ef5a8a18f56e8913cf4a201fbe287825b095693c2177527d2af54ea0b1916da680dba2ffb61c99b3257b5fd2f6d71ba8a3bb85a94919c476f7665726e3a204f6e6c79207468652070726f6772616d205049432063616ea26469706673582212206c49650cc18f16b580c80139acdb54cd2e0a8dd9e93a53ed5b5329b6bdb478d964736f6c634300082300332f8788117e7eff1d82e926ec794901d17c78024a50270940304540a733656f0dac33ff75c19e70fe83507db0d683fd3465c996598dc972688b7ace676c89077be5ebfa64fca8d502a8e50c1edffd2c31ef4dad5b396e65d9f397fb028f74abc5",
  "linkReferences": {},
  "deployedLinkReferences": {},
  "immutableReferences": {
    "3617": [
      {
        "length": 32,
        "start": 13758
      }
    ],
    "3619": [
      {
        "length": 32,
        "start": 13947
      }
    ],
    "3621": [
      {
        "length": 32,
        "start": 13704
      }
    ],
    "3623": [
      {
        "length": 32,
        "start": 13837
      }
    ],
    "3625": [
      {
        "length": 32,
        "start": 13875
      }
    ],
    "3628": [
      {
        "length": 32,
        "start": 4077
      }
    ],
    "3631": [
      {
        "length": 32,
        "start": 4119
      }
    ]
  },
  "inputSourceName": "project/contracts/Web3Governance.sol",
  "buildInfoId": "solc-0_8_35-6252b96e0a78cc7d076d2f8ca5f40554f8dd43ff"
}