{
  "_format": "hh3-artifact-1",
  "contractName": "Web3Governance",
  "sourceName": "contracts/Web3Governance.sol",
  "abi": [
    {
      "inputs": [
        {
          "internalType": "address",
          "name": "_rupiahTokenAddress",
          "type": "address"
        },
        {
          "internalType": "address",
          "name": "rootAdmin",
          "type": "address"
        }
      ],
      "stateMutability": "nonpayable",
      "type": "constructor"
    },
    {
      "inputs": [],
      "name": "AccessControlBadConfirmation",
      "type": "error"
    },
    {
      "inputs": [
        {
          "internalType": "address",
          "name": "account",
          "type": "address"
        },
        {
          "internalType": "bytes32",
          "name": "neededRole",
          "type": "bytes32"
        }
      ],
      "name": "AccessControlUnauthorizedAccount",
      "type": "error"
    },
    {
      "inputs": [],
      "name": "ECDSAInvalidSignature",
      "type": "error"
    },
    {
      "inputs": [
        {
          "internalType": "uint256",
          "name": "length",
          "type": "uint256"
        }
      ],
      "name": "ECDSAInvalidSignatureLength",
      "type": "error"
    },
    {
      "inputs": [
        {
          "internalType": "bytes32",
          "name": "s",
          "type": "bytes32"
        }
      ],
      "name": "ECDSAInvalidSignatureS",
      "type": "error"
    },
    {
      "inputs": [],
      "name": "InvalidShortString",
      "type": "error"
    },
    {
      "inputs": [
        {
          "internalType": "string",
          "name": "str",
          "type": "string"
        }
      ],
      "name": "StringTooLong",
      "type": "error"
    },
    {
      "anonymous": false,
      "inputs": [],
      "name": "EIP712DomainChanged",
      "type": "event"
    },
    {
      "anonymous": false,
      "inputs": [
        {
          "indexed": true,
          "internalType": "uint256",
          "name": "programId",
          "type": "uint256"
        },
        {
          "indexed": true,
          "internalType": "uint256",
          "name": "milestoneIndex",
          "type": "uint256"
        }
      ],
      "name": "MilestoneFinalized",
      "type": "event"
    },
    {
      "anonymous": false,
      "inputs": [
        {
          "indexed": true,
          "internalType": "uint256",
          "name": "programId",
          "type": "uint256"
        },
        {
          "indexed": true,
          "internalType": "uint256",
          "name": "milestoneIndex",
          "type": "uint256"
        },
        {
          "indexed": false,
          "internalType": "uint256",
          "name": "milestoneBudget",
          "type": "uint256"
        }
      ],
      "name": "MilestoneReleased",
      "type": "event"
    },
    {
      "anonymous": false,
      "inputs": [
        {
          "indexed": true,
          "internalType": "uint256",
          "name": "programId",
          "type": "uint256"
        },
        {
          "indexed": true,
          "internalType": "address",
          "name": "picWallet",
          "type": "address"
        },
        {
          "indexed": false,
          "internalType": "uint256",
          "name": "amount",
          "type": "uint256"
        },
        {
          "indexed": false,
          "internalType": "string",
          "name": "recipient",
          "type": "string"
        },
        {
          "indexed": false,
          "internalType": "string",
          "name": "description",
          "type": "string"
        }
      ],
      "name": "OnChainWithdrawalLogged",
      "type": "event"
    },
    {
      "anonymous": false,
      "inputs": [
        {
          "indexed": true,
          "internalType": "bytes32",
          "name": "role",
          "type": "bytes32"
        },
        {
          "indexed": true,
          "internalType": "address",
          "name": "account",
          "type": "address"
        },
        {
          "indexed": false,
          "internalType": "address",
          "name": "admin",
          "type": "address"
        }
      ],
      "name": "PicRoleGrantedByAdmin",
      "type": "event"
    },
    {
      "anonymous": false,
      "inputs": [
        {
          "indexed": true,
          "internalType": "bytes32",
          "name": "role",
          "type": "bytes32"
        },
        {
          "indexed": true,
          "internalType": "address",
          "name": "account",
          "type": "address"
        },
        {
          "indexed": false,
          "internalType": "address",
          "name": "admin",
          "type": "address"
        }
      ],
      "name": "PicRoleRevokedByAdmin",
      "type": "event"
    },
    {
      "anonymous": false,
      "inputs": [
        {
          "indexed": true,
          "internalType": "uint256",
          "name": "programId",
          "type": "uint256"
        }
      ],
      "name": "ProgramCompleted",
      "type": "event"
    },
    {
      "anonymous": false,
      "inputs": [
        {
          "indexed": true,
          "internalType": "uint256",
          "name": "programId",
          "type": "uint256"
        },
        {
          "indexed": true,
          "internalType": "address",
          "name": "auditor",
          "type": "address"
        }
      ],
      "name": "ProgramForceFrozen",
      "type": "event"
    },
    {
      "anonymous": false,
      "inputs": [
        {
          "indexed": true,
          "internalType": "uint256",
          "name": "programId",
          "type": "uint256"
        }
      ],
      "name": "ProgramFraudConfirmed",
      "type": "event"
    },
    {
      "anonymous": false,
      "inputs": [
        {
          "indexed": true,
          "internalType": "uint256",
          "name": "programId",
          "type": "uint256"
        }
      ],
      "name": "ProgramUnfrozenViaBFT",
      "type": "event"
    },
    {
      "anonymous": false,
      "inputs": [
        {
          "indexed": true,
          "internalType": "uint256",
          "name": "programId",
          "type": "uint256"
        }
      ],
      "name": "ProposalApproved",
      "type": "event"
    },
    {
      "anonymous": false,
      "inputs": [
        {
          "indexed": true,
          "internalType": "uint256",
          "name": "programId",
          "type": "uint256"
        },
        {
          "indexed": false,
          "internalType": "bytes32",
          "name": "programHash",
          "type": "bytes32"
        },
        {
          "indexed": true,
          "internalType": "address",
          "name": "picWallet",
          "type": "address"
        }
      ],
      "name": "ProposalSubmitted",
      "type": "event"
    },
    {
      "anonymous": false,
      "inputs": [
        {
          "indexed": true,
          "internalType": "uint256",
          "name": "programId",
          "type": "uint256"
        },
        {
          "indexed": true,
          "internalType": "address",
          "name": "validator",
          "type": "address"
        },
        {
          "indexed": false,
          "internalType": "uint256",
          "name": "currentVotes",
          "type": "uint256"
        }
      ],
      "name": "ProposalVoted",
      "type": "event"
    },
    {
      "anonymous": false,
      "inputs": [
        {
          "indexed": true,
          "internalType": "bytes32",
          "name": "role",
          "type": "bytes32"
        },
        {
          "indexed": true,
          "internalType": "bytes32",
          "name": "previousAdminRole",
          "type": "bytes32"
        },
        {
          "indexed": true,
          "internalType": "bytes32",
          "name": "newAdminRole",
          "type": "bytes32"
        }
      ],
      "name": "RoleAdminChanged",
      "type": "event"
    },
    {
      "anonymous": false,
      "inputs": [
        {
          "indexed": true,
          "internalType": "bytes32",
          "name": "role",
          "type": "bytes32"
        },
        {
          "indexed": true,
          "internalType": "address",
          "name": "account",
          "type": "address"
        },
        {
          "indexed": true,
          "internalType": "address",
          "name": "sender",
          "type": "address"
        }
      ],
      "name": "RoleGranted",
      "type": "event"
    },
    {
      "anonymous": false,
      "inputs": [
        {
          "indexed": true,
          "internalType": "bytes32",
          "name": "role",
          "type": "bytes32"
        },
        {
          "indexed": true,
          "internalType": "address",
          "name": "account",
          "type": "address"
        }
      ],
      "name": "RoleGrantedViaGovernance",
      "type": "event"
    },
    {
      "anonymous": false,
      "inputs": [
        {
          "indexed": true,
          "internalType": "bytes32",
          "name": "role",
          "type": "bytes32"
        },
        {
          "indexed": true,
          "internalType": "address",
          "name": "account",
          "type": "address"
        },
        {
          "indexed": true,
          "internalType": "address",
          "name": "sender",
          "type": "address"
        }
      ],
      "name": "RoleRevoked",
      "type": "event"
    },
    {
      "anonymous": false,
      "inputs": [
        {
          "indexed": true,
          "internalType": "bytes32",
          "name": "role",
          "type": "bytes32"
        },
        {
          "indexed": true,
          "internalType": "address",
          "name": "account",
          "type": "address"
        }
      ],
      "name": "RoleRevokedViaGovernance",
      "type": "event"
    },
    {
      "anonymous": false,
      "inputs": [
        {
          "indexed": true,
          "internalType": "uint256",
          "name": "voteId",
          "type": "uint256"
        },
        {
          "indexed": true,
          "internalType": "address",
          "name": "admin",
          "type": "address"
        },
        {
          "indexed": false,
          "internalType": "uint256",
          "name": "currentVotes",
          "type": "uint256"
        }
      ],
      "name": "RoleVoteCast",
      "type": "event"
    },
    {
      "anonymous": false,
      "inputs": [
        {
          "indexed": true,
          "internalType": "uint256",
          "name": "voteId",
          "type": "uint256"
        },
        {
          "indexed": true,
          "internalType": "address",
          "name": "candidate",
          "type": "address"
        },
        {
          "indexed": false,
          "internalType": "bytes32",
          "name": "roleToTarget",
          "type": "bytes32"
        },
        {
          "indexed": false,
          "internalType": "bool",
          "name": "isDevote",
          "type": "bool"
        }
      ],
      "name": "RoleVoteCreated",
      "type": "event"
    },
    {
      "anonymous": false,
      "inputs": [
        {
          "indexed": true,
          "internalType": "uint256",
          "name": "programId",
          "type": "uint256"
        },
        {
          "indexed": true,
          "internalType": "address",
          "name": "picWallet",
          "type": "address"
        }
      ],
      "name": "UnfreezeAppealSubmitted",
      "type": "event"
    },
    {
      "anonymous": false,
      "inputs": [
        {
          "indexed": true,
          "internalType": "uint256",
          "name": "programId",
          "type": "uint256"
        },
        {
          "indexed": true,
          "internalType": "address",
          "name": "validator",
          "type": "address"
        },
        {
          "indexed": false,
          "internalType": "bool",
          "name": "approve",
          "type": "bool"
        },
        {
          "indexed": false,
          "internalType": "uint256",
          "name": "approveVotes",
          "type": "uint256"
        },
        {
          "indexed": false,
          "internalType": "uint256",
          "name": "rejectVotes",
          "type": "uint256"
        }
      ],
      "name": "UnfreezeAppealVoted",
      "type": "event"
    },
    {
      "inputs": [],
      "name": "ADMIN_ROLE",
      "outputs": [
        {
          "internalType": "bytes32",
          "name": "",
          "type": "bytes32"
        }
      ],
      "stateMutability": "view",
      "type": "function"
    },
    {
      "inputs": [],
      "name": "AUDITOR_ROLE",
      "outputs": [
        {
          "internalType": "bytes32",
          "name": "",
          "type": "bytes32"
        }
      ],
      "stateMutability": "view",
      "type": "function"
    },
    {
      "inputs": [],
      "name": "DEFAULT_ADMIN_ROLE",
      "outputs": [
        {
          "internalType": "bytes32",
          "name": "",
          "type": "bytes32"
        }
      ],
      "stateMutability": "view",
      "type": "function"
    },
    {
      "inputs": [],
      "name": "PIC_ROLE",
      "outputs": [
        {
          "internalType": "bytes32",
          "name": "",
          "type": "bytes32"
        }
      ],
      "stateMutability": "view",
      "type": "function"
    },
    {
      "inputs": [],
      "name": "VALIDATOR_ROLE",
      "outputs": [
        {
          "internalType": "bytes32",
          "name": "",
          "type": "bytes32"
        }
      ],
      "stateMutability": "view",
      "type": "function"
    },
    {
      "inputs": [],
      "name": "VOTING_PERIOD",
      "outputs": [
        {
          "internalType": "uint256",
          "name": "",
          "type": "uint256"
        }
      ],
      "stateMutability": "view",
      "type": "function"
    },
    {
      "inputs": [],
      "name": "eip712Domain",
      "outputs": [
        {
          "internalType": "bytes1",
          "name": "fields",
          "type": "bytes1"
        },
        {
          "internalType": "string",
          "name": "name",
          "type": "string"
        },
        {
          "internalType": "string",
          "name": "version",
          "type": "string"
        },
        {
          "internalType": "uint256",
          "name": "chainId",
          "type": "uint256"
        },
        {
          "internalType": "address",
          "name": "verifyingContract",
          "type": "address"
        },
        {
          "internalType": "bytes32",
          "name": "salt",
          "type": "bytes32"
        },
        {
          "internalType": "uint256[]",
          "name": "extensions",
          "type": "uint256[]"
        }
      ],
      "stateMutability": "view",
      "type": "function"
    },
    {
      "inputs": [
        {
          "internalType": "uint256",
          "name": "programId",
          "type": "uint256"
        },
        {
          "internalType": "uint256",
          "name": "milestoneIndex",
          "type": "uint256"
        },
        {
          "internalType": "uint256",
          "name": "milestoneBudget",
          "type": "uint256"
        },
        {
          "internalType": "bytes32",
          "name": "evidenceHash",
          "type": "bytes32"
        },
        {
          "internalType": "bytes",
          "name": "sigAdmin",
          "type": "bytes"
        },
        {
          "internalType": "bytes",
          "name": "sigValidator",
          "type": "bytes"
        },
        {
          "internalType": "bytes",
          "name": "sigAuditor",
          "type": "bytes"
        }
      ],
      "name": "executeMilestoneRelease",
      "outputs": [],
      "stateMutability": "nonpayable",
      "type": "function"
    },
    {
      "inputs": [
        {
          "internalType": "uint256",
          "name": "programId",
          "type": "uint256"
        },
        {
          "internalType": "uint256",
          "name": "withdrawAmount",
          "type": "uint256"
        },
        {
          "internalType": "string",
          "name": "recipientName",
          "type": "string"
        },
        {
          "internalType": "string",
          "name": "description",
          "type": "string"
        }
      ],
      "name": "executePicWithdrawal",
      "outputs": [],
      "stateMutability": "nonpayable",
      "type": "function"
    },
    {
      "inputs": [
        {
          "internalType": "uint256",
          "name": "programId",
          "type": "uint256"
        }
      ],
      "name": "finalizeMilestone",
      "outputs": [],
      "stateMutability": "nonpayable",
      "type": "function"
    },
    {
      "inputs": [
        {
          "internalType": "uint256",
          "name": "programId",
          "type": "uint256"
        }
      ],
      "name": "forceFreezeProgram",
      "outputs": [],
      "stateMutability": "nonpayable",
      "type": "function"
    },
    {
      "inputs": [
        {
          "internalType": "bytes32",
          "name": "role",
          "type": "bytes32"
        }
      ],
      "name": "getRoleAdmin",
      "outputs": [
        {
          "internalType": "bytes32",
          "name": "",
          "type": "bytes32"
        }
      ],
      "stateMutability": "view",
      "type": "function"
    },
    {
      "inputs": [
        {
          "internalType": "uint256",
          "name": "programId",
          "type": "uint256"
        }
      ],
      "name": "getWithdrawalHistory",
      "outputs": [
        {
          "components": [
            {
              "internalType": "uint256",
              "name": "timestamp",
              "type": "uint256"
            },
            {
              "internalType": "uint256",
              "name": "amount",
              "type": "uint256"
            },
            {
              "internalType": "string",
              "name": "recipientName",
              "type": "string"
            },
            {
              "internalType": "string",
              "name": "description",
              "type": "string"
            }
          ],
          "internalType": "struct Web3Governance.WithdrawalRecord[]",
          "name": "",
          "type": "tuple[]"
        }
      ],
      "stateMutability": "view",
      "type": "function"
    },
    {
      "inputs": [
        {
          "internalType": "address",
          "name": "user",
          "type": "address"
        }
      ],
      "name": "grantPicRole",
      "outputs": [],
      "stateMutability": "nonpayable",
      "type": "function"
    },
    {
      "inputs": [
        {
          "internalType": "bytes32",
          "name": "role",
          "type": "bytes32"
        },
        {
          "internalType": "address",
          "name": "account",
          "type": "address"
        }
      ],
      "name": "grantRole",
      "outputs": [],
      "stateMutability": "nonpayable",
      "type": "function"
    },
    {
      "inputs": [
        {
          "internalType": "bytes32",
          "name": "role",
          "type": "bytes32"
        },
        {
          "internalType": "address",
          "name": "account",
          "type": "address"
        }
      ],
      "name": "hasRole",
      "outputs": [
        {
          "internalType": "bool",
          "name": "",
          "type": "bool"
        }
      ],
      "stateMutability": "view",
      "type": "function"
    },
    {
      "inputs": [
        {
          "internalType": "uint256",
          "name": "",
          "type": "uint256"
        },
        {
          "internalType": "address",
          "name": "",
          "type": "address"
        }
      ],
      "name": "hasVotedProposal",
      "outputs": [
        {
          "internalType": "bool",
          "name": "",
          "type": "bool"
        }
      ],
      "stateMutability": "view",
      "type": "function"
    },
    {
      "inputs": [
        {
          "internalType": "uint256",
          "name": "",
          "type": "uint256"
        },
        {
          "internalType": "address",
          "name": "",
          "type": "address"
        }
      ],
      "name": "hasVotedRole",
      "outputs": [
        {
          "internalType": "bool",
          "name": "",
          "type": "bool"
        }
      ],
      "stateMutability": "view",
      "type": "function"
    },
    {
      "inputs": [
        {
          "internalType": "uint256",
          "name": "",
          "type": "uint256"
        },
        {
          "internalType": "address",
          "name": "",
          "type": "address"
        }
      ],
      "name": "hasVotedUnfreeze",
      "outputs": [
        {
          "internalType": "bool",
          "name": "",
          "type": "bool"
        }
      ],
      "stateMutability": "view",
      "type": "function"
    },
    {
      "inputs": [
        {
          "internalType": "uint256",
          "name": "",
          "type": "uint256"
        },
        {
          "internalType": "address",
          "name": "",
          "type": "address"
        }
      ],
      "name": "historyOfSigners",
      "outputs": [
        {
          "internalType": "bool",
          "name": "",
          "type": "bool"
        }
      ],
      "stateMutability": "view",
      "type": "function"
    },
    {
      "inputs": [
        {
          "internalType": "uint256",
          "name": "",
          "type": "uint256"
        }
      ],
      "name": "proposalVotes",
      "outputs": [
        {
          "internalType": "uint256",
          "name": "",
          "type": "uint256"
        }
      ],
      "stateMutability": "view",
      "type": "function"
    },
    {
      "inputs": [
        {
          "internalType": "uint256",
          "name": "",
          "type": "uint256"
        }
      ],
      "name": "proposals",
      "outputs": [
        {
          "internalType": "bytes32",
          "name": "programHash",
          "type": "bytes32"
        },
        {
          "internalType": "address",
          "name": "picWallet",
          "type": "address"
        },
        {
          "internalType": "uint256",
          "name": "totalBudget",
          "type": "uint256"
        },
        {
          "internalType": "uint256",
          "name": "currentAllocatedBalance",
          "type": "uint256"
        },
        {
          "internalType": "uint256",
          "name": "totalAllocatedSoFar",
          "type": "uint256"
        },
        {
          "internalType": "uint256",
          "name": "submittedAt",
          "type": "uint256"
        },
        {
          "internalType": "uint256",
          "name": "milestoneCount",
          "type": "uint256"
        },
        {
          "internalType": "uint256",
          "name": "currentMilestone",
          "type": "uint256"
        },
        {
          "internalType": "enum Web3Governance.ProposalStatus",
          "name": "status",
          "type": "uint8"
        }
      ],
      "stateMutability": "view",
      "type": "function"
    },
    {
      "inputs": [
        {
          "internalType": "address",
          "name": "targetUser",
          "type": "address"
        },
        {
          "internalType": "bytes32",
          "name": "roleToRevoke",
          "type": "bytes32"
        }
      ],
      "name": "proposeRoleDevote",
      "outputs": [],
      "stateMutability": "nonpayable",
      "type": "function"
    },
    {
      "inputs": [
        {
          "internalType": "address",
          "name": "candidate",
          "type": "address"
        },
        {
          "internalType": "bytes32",
          "name": "roleToGrant",
          "type": "bytes32"
        }
      ],
      "name": "proposeRoleGrant",
      "outputs": [],
      "stateMutability": "nonpayable",
      "type": "function"
    },
    {
      "inputs": [
        {
          "internalType": "uint256",
          "name": "programId",
          "type": "uint256"
        }
      ],
      "name": "proposeUnfreezeAppeal",
      "outputs": [],
      "stateMutability": "nonpayable",
      "type": "function"
    },
    {
      "inputs": [
        {
          "internalType": "bytes32",
          "name": "role",
          "type": "bytes32"
        },
        {
          "internalType": "address",
          "name": "callerConfirmation",
          "type": "address"
        }
      ],
      "name": "renounceRole",
      "outputs": [],
      "stateMutability": "nonpayable",
      "type": "function"
    },
    {
      "inputs": [
        {
          "internalType": "address",
          "name": "user",
          "type": "address"
        }
      ],
      "name": "revokePicRole",
      "outputs": [],
      "stateMutability": "nonpayable",
      "type": "function"
    },
    {
      "inputs": [
        {
          "internalType": "bytes32",
          "name": "role",
          "type": "bytes32"
        },
        {
          "internalType": "address",
          "name": "account",
          "type": "address"
        }
      ],
      "name": "revokeRole",
      "outputs": [],
      "stateMutability": "nonpayable",
      "type": "function"
    },
    {
      "inputs": [],
      "name": "roleVoteNonce",
      "outputs": [
        {
          "internalType": "uint256",
          "name": "",
          "type": "uint256"
        }
      ],
      "stateMutability": "view",
      "type": "function"
    },
    {
      "inputs": [
        {
          "internalType": "uint256",
          "name": "",
          "type": "uint256"
        }
      ],
      "name": "roleVotes",
      "outputs": [
        {
          "internalType": "address",
          "name": "candidate",
          "type": "address"
        },
        {
          "internalType": "bytes32",
          "name": "roleToTarget",
          "type": "bytes32"
        },
        {
          "internalType": "uint256",
          "name": "voteCount",
          "type": "uint256"
        },
        {
          "internalType": "bool",
          "name": "isDevote",
          "type": "bool"
        },
        {
          "internalType": "bool",
          "name": "executed",
          "type": "bool"
        }
      ],
      "stateMutability": "view",
      "type": "function"
    },
    {
      "inputs": [],
      "name": "rupiahToken",
      "outputs": [
        {
          "internalType": "contract IRupiahToken",
          "name": "",
          "type": "address"
        }
      ],
      "stateMutability": "view",
      "type": "function"
    },
    {
      "inputs": [
        {
          "internalType": "uint256",
          "name": "programId",
          "type": "uint256"
        },
        {
          "internalType": "bytes32",
          "name": "programHash",
          "type": "bytes32"
        },
        {
          "internalType": "uint256",
          "name": "totalBudget",
          "type": "uint256"
        },
        {
          "internalType": "uint256",
          "name": "milestoneCount",
          "type": "uint256"
        }
      ],
      "name": "submitProposal",
      "outputs": [],
      "stateMutability": "nonpayable",
      "type": "function"
    },
    {
      "inputs": [
        {
          "internalType": "bytes4",
          "name": "interfaceId",
          "type": "bytes4"
        }
      ],
      "name": "supportsInterface",
      "outputs": [
        {
          "internalType": "bool",
          "name": "",
          "type": "bool"
        }
      ],
      "stateMutability": "view",
      "type": "function"
    },
    {
      "inputs": [],
      "name": "totalAdminsCount",
      "outputs": [
        {
          "internalType": "uint256",
          "name": "",
          "type": "uint256"
        }
      ],
      "stateMutability": "view",
      "type": "function"
    },
    {
      "inputs": [],
      "name": "totalValidatorsCount",
      "outputs": [
        {
          "internalType": "uint256",
          "name": "",
          "type": "uint256"
        }
      ],
      "stateMutability": "view",
      "type": "function"
    },
    {
      "inputs": [
        {
          "internalType": "uint256",
          "name": "",
          "type": "uint256"
        }
      ],
      "name": "unfreezeAppeals",
      "outputs": [
        {
          "internalType": "uint256",
          "name": "approveVotes",
          "type": "uint256"
        },
        {
          "internalType": "uint256",
          "name": "rejectVotes",
          "type": "uint256"
        },
        {
          "internalType": "uint256",
          "name": "appealStartedAt",
          "type": "uint256"
        },
        {
          "internalType": "bool",
          "name": "resolved",
          "type": "bool"
        }
      ],
      "stateMutability": "view",
      "type": "function"
    },
    {
      "inputs": [
        {
          "internalType": "uint256",
          "name": "programId",
          "type": "uint256"
        }
      ],
      "name": "voteProposal",
      "outputs": [],
      "stateMutability": "nonpayable",
      "type": "function"
    },
    {
      "inputs": [
        {
          "internalType": "uint256",
          "name": "voteId",
          "type": "uint256"
        }
      ],
      "name": "voteRoleProposal",
      "outputs": [],
      "stateMutability": "nonpayable",
      "type": "function"
    },
    {
      "inputs": [
        {
          "internalType": "uint256",
          "name": "programId",
          "type": "uint256"
        },
        {
          "internalType": "bool",
          "name": "approve",
          "type": "bool"
        }
      ],
      "name": "voteUnfreezeAppeal",
      "outputs": [],
      "stateMutability": "nonpayable",
      "type": "function"
    }
  ],
  "bytecode": "0x61016080604052346101aa576040816140b4803803809161002082856101ae565b8339810103126101aa57610133610042602061003b846101e5565b93016101e5565b6040516100506040826101ae565b6018815260208101907f476f7665726e616e6365416e7469436f7272757074696f6e000000000000000082526040519161008b6040846101ae565b600183526020830191603160f81b83526100a481610302565b610120526100b1846104a4565b61014052519020918260e05251902080610100524660a0526040519060208201927f8b73c3c69bb8fe3d512ecc4cf759cc79239f7b179b0ffacaa9a75d522b39400f8452604083015260608201524660808201523060a082015260a0815261011a60c0826101ae565b5190206080523060c05261012d816101f9565b5061026f565b506001600e55600380546001600160a01b0319166001600160a01b0392909216919091179055604051613a6b90816105e9823960805181613776015260a05181613833015260c05181613740015260e051816137c5015261010051816137eb01526101205181610fed015261014051816110170152f35b5f80fd5b601f909101601f19168101906001600160401b038211908210176101d157604052565b634e487b7160e01b5f52604160045260245ffd5b51906001600160a01b03821682036101aa57565b6001600160a01b0381165f9081525f5160206140745f395f51905f52602052604090205460ff1661026a576001600160a01b03165f8181525f5160206140745f395f51905f5260205260408120805460ff191660011790553391905f5160206140545f395f51905f528180a4600190565b505f90565b6001600160a01b0381165f9081525f5160206140945f395f51905f52602052604090205460ff1661026a576001600160a01b03165f8181525f5160206140945f395f51905f5260205260408120805460ff191660011790553391907fa49807205ce4d355092ef5a8a18f56e8913cf4a201fbe287825b095693c21775905f5160206140545f395f51905f529080a4600190565b908151602081105f1461037c575090601f81511161033c57602081519101516020821061032d571790565b5f198260200360031b1b161790565b604460209160405192839163305a27a960e01b83528160048401528051918291826024860152018484015e5f828201840152601f01601f19168101030190fd5b6001600160401b0381116101d1575f54600181811c9116801561049a575b602082101461048657601f8111610448575b50602092601f82116001146103e957928192935f926103de575b50508160011b915f199060031b1c1916175f5560ff90565b015190505f806103c6565b601f198216935f8052805f20915f5b8681106104305750836001959610610418575b505050811b015f5560ff90565b01515f1960f88460031b161c191690555f808061040b565b919260206001819286850151815501940192016103f8565b818111156103ac575f805260205f20601f80840160051c809201920160051c03905f5b8281106104795750506103ac565b5f8282015560010161046b565b634e487b7160e01b5f52602260045260245ffd5b90607f169061039a565b908151602081105f146104cf575090601f81511161033c57602081519101516020821061032d571790565b6001600160401b0381116101d157600154600181811c911680156105de575b602082101461048657601f811161059f575b50602092601f821160011461053e57928192935f92610533575b50508160011b915f199060031b1c19161760015560ff90565b015190505f8061051a565b601f1982169360015f52805f20915f5b868110610587575083600195961061056f575b505050811b0160015560ff90565b01515f1960f88460031b161c191690555f8080610561565b9192602060018192868501518155019401920161054e565b818111156105005760015f5260205f20601f80840160051c809201920160051c03905f5b8281106105d1575050610500565b5f828201556001016105c3565b90607f16906104ee56fe6080806040526004361015610012575f80fd5b5f905f3560e01c908163013cf08b14612eab5750806301ffc9a714612e55578063168ff6cb14612b40578063248a9ca314612b0d5780632da26bc614612af05780632f2ff15d14612ab2578063308cf0a214612a69578063346f601b1461297d57806336568abe1461293757806337b0509c146122e25780633b6a986a1461202c5780634b959a4f14611e8b5780634e20ada514611cac578063544ffc9c14611c8257806361da5a381461188e5780636656f3ff1461184457806369eb6767146116ac5780636d535e7c146116625780636e1d616e1461163a57806375b238fc14611612578063807896d5146113c757806383206b4e1461137d57806384ac7140146110cf57806384b0196e14610fd357806391d1485414610f89578063a217fddf14610f6d578063a572219814610f44578063b0c4d1e714610ef2578063b1610d7e14610ed4578063b4f0dc4414610d7a578063b5ca962114610bd1578063c00fc9181461042a578063c04a598314610307578063c11f176e146102a1578063c49baebe14610279578063cb78ae8814610251578063d547741f14610209578063e806c046146101eb5763ea14aad4146101cb575f80fd5b346101e857806003193601126101e8576020600f54604051908152f35b80fd5b50346101e857806003193601126101e8576020600e54604051908152f35b50346101e85760403660031901126101e85761024d600435610229612f3f565b90610248610243825f526002602052600160405f20015490565b613317565b613506565b5080f35b50346101e857806003193601126101e85760206040515f5160206139f65f395f51905f528152f35b50346101e857806003193601126101e85760206040515f5160206139765f395f51905f528152f35b50346101e85760203660031901126101e857604060a0916004358152600c6020522060ff600180841b03825416916001810154906003600282015491015491604051948552602085015260408401528181161515606084015260081c1615156080820152f35b50346101e85760203660031901126101e8575f5160206139965f395f51905f528152600260209081526040808320335f90815292529020546004359060ff16156104065780825260046020526008604083200160ff81541660078110156103f2576002036103a357805460ff1916600417905533907f4463d871b39f2e1fac04ca37187365f694a4391331a0af555f044d8f2706c25d8380a380f35b60405162461bcd60e51b815260206004820152602160248201527f476f7665726e3a2050726f6772616d206973206e6f7420696e206163746976656044820152600160fd1b6064820152608490fd5b634e487b7160e01b84526021600452602484fd5b63e2517d3f60e01b8252336004525f5160206139965f395f51905f52602452604482fd5b50346101e85760e03660031901126101e8576024356004356044356084356001600160401b038111610bcd57610464903690600401612f6b565b60a4356001600160401b038111610bc957610483903690600401612f6b565b909260c4356001600160401b038111610bc5576104a4903690600401612f6b565b929093878a52600460205260408a209260018060a01b036001850154163303610b78575f5160206139f65f395f51905f528b52600260209081526040808d20335f90815292529020546104f99060ff16613109565b600884019260ff8454166007811015610b645760018114908115610b59575b5015610b1457600485019261052e8a8554613008565b600287015410610aa95760078601988c8a54809103610a585760068801541115610a145761060698610606986106138f8f948f976105fd6105f761062b9b604261061c9a61060d976106229e6040519160208301937f59111defc335dafa1b9a96a3a112e032c093301b0dc9796d0311570608aa3e7f855260408401526060830152608082015260643560a082015260a081526105cc60c08261304b565b5190206105d761373d565b906040519161190160f01b835260028301526022820152209a369161306c565b89613859565b909f919f613893565b369161306c565b85613859565b909c919c613893565b90613859565b90929192613893565b5f5160206139d65f395f51905f528b52600260205260408b2060018060a01b0386165f5260205260ff60405f205416156109cf575f5160206139765f395f51905f528b52600260205260408b2060018060a01b0387165f5260205260ff60405f2054161561097e575f5160206139965f395f51905f528b52600260205260408b2060018060a01b0382165f5260205260ff60405f2054161561092f5787948a6107bb575b95600395968a8d52600b60205260408d209060018060a01b03165f5260205260405f20600160ff19825416179055898c52600b60205260408c209060018060a01b03165f5260205260405f20600160ff19825416179055888b52600b60205260408b209060018060a01b03165f5260205260405f20600160ff1982541617905561075a858254613008565b9055600260ff198254161790550155805490600182018092116107a757556040519081527fd33fcd27cbfb73a2d9058c968b560ccb306500bf536133802048489ecc7355e990602090a380f35b634e487b7160e01b86526011600452602486fd5b9450888b52600b60205260408b2060018060a01b0386165f5260205260ff60405f2054166108de57888b52600b60205260408b2060018060a01b0387165f5260205260ff60405f20541661088957888b52600b60205260408b2060018060a01b0382165f5260205260ff60405f2054166108365787946106cf565b60405162461bcd60e51b815260206004820152602560248201527f476f7665726e3a2041756469746f7220616c7265616479207369676e6564206260448201526465666f726560d81b6064820152608490fd5b60405162461bcd60e51b815260206004820152602760248201527f476f7665726e3a2056616c696461746f7220616c7265616479207369676e6564604482015266206265666f726560c81b6064820152608490fd5b60405162461bcd60e51b815260206004820152602360248201527f476f7665726e3a2041646d696e20616c7265616479207369676e6564206265666044820152626f726560e81b6064820152608490fd5b60405162461bcd60e51b815260206004820152602160248201527f476f7665726e3a20496e76616c69642041756469746f72207369676e617475726044820152606560f81b6064820152608490fd5b60405162461bcd60e51b815260206004820152602360248201527f476f7665726e3a20496e76616c69642056616c696461746f72207369676e617460448201526275726560e81b6064820152608490fd5b60405162461bcd60e51b815260206004820152601f60248201527f476f7665726e3a20496e76616c69642041646d696e207369676e6174757265006044820152606490fd5b606460405162461bcd60e51b815260206004820152602060248201527f476f7665726e3a20416c6c206d696c6573746f6e657320636f6d706c657465646044820152fd5b60405162461bcd60e51b815260206004820152602360248201527f476f7665726e3a204d696c6573746f6e652073657175656e6365206d69736d616044820152620e8c6d60eb1b6064820152608490fd5b60405162461bcd60e51b815260206004820152603860248201527f476f7665726e3a2043756d756c6174697665206d696c6573746f6e652062756460448201527f676574206578636565647320746f74616c2062756467657400000000000000006064820152608490fd5b60405162461bcd60e51b815260206004820152601b60248201527f476f7665726e3a204d696c6573746f6e65206973206c6f636b656400000000006044820152606490fd5b60039150145f610518565b634e487b7160e01b8d52602160045260248dfd5b60405162461bcd60e51b815260206004820152603260248201525f516020613a165f395f51905f526044820152712072656c65617365206d696c6573746f6e6560701b6064820152608490fd5b8880fd5b8680fd5b8480fd5b50346101e85760203660031901126101e857610beb612f55565b610bf36132bb565b5f5160206139d65f395f51905f52825260026020526040822060018060a01b0382165f5260205260ff60405f2054161580610d44575b80610d0e575b80610cd8575b15610c8957610c4381613351565b505f5160206139f65f395f51905f527f624f03b50163c63ec57754d9e6bf944ac1883a9478b7af11d05cde6028867efd60206040519333855260018060a01b031693a380f35b60405162461bcd60e51b815260206004820152602160248201527f476f7665726e3a205573657220616c726561647920686f6c6473206120726f6c6044820152606560f81b6064820152608490fd5b505f5160206139f65f395f51905f52825260026020526040822060018060a01b0382165f5260205260ff60405f20541615610c35565b505f5160206139965f395f51905f52825260026020526040822060018060a01b0382165f5260205260ff60405f20541615610c2f565b505f5160206139765f395f51905f52825260026020526040822060018060a01b0382165f5260205260ff60405f20541615610c29565b50346101e85760203660031901126101e857600435815260056020526040812080546001600160401b038111610ec05760208160051b0190610dbf604051928361304b565b80825260208201809385526020852085915b838310610e7157868587604051928392602084019060208552518091526040840160408260051b8601019392905b828210610e0e57505050500390f35b91936001919395506020610e618192603f198a82030186528851908151815283820151848201526060610e506040840151608060408501526080840190612f98565b920151906060818403910152612f98565b9601920192018594939192610dff565b60046020600192604051610e8481613015565b855481528486015483820152610e9c600287016131bf565b6040820152610ead600387016131bf565b6060820152815201920192019190610dd1565b634e487b7160e01b83526041600452602483fd5b50346101e857806003193601126101e857602060405162093a808152f35b50346101e85760203660031901126101e8576040608091600435815260096020522080549060018101549060ff6003600283015492015416916040519384526020840152604083015215156060820152f35b50346101e857806003193601126101e8576003546040516001600160a01b039091168152602090f35b50346101e857806003193601126101e857602090604051908152f35b50346101e85760403660031901126101e8576040610fa5612f3f565b9160043581526002602052209060018060a01b03165f52602052602060ff60405f2054166040519015158152f35b50346101e857806003193601126101e857611073906110117f000000000000000000000000000000000000000000000000000000000000000061358a565b9061103b7f0000000000000000000000000000000000000000000000000000000000000000613685565b9060206110816040519361104f838661304b565b8385525f368137604051968796600f60f81b885260e08589015260e0880190612f98565b908682036040880152612f98565b904660608601523060808601528260a086015284820360c08601528080855193848152019401925b8281106110b857505050500390f35b8351855286955093810193928101926001016110a9565b50346101e85760403660031901126101e8576110e9612f55565b6024356110f46132bb565b5f5160206139d65f395f51905f52835260026020526040832060018060a01b0383165f5260205260ff60405f2054161580611347575b80611311575b806112db575b15611287575f5160206139f65f395f51905f52811461122d577f4d78a1efed2c67e13c88dc1d2b373524542b10e4be6e473b7aef18254fd106ce6040600f549261117f84613165565b600f5561121e82519561119187613030565b6001600160a01b039081168088526020808901858152868a018b815260608b018c815260808c018d81528b8e52600c909452888d209b518c5496166001600160a01b0319909616959095178b55905160018b01555160028a015591516003909801805460ff191698151560ff1698909817885596905b51815461ff00191690151560081b61ff0016179055565b8151908152856020820152a380f35b60405162461bcd60e51b815260206004820152602c60248201527f476f7665726e3a20557365206772616e74506963526f6c6520666f722050494360448201526b2c206e6f7420766f74696e6760a01b6064820152608490fd5b60405162461bcd60e51b815260206004820152602660248201527f476f7665726e3a2043616e64696461746520616c726561647920686f6c6473206044820152656120726f6c6560d01b6064820152608490fd5b505f5160206139f65f395f51905f52835260026020526040832060018060a01b0383165f5260205260ff60405f20541615611136565b505f5160206139965f395f51905f52835260026020526040832060018060a01b0383165f5260205260ff60405f20541615611130565b505f5160206139765f395f51905f52835260026020526040832060018060a01b0383165f5260205260ff60405f2054161561112a565b50346101e85760403660031901126101e8576040611399612f3f565b916004358152600b602052209060018060a01b03165f52602052602060ff60405f2054166040519015158152f35b50346101e85760203660031901126101e8576004356113e461325f565b808252600460205260408220600881019060ff82541660078110156115fe576115aa576005015462093a80810180911161153357421161155b57818352600660209081526040808520335f90815292529020546114449060ff1615613173565b81835260066020526040832060018060a01b0333165f5260205260405f20600160ff1982541617905581835260076020526040832080549060018201809211611547575581835260076020526040832054604051908152827f12602b81b4b3a6bc77534c571e8af3d316246bc5e5bea24efdf512ff6715da1560203393a36008546001600160ff1b03811681036115335760039060011b0460018101809111611533578284526007602052604084205410156114fe578280f35b805460ff191660011790557f28ec9e38ba73636ceb2f6c1574136f83bd46284a3c74734b711bf45e12f8d9298280a25f808280f35b634e487b7160e01b84526011600452602484fd5b634e487b7160e01b85526011600452602485fd5b60405162461bcd60e51b815260206004820152602160248201527f476f7665726e3a20566f74696e6720706572696f6420686173206578706972656044820152601960fa1b6064820152608490fd5b60405162461bcd60e51b815260206004820152602660248201527f476f7665726e3a2050726f6772616d206973206e6f7420696e20766f74696e6760448201526520706861736560d01b6064820152608490fd5b634e487b7160e01b85526021600452602485fd5b50346101e857806003193601126101e85760206040515f5160206139d65f395f51905f528152f35b50346101e857806003193601126101e85760206040515f5160206139965f395f51905f528152f35b50346101e85760403660031901126101e857604061167e612f3f565b9160043581526006602052209060018060a01b03165f52602052602060ff60405f2054166040519015158152f35b50346101e85760203660031901126101e8576004358082526004602052604082208183526009602052604083209060ff60088201541660078110156115fe5760046116f79114612fbc565b600101546001600160a01b03163303611802576002810154159081156117f3575b50156117a35761177a60405161172d81613015565b8381526003602082018581526040830142815260608401918783528688526009602052604088209451855551600185015551600284015551151591019060ff801983541691151516179055565b33907f577a4c09557d73f14ae554ff94441086548f00d4d0817153fa04f2097cfce35f8380a380f35b60405162461bcd60e51b815260206004820152602260248201527f476f7665726e3a2041707065616c20616c726561647920696e2070726f677265604482015261737360f01b6064820152608490fd5b60ff915060030154165f611718565b60405162461bcd60e51b815260206004820152602760248201525f516020613a165f395f51905f5260448201526608185c1c19585b60ca1b6064820152608490fd5b50346101e85760403660031901126101e8576040611860612f3f565b916004358152600d602052209060018060a01b03165f52602052602060ff60405f2054166040519015158152f35b50346101e85760203660031901126101e8576004356118ab6132bb565b808252600c6020526040822090600382019060ff825460081c16611c3d57808452600d60209081526040808620335f90815292529020546118ef9060ff1615613173565b808452600d6020526040842060018060a01b0333165f5260205260405f20600160ff198254161790556002830190815491600183018093116107a757829055604051908282527f5cf19a2bf4123c9f2a6bf317c9b28512afcc7efbfb010926b1f5d2759c8e46c860203393a3600e546001600160ff1b03811681036115475760039060011b04906001820180921161154757101561198b578280f35b805461ff001981166101001790915560ff1615611a6357600181016119bb815460018060a01b0384541690613506565b5080545f5160206139d65f395f51905f528103611a2d5750600e5460018111611a19575b505b5490546001600160a01b0316907fcb925fe574b13704351499696c2e147e10032b3ace539d44c649745eb1bb1e468380a35b5f808280f35b5f19810190811161153357600e555f6119df565b5f5160206139765f395f51905f52036119e15760085480611a4f575b506119e1565b5f198101908111611533576008555f611a49565b80545f5160206139d65f395f51905f5283526002602090815260408085206001600160a01b039093165f818152939092529091205460ff161580611c07575b80611bd1575b80611b9b575b15611b4b57611ac2600183019182546133e9565b5080545f5160206139d65f395f51905f528103611b225750600e546001810180911161153357600e555b5490546001600160a01b0316907f6d57cc1494c141b0e7811d510ef048c4b722349ecce84bd6eec239844590130c8380a3611a13565b5f5160206139765f395f51905f5203611aec576008546001810180911161153357600855611aec565b60405162461bcd60e51b815260206004820152602260248201527f476f7665726e3a2043616e646964617465206e6f7720686f6c6473206120726f6044820152616c6560f01b6064820152608490fd5b505f5160206139f65f395f51905f52835260026020526040832060018060a01b0382165f5260205260ff60405f20541615611aae565b505f5160206139965f395f51905f52835260026020526040832060018060a01b0382165f5260205260ff60405f20541615611aa8565b505f5160206139765f395f51905f52835260026020526040832060018060a01b0382165f5260205260ff60405f20541615611aa2565b60405162461bcd60e51b815260206004820152601d60248201527f476f7665726e3a20566f746520616c72656164792065786563757465640000006044820152606490fd5b50346101e85760203660031901126101e85760406020916004358152600783522054604051908152f35b50346101e85760403660031901126101e857611cc6612f55565b602435611cd16132bb565b80835260026020526040832060018060a01b0383165f5260205260ff60405f20541615611e37575f5160206139f65f395f51905f528114611ddc577f4d78a1efed2c67e13c88dc1d2b373524542b10e4be6e473b7aef18254fd106ce6040600f5492611d3c84613165565b600f55611dcc825195611d4e87613030565b6001600160a01b039081168088526020808901858152868a018b8152600160608c0181815260808d018e81528c8f52600c909552898e209c518d5497166001600160a01b0319909716969096178c559151918b01919091555160028a015591516003909801805460ff191698151560ff169890981788559690611207565b815190815260016020820152a380f35b60405162461bcd60e51b815260206004820152602d60248201527f476f7665726e3a20557365207265766f6b65506963526f6c6520666f7220504960448201526c432c206e6f7420766f74696e6760981b6064820152608490fd5b60405162461bcd60e51b815260206004820152602660248201527f476f7665726e3a2054617267657420646f6573206e6f7420686f6c64207468696044820152657320726f6c6560d01b6064820152608490fd5b50346101e85760203660031901126101e857600480358083526020919091526040822060018101546001600160a01b03163303611fde575f5160206139f65f395f51905f528352600260209081526040808520335f9081529252902054611ef49060ff16613109565b600881019060ff82541660078110156115fe57600203611f99576003818101859055825460ff19161782556007810154905f1982018281116107a75790600691857f86c8666ce90833483ffb181e731155621a7af09966271866b2f1e510fd8d76b08880a3015414611f64578280f35b805460ff191660051790557f25092bad5af7d63822f060ef91cf8348ed4e41dd0cbae628763c484f90f846488280a25f808280f35b60405162461bcd60e51b815260206004820152601f60248201527f476f7665726e3a204d696c6573746f6e65206973206e6f7420616374697665006044820152606490fd5b60405162461bcd60e51b815260206004820152603360248201525f516020613a165f395f51905f526044820152722066696e616c697a65206d696c6573746f6e6560681b6064820152608490fd5b50346101e85760803660031901126101e857600435602435906064355f5160206139f65f395f51905f52845260026020526040842060018060a01b0333165f5260205260ff60405f205416156122be578184526004602052604084205461226f57801561221b576003600854106121bd5760405161012081018181106001600160401b038211176121a95790600891604052848152602081019233845260408201906044358252606083018881526080840189815260a085019142835260c0860193845260e08601948b86526101008701988c8a528a8d52600460205260408d209751885560018060a01b03905116600188019060018060a01b03166bffffffffffffffffffffffff60a01b82541617905551600287015551600386015551600485015551600584015551600683015551600782015501905160078110156115fe5760ff801983541691161790556040519182527f739403880d0a0e6599619d5f9a0f51c4d7a3f2af9d00cf6cfed47bad313da64560203393a380f35b634e487b7160e01b86526041600452602486fd5b60405162461bcd60e51b815260206004820152603060248201527f476f7665726e3a204d696e696d756d20332076616c696461746f72732072657160448201526f756972656420746f206f70657261746560801b6064820152608490fd5b60405162461bcd60e51b815260206004820152602660248201527f476f7665726e3a204d696c6573746f6e6520636f756e742063616e6e6f74206260448201526565207a65726f60d01b6064820152608490fd5b60405162461bcd60e51b815260206004820152602160248201527f476f7665726e3a2050726f6772616d20494420616c72656164792065786973746044820152607360f81b6064820152608490fd5b63e2517d3f60e01b8452336004525f5160206139f65f395f51905f52602452604484fd5b503461260d57608036600319011261260d576004356024356044356001600160401b03811161260d57612319903690600401612f6b565b91906064356001600160401b03811161260d5761233a903690600401612f6b565b93855f52600460205260405f2093600885019560ff8754166007811015612923576002036128d35760018601546001600160a01b0316330361288f57811561282e57600386019485548381106127d6578381039081116127c2578655885f52600560205260405f206040516123ae81613015565b428152602081018581526123c336888661306c565b90604083019182526123d636878b61306c565b9360608401948552805490680100000000000000008210156126d857600182018082558210156127ae575f5260205f209060021b01925183555160018301556002820190518051906001600160401b0382116126d85761243683546130b1565b601f811161275d575b50602090601f83116001146126f7576003949392915f91836126ec575b50508160011b915f1990861b1c19161790555b0190518051906001600160401b0382116126d857819061248f84546130b1565b601f811161267f575b50602090601f831160011461261c575f92612611575b50508160011b915f199060031b1c19161790555b6003546001600160a01b0316803b1561260d575f80916044604051809481936340c10f1960e01b83523360048401528960248401525af18015612602576125bc575b509161255a89949261254a7fddd5853f584c43fc3c35fb19e86ba5d5af3522f2811498bbee0290da037a2e009560405195869586526060602087015260608601916130e9565b90838203604085015233976130e9565b0390a35415612567578380f35b600360ff19835416178255600660078201549101541461258657808380f35b805460ff191660051790557f25092bad5af7d63822f060ef91cf8348ed4e41dd0cbae628763c484f90f846488280a25f80808380f35b7fddd5853f584c43fc3c35fb19e86ba5d5af3522f2811498bbee0290da037a2e0093919a508994926125f15f61255a9361304b565b61254a5f9c93955050929450612504565b6040513d5f823e3d90fd5b5f80fd5b015190505f806124ae565b5f8581528281209350601f198516905b818110612667575090846001959493921061264f575b505050811b0190556124c2565b01515f1960f88460031b161c191690555f8080612642565b9293602060018192878601518155019501930161262c565b8281111561249857909150835f5260205f20601f840160051c90602085106126d0575b849392601f0160051c82900391015f5b8281106126c0575050612498565b5f818301558594506001016126b2565b5f91506126a2565b634e487b7160e01b5f52604160045260245ffd5b015190505f8061245c565b90601f19831691845f52815f20925f5b81811061274557509160019391856003989796941061272e575b505050811b01905561246f565b01515f1983881b60f8161c191690555f8080612721565b92936020600181928786015181550195019301612707565b8281111561243f57835f5260205f20601f840160051c90602085106127a6575b81601f9101920160051c03905f5b82811061279957505061243f565b5f8282015560010161278b565b5f915061277d565b634e487b7160e01b5f52603260045260245ffd5b634e487b7160e01b5f52601160045260245ffd5b60405162461bcd60e51b815260206004820152602a60248201527f476f7665726e3a205769746864726177616c20657863656564732072656d61696044820152696e696e672071756f746160b01b6064820152608490fd5b60405162461bcd60e51b815260206004820152603360248201527f476f7665726e3a205769746864726177616c20616d6f756e74206d7573742062604482015272652067726561746572207468616e207a65726f60681b6064820152608490fd5b60405162461bcd60e51b815260206004820152602960248201525f516020613a165f395f51905f5260448201526820776974686472617760b81b6064820152608490fd5b60405162461bcd60e51b815260206004820152602260248201527f476f7665726e3a2046756e647320617265206c6f636b6564206f722066726f7a60448201526132b760f11b6064820152608490fd5b634e487b7160e01b5f52602160045260245ffd5b3461260d57604036600319011261260d57612950612f3f565b336001600160a01b0382160361296e5761296c90600435613506565b005b63334bd91960e11b5f5260045ffd5b3461260d57602036600319011261260d57612996612f55565b61299e6132bb565b6001600160a01b0381165f9081525f5160206139b65f395f51905f52602052604090205460ff1615612a18576129d381613475565b505f5160206139f65f395f51905f527f34ae08fdb86d5e708d661bf928437d30dbb79bb4e02ff7f5298c37bb005bce3260206040519333855260018060a01b031693a3005b60405162461bcd60e51b815260206004820152602360248201527f476f7665726e3a205573657220646f6573206e6f7420686f6c642050494320726044820152626f6c6560e81b6064820152608490fd5b3461260d57604036600319011261260d57612a82612f3f565b6004355f52600a60205260405f209060018060a01b03165f52602052602060ff60405f2054166040519015158152f35b3461260d57604036600319011261260d5761296c600435612ad1612f3f565b90612aeb610243825f526002602052600160405f20015490565b6133e9565b3461260d575f36600319011261260d576020600854604051908152f35b3461260d57602036600319011261260d576020612b386004355f526002602052600160405f20015490565b604051908152f35b3461260d57604036600319011261260d576004356024358015159081810361260d57612b6a61325f565b825f52600460205260405f20835f526009602052600860405f2091019260ff8454166007811015612923576004612ba19114612fbc565b600382019260ff845416612e105760028301548015612dcb5762093a8081018091116127c2574211612d86575f868152600a6020908152604080832033845290915290205460ff16612d2c575f868152600a602090815260408083203384529091529020805460ff1916600117905515612d14578154600181018091116127c25782555b6001825492015490604051908152826020820152816040820152857fc3b9e23a914ae2a6290c61d340482bd29c82c9fb9ae2bf41f049ea0cfd073d4460603393a36008546001600160ff1b03811681036127c25760039060011b0491600183018093116127c2578211612cd0575050600160ff19825416179055600260ff198254161790557f3c25f1ff7a27a931fa82f990736b4380c4f5d927a44fa06382239acb79b05cfb5f80a2005b1015612cd857005b600160ff19825416179055600660ff198254161790557f2fe628ac748966616044f0699e0523314d696d15181b05cfdb0777543e43a0465f80a2005b60018201805490600182018092116127c25755612c25565b60405162461bcd60e51b815260206004820152602c60248201527f476f7665726e3a20596f75206861766520616c726561647920766f7465206f6e60448201526b081d1a1a5cc8185c1c19585b60a21b6064820152608490fd5b60405162461bcd60e51b815260206004820152601d60248201527f476f7665726e3a2041707065616c20766f74696e6720657870697265640000006044820152606490fd5b60405162461bcd60e51b815260206004820152601860248201527f476f7665726e3a204e6f206163746976652061707065616c00000000000000006044820152606490fd5b60405162461bcd60e51b815260206004820152601f60248201527f476f7665726e3a2041707065616c20616c7265616479207265736f6c766564006044820152606490fd5b3461260d57602036600319011261260d5760043563ffffffff60e01b811680910361260d57602090637965db0b60e01b8114908115612e9a575b506040519015158152f35b6301ffc9a760e01b14905082612e8f565b3461260d57602036600319011261260d576004355f52600460205260405f209081549160018060a01b036001820154166002820154600383015460048401549060058501549260068601549460ff6008600789015498015416988852602088015260408701526060860152608085015260a084015260c083015260e082015260078210156129235761012091610100820152f35b602435906001600160a01b038216820361260d57565b600435906001600160a01b038216820361260d57565b9181601f8401121561260d578235916001600160401b03831161260d576020838186019501011161260d57565b805180835260209291819084018484015e5f828201840152601f01601f1916010190565b15612fc357565b60405162461bcd60e51b815260206004820152601d60248201527f476f7665726e3a2050726f6772616d206973206e6f742066726f7a656e0000006044820152606490fd5b919082018092116127c257565b608081019081106001600160401b038211176126d857604052565b60a081019081106001600160401b038211176126d857604052565b90601f801991011681019081106001600160401b038211176126d857604052565b9291926001600160401b0382116126d85760405191613095601f8201601f19166020018461304b565b82948184528183011161260d578281602093845f960137010152565b90600182811c921680156130df575b60208310146130cb57565b634e487b7160e01b5f52602260045260245ffd5b91607f16916130c0565b908060209392818452848401375f828201840152601f01601f1916010190565b1561311057565b60405162461bcd60e51b815260206004820152602760248201527f476f7665726e3a2043616c6c6572206e6f206c6f6e67657220686f6c64732050604482015266494320726f6c6560c81b6064820152608490fd5b5f1981146127c25760010190565b1561317a57565b60405162461bcd60e51b815260206004820152601e60248201527f476f7665726e3a20596f75206861766520616c726561647920766f74656400006044820152606490fd5b9060405191825f8254926131d2846130b1565b808452936001811690811561323d57506001146131f9575b506131f79250038361304b565b565b90505f9291925260205f20905f915b8183106132215750509060206131f7928201015f6131ea565b6020919350806001915483858901015201910190918492613208565b9050602092506131f794915060ff191682840152151560051b8201015f6131ea565b335f9081527f39183d20fd1c150b5fe6a1e9e3c17b46ba16a658bdd8b2da626a432f3e06989f602052604090205460ff161561329757565b63e2517d3f60e01b5f52336004525f5160206139765f395f51905f5260245260445ffd5b335f9081527fe5ebfa64fca8d502a8e50c1edffd2c31ef4dad5b396e65d9f397fb028f74abc5602052604090205460ff16156132f357565b63e2517d3f60e01b5f52336004525f5160206139d65f395f51905f5260245260445ffd5b5f81815260026020908152604080832033845290915290205460ff161561333b5750565b63e2517d3f60e01b5f523360045260245260445ffd5b6001600160a01b0381165f9081525f5160206139b65f395f51905f52602052604090205460ff166133e4576001600160a01b03165f8181525f5160206139b65f395f51905f5260205260408120805460ff191660011790553391905f5160206139f65f395f51905f52907f2f8788117e7eff1d82e926ec794901d17c78024a50270940304540a733656f0d9080a4600190565b505f90565b5f8181526002602090815260408083206001600160a01b038616845290915290205460ff1661346f575f8181526002602090815260408083206001600160a01b0395909516808452949091528120805460ff19166001179055339291907f2f8788117e7eff1d82e926ec794901d17c78024a50270940304540a733656f0d9080a4600190565b50505f90565b6001600160a01b0381165f9081525f5160206139b65f395f51905f52602052604090205460ff16156133e4576001600160a01b03165f8181525f5160206139b65f395f51905f5260205260408120805460ff191690553391905f5160206139f65f395f51905f52907ff6391f5c32d9c69d2a47ea670b442974b53935d1edc7fd64eb21e047a839171b9080a4600190565b5f8181526002602090815260408083206001600160a01b038616845290915290205460ff161561346f575f8181526002602090815260408083206001600160a01b0395909516808452949091528120805460ff19169055339291907ff6391f5c32d9c69d2a47ea670b442974b53935d1edc7fd64eb21e047a839171b9080a4600190565b60ff81146135d05760ff811690601f82116135c157604051916135ae60408461304b565b6020808452838101919036833783525290565b632cd44ac360e21b5f5260045ffd5b506040515f815f54916135e2836130b1565b80835292600181169081156136665750600114613609575b6136069250038261304b565b90565b505f80805290917f290decd9548b62a8d60345a988386fc84ba6bc95484008f6362f93160ef3e5635b81831061364a575050906020613606928201016135fa565b6020919350806001915483858801015201910190918392613632565b6020925061360694915060ff191682840152151560051b8201016135fa565b60ff81146136a95760ff811690601f82116135c157604051916135ae60408461304b565b50604051600154815f6136bb836130b1565b808352926001811690811561366657506001146136de576136069250038261304b565b5060015f90815290917fb10e2d527612073b26eecdfd717e6a320cf44b4afac2b0732d9fcbe2b7fa0cf65b818310613721575050906020613606928201016135fa565b6020919350806001915483858801015201910190918392613709565b307f00000000000000000000000000000000000000000000000000000000000000006001600160a01b03161480613830575b15613798577f000000000000000000000000000000000000000000000000000000000000000090565b60405160208101907f8b73c3c69bb8fe3d512ecc4cf759cc79239f7b179b0ffacaa9a75d522b39400f82527f000000000000000000000000000000000000000000000000000000000000000060408201527f000000000000000000000000000000000000000000000000000000000000000060608201524660808201523060a082015260a0815261382a60c08261304b565b51902090565b507f0000000000000000000000000000000000000000000000000000000000000000461461376f565b8151919060418303613889576138829250602082015190606060408401519301515f1a906138f3565b9192909190565b50505f9160029190565b600481101561292357806138a5575050565b600181036138bc5763f645eedf60e01b5f5260045ffd5b600281036138d7575063fce698f760e01b5f5260045260245ffd5b6003146138e15750565b6335e2f38360e21b5f5260045260245ffd5b91907f7fffffffffffffffffffffffffffffff5d576e7357a4501ddfe92f46681b20a0841161396a579160209360809260ff5f9560405194855216868401526040830152606082015282805260015afa15612602575f516001600160a01b0381161561396057905f905f90565b505f906001905f90565b5050505f916003919056fe21702c8af46127c7fa207f89d0b0a8441bb32959a0ac7df790e9ab1a25c9892659a1c48e5837ad7a7f3dcedcbe129bf3249ec4fbf651fd4f5e2600ead39fe2f5c9b826569274d0da80de4d1cbb6ef9bea38f5def0b02c6c6ec3f5c638b60ab80a49807205ce4d355092ef5a8a18f56e8913cf4a201fbe287825b095693c2177527d2af54ea0b1916da680dba2ffb61c99b3257b5fd2f6d71ba8a3bb85a94919c476f7665726e3a204f6e6c79207468652070726f6772616d205049432063616ea26469706673582212206c3500499c69314828011fdec2dd31993052c989c802e417aba9adee9bd6c77564736f6c634300082300332f8788117e7eff1d82e926ec794901d17c78024a50270940304540a733656f0dac33ff75c19e70fe83507db0d683fd3465c996598dc972688b7ace676c89077be5ebfa64fca8d502a8e50c1edffd2c31ef4dad5b396e65d9f397fb028f74abc5",
  "linkReferences": {},
  "deployedLinkReferences": {},
  "immutableReferences": {
    "3617": [
      {
        "length": 32,
        "start": 14198
      }
    ],
    "3619": [
      {
        "length": 32,
        "start": 14387
      }
    ],
    "3621": [
      {
        "length": 32,
        "start": 14144
      }
    ],
    "3623": [
      {
        "length": 32,
        "start": 14277
      }
    ],
    "3625": [
      {
        "length": 32,
        "start": 14315
      }
    ],
    "3628": [
      {
        "length": 32,
        "start": 4077
      }
    ],
    "3631": [
      {
        "length": 32,
        "start": 4119
      }
    ]
  },
  "inputSourceName": "project/contracts/Web3Governance.sol",
  "buildInfoId": "solc-0_8_35-d8be667b38f0bb769464e10663cc8bafa3e9750d"
}